{
  "address": "0x459D8201ADb265B83D1AAB0e1dbF4B2943D09644",
  "abi": [
    {
      "inputs": [
        {
          "internalType": "address",
          "name": "_governance",
          "type": "address"
        },
        {
          "internalType": "contract IOracleFactory",
          "name": "_oracleFactory",
          "type": "address"
        }
      ],
      "stateMutability": "nonpayable",
      "type": "constructor"
    },
    {
      "inputs": [],
      "name": "LengthMismatch",
      "type": "error"
    },
    {
      "inputs": [],
      "name": "NoGovernanceZeroAddress",
      "type": "error"
    },
    {
      "inputs": [],
      "name": "ObservationsNotWritable",
      "type": "error"
    },
    {
      "inputs": [],
      "name": "OnlyGovernance",
      "type": "error"
    },
    {
      "inputs": [],
      "name": "OnlyPendingGovernance",
      "type": "error"
    },
    {
      "inputs": [],
      "name": "UnallowedAdapter",
      "type": "error"
    },
    {
      "anonymous": false,
      "inputs": [
        {
          "indexed": false,
          "internalType": "contract IBridgeReceiverAdapter",
          "name": "_adapter",
          "type": "address"
        },
        {
          "indexed": false,
          "internalType": "bool",
          "name": "_isAllowed",
          "type": "bool"
        }
      ],
      "name": "AdapterWhitelisted",
      "type": "event"
    },
    {
      "anonymous": false,
      "inputs": [
        {
          "indexed": false,
          "internalType": "address",
          "name": "_pendingGovernance",
          "type": "address"
        }
      ],
      "name": "GovernanceProposal",
      "type": "event"
    },
    {
      "anonymous": false,
      "inputs": [
        {
          "indexed": false,
          "internalType": "address",
          "name": "_governance",
          "type": "address"
        }
      ],
      "name": "GovernanceSet",
      "type": "event"
    },
    {
      "anonymous": false,
      "inputs": [
        {
          "indexed": false,
          "internalType": "address",
          "name": "_user",
          "type": "address"
        },
        {
          "components": [
            {
              "internalType": "uint32",
              "name": "blockTimestamp",
              "type": "uint32"
            },
            {
              "internalType": "int24",
              "name": "tick",
              "type": "int24"
            }
          ],
          "indexed": false,
          "internalType": "struct IOracleSidechain.ObservationData[]",
          "name": "_observationsData",
          "type": "tuple[]"
        }
      ],
      "name": "ObservationsAdded",
      "type": "event"
    },
    {
      "inputs": [],
      "name": "acceptGovernance",
      "outputs": [],
      "stateMutability": "nonpayable",
      "type": "function"
    },
    {
      "inputs": [
        {
          "components": [
            {
              "internalType": "uint32",
              "name": "blockTimestamp",
              "type": "uint32"
            },
            {
              "internalType": "int24",
              "name": "tick",
              "type": "int24"
            }
          ],
          "internalType": "struct IOracleSidechain.ObservationData[]",
          "name": "_observationsData",
          "type": "tuple[]"
        },
        {
          "internalType": "address",
          "name": "_token0",
          "type": "address"
        },
        {
          "internalType": "address",
          "name": "_token1",
          "type": "address"
        },
        {
          "internalType": "uint24",
          "name": "_fee",
          "type": "uint24"
        }
      ],
      "name": "addObservations",
      "outputs": [],
      "stateMutability": "nonpayable",
      "type": "function"
    },
    {
      "inputs": [],
      "name": "governance",
      "outputs": [
        {
          "internalType": "address",
          "name": "",
          "type": "address"
        }
      ],
      "stateMutability": "view",
      "type": "function"
    },
    {
      "inputs": [],
      "name": "oracleFactory",
      "outputs": [
        {
          "internalType": "contract IOracleFactory",
          "name": "",
          "type": "address"
        }
      ],
      "stateMutability": "view",
      "type": "function"
    },
    {
      "inputs": [],
      "name": "pendingGovernance",
      "outputs": [
        {
          "internalType": "address",
          "name": "",
          "type": "address"
        }
      ],
      "stateMutability": "view",
      "type": "function"
    },
    {
      "inputs": [
        {
          "internalType": "address",
          "name": "_governance",
          "type": "address"
        }
      ],
      "name": "setGovernance",
      "outputs": [],
      "stateMutability": "nonpayable",
      "type": "function"
    },
    {
      "inputs": [
        {
          "internalType": "contract IBridgeReceiverAdapter",
          "name": "_receiverAdapter",
          "type": "address"
        },
        {
          "internalType": "bool",
          "name": "_isWhitelisted",
          "type": "bool"
        }
      ],
      "name": "whitelistAdapter",
      "outputs": [],
      "stateMutability": "nonpayable",
      "type": "function"
    },
    {
      "inputs": [
        {
          "internalType": "contract IBridgeReceiverAdapter[]",
          "name": "_receiverAdapters",
          "type": "address[]"
        },
        {
          "internalType": "bool[]",
          "name": "_isWhitelisted",
          "type": "bool[]"
        }
      ],
      "name": "whitelistAdapters",
      "outputs": [],
      "stateMutability": "nonpayable",
      "type": "function"
    },
    {
      "inputs": [
        {
          "internalType": "contract IBridgeReceiverAdapter",
          "name": "",
          "type": "address"
        }
      ],
      "name": "whitelistedAdapters",
      "outputs": [
        {
          "internalType": "bool",
          "name": "",
          "type": "bool"
        }
      ],
      "stateMutability": "view",
      "type": "function"
    }
  ],
  "transactionHash": "0xf51c104ea94c0c942a309f05b0702d5272458f7f7082877fa769cac4c44cf462",
  "args": [
    "0x57B067e4E27558FE2c60fCE86941011cB5F5A4FD",
    "0x3EE6f90Abb8Af28fA0084Ee55d82b3808A1d03a7"
  ],
  "numDeployments": 1,
  "solcInputHash": "d9c8f4a75f1081f77b146589b1a5d995",
  "bytecode": "0x608060405234801561001057600080fd5b50604051610ae3380380610ae383398101604081905261002f916100a3565b816001600160a01b0381166100565760405162b293ed60e81b815260040160405180910390fd5b600080546001600160a01b039283166001600160a01b03199182161790915560028054939092169216919091179055506100dd565b6001600160a01b03811681146100a057600080fd5b50565b600080604083850312156100b657600080fd5b82516100c18161008b565b60208401519092506100d28161008b565b809150509250929050565b6109f7806100ec6000396000f3fe608060405234801561001057600080fd5b50600436106100935760003560e01c8063ab033ea911610066578063ab033ea9146100f8578063b893cce21461010b578063c7f7fb901461013e578063f39c38a014610151578063f854c7c21461016457600080fd5b80630ddb5dd214610098578063238efcbc146100ad5780635aa6e675146100b5578063954e863e146100e5575b600080fd5b6100ab6100a63660046106ff565b610177565b005b6100ab610237565b6000546100c8906001600160a01b031681565b6040516001600160a01b0390911681526020015b60405180910390f35b6100ab6100f3366004610791565b6102c0565b6100ab6101063660046107ca565b6102f9565b61012e6101193660046107ca565b60036020526000908152604090205460ff1681565b60405190151581526020016100dc565b6002546100c8906001600160a01b031681565b6001546100c8906001600160a01b031681565b6100ab6101723660046107ee565b610378565b6000546001600160a01b031633146101a2576040516354348f0360e01b815260040160405180910390fd5b828181146101c6576040516001621398b960e31b0319815260040160405180910390fd5b60005b8181101561022f576102278686838181106101e6576101e66108a2565b90506020020160208101906101fb91906107ca565b85858481811061020d5761020d6108a2565b905060200201602081019061022291906108b8565b6104b5565b6001016101c9565b505050505050565b6001546001600160a01b0316331461026257604051637ef5703160e11b815260040160405180910390fd5b60018054600080546001600160a01b0383166001600160a01b031991821681179092559091169091556040519081527fc73be659241aade67e9a059bcf21494955018b213dbd1179054ccf928b13f3b69060200160405180910390a1565b6000546001600160a01b031633146102eb576040516354348f0360e01b815260040160405180910390fd5b6102f582826104b5565b5050565b6000546001600160a01b03163314610324576040516354348f0360e01b815260040160405180910390fd5b600180546001600160a01b0319166001600160a01b0383169081179091556040519081527fe987aaedf9d279143bdf1eee16cf1d0feb47742867d81083df8d6cd0a5ac857f9060200160405180910390a150565b3360009081526003602052604090205460ff166103a8576040516360ece74160e01b815260040160405180910390fd5b600080836001600160a01b0316856001600160a01b0316106103cb5783856103ce565b84845b60025491935091506000906103ee906001600160a01b0316848487610518565b90506001600160a01b0381163b158015906104175761040e828a8a6105e4565b505050506104ae565b60025460405163e0fee1f560e01b81526001600160a01b038681166004830152858116602483015262ffffff88166044830152600092169063e0fee1f5906064016020604051808303816000875af1158015610477573d6000803e3d6000fd5b505050506040513d601f19601f8201168201806040525081019061049b91906108d5565b90506104a8818b8b6105e4565b50505050505b5050505050565b6001600160a01b038216600081815260036020908152604091829020805460ff19168515159081179091558251938452908301527f3cece36ac6216147f57b10bb30975f82b18b8b290a7925c322277e684afcce4a910160405180910390a15050565b604080516001600160a01b03808616602083015284169181019190915262ffffff82166060820152600090859060800160408051601f198184030181529082905280516020918201206105c3939290917f60676c7a3e0f9e5e5559983a5412ecaf2a461ea356358fe7d6ba3a8c3ab100f891016001600160f81b0319815260609390931b6bffffffffffffffffffffffff191660018401526015830191909152603582015260550190565b60408051601f19818403018152919052805160209091012095945050505050565b604051633870176560e01b81526001600160a01b03841690633870176590610612908590859060040161095a565b6020604051808303816000875af1158015610631573d6000803e3d6000fd5b505050506040513d601f19601f820116820180604052508101906106559190610976565b1561069a577f617afa62635b4d3e0901427201c347a24650276db5c920f7347d6d969bf2567433838360405161068d93929190610993565b60405180910390a1505050565b604051630a96dcbd60e11b815260040160405180910390fd5b60008083601f8401126106c557600080fd5b50813567ffffffffffffffff8111156106dd57600080fd5b6020830191508360208260051b85010111156106f857600080fd5b9250929050565b6000806000806040858703121561071557600080fd5b843567ffffffffffffffff8082111561072d57600080fd5b610739888389016106b3565b9096509450602087013591508082111561075257600080fd5b5061075f878288016106b3565b95989497509550505050565b6001600160a01b038116811461078057600080fd5b50565b801515811461078057600080fd5b600080604083850312156107a457600080fd5b82356107af8161076b565b915060208301356107bf81610783565b809150509250929050565b6000602082840312156107dc57600080fd5b81356107e78161076b565b9392505050565b60008060008060006080868803121561080657600080fd5b853567ffffffffffffffff8082111561081e57600080fd5b818801915088601f83011261083257600080fd5b81358181111561084157600080fd5b8960208260061b850101111561085657600080fd5b6020928301975095505086013561086c8161076b565b9250604086013561087c8161076b565b9150606086013562ffffff8116811461089457600080fd5b809150509295509295909350565b634e487b7160e01b600052603260045260246000fd5b6000602082840312156108ca57600080fd5b81356107e781610783565b6000602082840312156108e757600080fd5b81516107e78161076b565b8183526000602080850194508260005b8581101561094f57813563ffffffff811680821461091f57600080fd5b88525081830135600281900b80821461093757600080fd5b88850152506040968701969190910190600101610902565b509495945050505050565b60208152600061096e6020830184866108f2565b949350505050565b60006020828403121561098857600080fd5b81516107e781610783565b6001600160a01b03841681526040602082018190526000906109b890830184866108f2565b9594505050505056fea26469706673582212200f73d220209a655fc278a27f39e1c654bc2e78ca20dc1b132c85990465706c5664736f6c634300080f0033",
  "devdoc": {
    "kind": "dev",
    "methods": {
      "setGovernance(address)": {
        "params": {
          "_governance": "The address being proposed as the new governance"
        }
      }
    },
    "version": 1
  },
  "userdoc": {
    "errors": {
      "NoGovernanceZeroAddress()": [
        {
          "notice": "Throws if trying to set governance to zero address"
        }
      ],
      "OnlyGovernance()": [
        {
          "notice": "Throws if the caller of the function is not governance"
        }
      ],
      "OnlyPendingGovernance()": [
        {
          "notice": "Throws if the caller of the function is not pendingGovernance"
        }
      ]
    },
    "events": {
      "GovernanceProposal(address)": {
        "notice": "Emitted when a new governance is proposed"
      },
      "GovernanceSet(address)": {
        "notice": "Emitted when pendingGovernance accepts to be governance"
      }
    },
    "kind": "user",
    "methods": {
      "acceptGovernance()": {
        "notice": "Changes the governance from the current governance to the previously proposed address"
      },
      "governance()": {
        "notice": "Stores the governance address"
      },
      "pendingGovernance()": {
        "notice": "Stores the pendingGovernance address"
      },
      "setGovernance(address)": {
        "notice": "Proposes a new address to be governance"
      }
    },
    "version": 1
  },
  "storageLayout": {
    "storage": [
      {
        "astId": 20231,
        "contract": "solidity/contracts/DataReceiver.sol:DataReceiver",
        "label": "governance",
        "offset": 0,
        "slot": "0",
        "type": "t_address"
      },
      {
        "astId": 20234,
        "contract": "solidity/contracts/DataReceiver.sol:DataReceiver",
        "label": "pendingGovernance",
        "offset": 0,
        "slot": "1",
        "type": "t_address"
      },
      {
        "astId": 18683,
        "contract": "solidity/contracts/DataReceiver.sol:DataReceiver",
        "label": "oracleFactory",
        "offset": 0,
        "slot": "2",
        "type": "t_contract(IOracleFactory)20705"
      },
      {
        "astId": 18691,
        "contract": "solidity/contracts/DataReceiver.sol:DataReceiver",
        "label": "whitelistedAdapters",
        "offset": 0,
        "slot": "3",
        "type": "t_mapping(t_contract(IBridgeReceiverAdapter)20819,t_bool)"
      }
    ],
    "types": {
      "t_address": {
        "encoding": "inplace",
        "label": "address",
        "numberOfBytes": "20"
      },
      "t_bool": {
        "encoding": "inplace",
        "label": "bool",
        "numberOfBytes": "1"
      },
      "t_contract(IBridgeReceiverAdapter)20819": {
        "encoding": "inplace",
        "label": "contract IBridgeReceiverAdapter",
        "numberOfBytes": "20"
      },
      "t_contract(IOracleFactory)20705": {
        "encoding": "inplace",
        "label": "contract IOracleFactory",
        "numberOfBytes": "20"
      },
      "t_mapping(t_contract(IBridgeReceiverAdapter)20819,t_bool)": {
        "encoding": "mapping",
        "key": "t_contract(IBridgeReceiverAdapter)20819",
        "label": "mapping(contract IBridgeReceiverAdapter => bool)",
        "numberOfBytes": "32",
        "value": "t_bool"
      }
    }
  }
}