{
  "address": "0x24A7A84614688F344D9afb031b8a4845297D02d9",
  "abi": [
    {
      "inputs": [
        {
          "internalType": "contract IOracleSidechain",
          "name": "_oracleSidechain",
          "type": "address"
        },
        {
          "internalType": "address",
          "name": "_governance",
          "type": "address"
        }
      ],
      "stateMutability": "nonpayable",
      "type": "constructor"
    },
    {
      "inputs": [],
      "name": "LengthMismatch",
      "type": "error"
    },
    {
      "inputs": [],
      "name": "NoGovernanceZeroAddress",
      "type": "error"
    },
    {
      "inputs": [
        {
          "internalType": "uint32",
          "name": "_blockTimestamp",
          "type": "uint32"
        }
      ],
      "name": "ObservationNotWritable",
      "type": "error"
    },
    {
      "inputs": [],
      "name": "OnlyGovernance",
      "type": "error"
    },
    {
      "inputs": [],
      "name": "OnlyPendingGovernance",
      "type": "error"
    },
    {
      "inputs": [],
      "name": "UnallowedAdapter",
      "type": "error"
    },
    {
      "anonymous": false,
      "inputs": [
        {
          "indexed": false,
          "internalType": "contract IBridgeReceiverAdapter",
          "name": "_adapter",
          "type": "address"
        },
        {
          "indexed": false,
          "internalType": "bool",
          "name": "_isAllowed",
          "type": "bool"
        }
      ],
      "name": "AdapterWhitelisted",
      "type": "event"
    },
    {
      "anonymous": false,
      "inputs": [
        {
          "indexed": false,
          "internalType": "address",
          "name": "_pendingGovernance",
          "type": "address"
        }
      ],
      "name": "GovernanceProposal",
      "type": "event"
    },
    {
      "anonymous": false,
      "inputs": [
        {
          "indexed": false,
          "internalType": "address",
          "name": "_governance",
          "type": "address"
        }
      ],
      "name": "GovernanceSet",
      "type": "event"
    },
    {
      "anonymous": false,
      "inputs": [
        {
          "indexed": false,
          "internalType": "address",
          "name": "_user",
          "type": "address"
        },
        {
          "indexed": false,
          "internalType": "uint32",
          "name": "_blockTimestamp",
          "type": "uint32"
        },
        {
          "indexed": false,
          "internalType": "int24",
          "name": "_tick",
          "type": "int24"
        }
      ],
      "name": "ObservationAdded",
      "type": "event"
    },
    {
      "inputs": [],
      "name": "acceptGovernance",
      "outputs": [],
      "stateMutability": "nonpayable",
      "type": "function"
    },
    {
      "inputs": [
        {
          "internalType": "uint32",
          "name": "_blockTimestamp",
          "type": "uint32"
        },
        {
          "internalType": "int24",
          "name": "_tick",
          "type": "int24"
        }
      ],
      "name": "addObservation",
      "outputs": [],
      "stateMutability": "nonpayable",
      "type": "function"
    },
    {
      "inputs": [],
      "name": "governance",
      "outputs": [
        {
          "internalType": "address",
          "name": "",
          "type": "address"
        }
      ],
      "stateMutability": "view",
      "type": "function"
    },
    {
      "inputs": [],
      "name": "oracleSidechain",
      "outputs": [
        {
          "internalType": "contract IOracleSidechain",
          "name": "",
          "type": "address"
        }
      ],
      "stateMutability": "view",
      "type": "function"
    },
    {
      "inputs": [],
      "name": "pendingGovernance",
      "outputs": [
        {
          "internalType": "address",
          "name": "",
          "type": "address"
        }
      ],
      "stateMutability": "view",
      "type": "function"
    },
    {
      "inputs": [
        {
          "internalType": "address",
          "name": "_governance",
          "type": "address"
        }
      ],
      "name": "setGovernance",
      "outputs": [],
      "stateMutability": "nonpayable",
      "type": "function"
    },
    {
      "inputs": [
        {
          "internalType": "contract IBridgeReceiverAdapter",
          "name": "_receiverAdapter",
          "type": "address"
        },
        {
          "internalType": "bool",
          "name": "_isWhitelisted",
          "type": "bool"
        }
      ],
      "name": "whitelistAdapter",
      "outputs": [],
      "stateMutability": "nonpayable",
      "type": "function"
    },
    {
      "inputs": [
        {
          "internalType": "contract IBridgeReceiverAdapter[]",
          "name": "_receiverAdapters",
          "type": "address[]"
        },
        {
          "internalType": "bool[]",
          "name": "_isWhitelisted",
          "type": "bool[]"
        }
      ],
      "name": "whitelistAdapters",
      "outputs": [],
      "stateMutability": "nonpayable",
      "type": "function"
    },
    {
      "inputs": [
        {
          "internalType": "contract IBridgeReceiverAdapter",
          "name": "",
          "type": "address"
        }
      ],
      "name": "whitelistedAdapters",
      "outputs": [
        {
          "internalType": "bool",
          "name": "",
          "type": "bool"
        }
      ],
      "stateMutability": "view",
      "type": "function"
    }
  ],
  "transactionHash": "0x2543f5e191070d399b2dbe8ae905043ac765129879411edf0a108de59ce118c7",
  "args": [
    "0xb1c1990030Fb0Da421EfD0e74Bb557E169656eB2",
    "0x57B067e4E27558FE2c60fCE86941011cB5F5A4FD"
  ],
  "numDeployments": 1,
  "solcInputHash": "02ff4d71be9a1dba86653850ac5c9d18",
  "bytecode": "0x60a060405234801561001057600080fd5b5060405161081e38038061081e83398101604081905261002f91610097565b806001600160a01b0381166100565760405162b293ed60e81b815260040160405180910390fd5b50600080546001600160a01b039384166080526001600160a01b031916919092161790556100d1565b6001600160a01b038116811461009457600080fd5b50565b600080604083850312156100aa57600080fd5b82516100b58161007f565b60208401519092506100c68161007f565b809150509250929050565b60805161072c6100f26000396000818160fd01526103e1015261072c6000f3fe608060405234801561001057600080fd5b50600436106100935760003560e01c80639dad3145116100665780639dad3145146100f8578063ab033ea91461011f578063b171455814610132578063b893cce214610145578063f39c38a01461017857600080fd5b80630ddb5dd214610098578063238efcbc146100ad5780635aa6e675146100b5578063954e863e146100e5575b600080fd5b6100ab6100a6366004610579565b61018b565b005b6100ab61024b565b6000546100c8906001600160a01b031681565b6040516001600160a01b0390911681526020015b60405180910390f35b6100ab6100f336600461060b565b6102d4565b6100c87f000000000000000000000000000000000000000000000000000000000000000081565b6100ab61012d366004610644565b61030d565b6100ab610140366004610668565b61038c565b610168610153366004610644565b60026020526000908152604090205460ff1681565b60405190151581526020016100dc565b6001546100c8906001600160a01b031681565b6000546001600160a01b031633146101b6576040516354348f0360e01b815260040160405180910390fd5b828181146101da576040516001621398b960e31b0319815260040160405180910390fd5b60005b818110156102435761023b8686838181106101fa576101fa6106a6565b905060200201602081019061020f9190610644565b858584818110610221576102216106a6565b905060200201602081019061023691906106bc565b6104d1565b6001016101dd565b505050505050565b6001546001600160a01b0316331461027657604051637ef5703160e11b815260040160405180910390fd5b60018054600080546001600160a01b0383166001600160a01b031991821681179092559091169091556040519081527fc73be659241aade67e9a059bcf21494955018b213dbd1179054ccf928b13f3b69060200160405180910390a1565b6000546001600160a01b031633146102ff576040516354348f0360e01b815260040160405180910390fd5b61030982826104d1565b5050565b6000546001600160a01b03163314610338576040516354348f0360e01b815260040160405180910390fd5b600180546001600160a01b0319166001600160a01b0383169081179091556040519081527fe987aaedf9d279143bdf1eee16cf1d0feb47742867d81083df8d6cd0a5ac857f9060200160405180910390a150565b3360009081526002602052604090205460ff166103bc576040516360ece74160e01b815260040160405180910390fd5b604051631147360360e31b815263ffffffff83166004820152600282900b60248201527f00000000000000000000000000000000000000000000000000000000000000006001600160a01b031690638a39b018906044016020604051808303816000875af1158015610432573d6000803e3d6000fd5b505050506040513d601f19601f8201168201806040525081019061045691906106d9565b156104ac576040805133815263ffffffff84166020820152600283900b918101919091527f5a5848a7b07f71483ca0d7217689f80dc2d3bc6c2f64dd295c8227ecde7fbd7a906060015b60405180910390a15050565b60405163732fe5ed60e11b815263ffffffff8316600482015260240160405180910390fd5b6001600160a01b038216600081815260026020908152604091829020805460ff19168515159081179091558251938452908301527f3cece36ac6216147f57b10bb30975f82b18b8b290a7925c322277e684afcce4a91016104a0565b60008083601f84011261053f57600080fd5b50813567ffffffffffffffff81111561055757600080fd5b6020830191508360208260051b850101111561057257600080fd5b9250929050565b6000806000806040858703121561058f57600080fd5b843567ffffffffffffffff808211156105a757600080fd5b6105b38883890161052d565b909650945060208701359150808211156105cc57600080fd5b506105d98782880161052d565b95989497509550505050565b6001600160a01b03811681146105fa57600080fd5b50565b80151581146105fa57600080fd5b6000806040838503121561061e57600080fd5b8235610629816105e5565b91506020830135610639816105fd565b809150509250929050565b60006020828403121561065657600080fd5b8135610661816105e5565b9392505050565b6000806040838503121561067b57600080fd5b823563ffffffff8116811461068f57600080fd5b91506020830135600281900b811461063957600080fd5b634e487b7160e01b600052603260045260246000fd5b6000602082840312156106ce57600080fd5b8135610661816105fd565b6000602082840312156106eb57600080fd5b8151610661816105fd56fea2646970667358221220a213b2b89dfdcd1ce316d62089f3a2c0de8be839b05eaabf7a00d13ab0cbc40c64736f6c634300080c0033",
  "devdoc": {
    "kind": "dev",
    "methods": {
      "setGovernance(address)": {
        "params": {
          "_governance": "The address being proposed as the new governance"
        }
      }
    },
    "version": 1
  },
  "userdoc": {
    "errors": {
      "NoGovernanceZeroAddress()": [
        {
          "notice": "Throws if trying to set governance to zero address"
        }
      ],
      "OnlyGovernance()": [
        {
          "notice": "Throws if the caller of the function is not governance"
        }
      ],
      "OnlyPendingGovernance()": [
        {
          "notice": "Throws if the caller of the function is not pendingGovernance"
        }
      ]
    },
    "events": {
      "GovernanceProposal(address)": {
        "notice": "Emitted when a new governance is proposed"
      },
      "GovernanceSet(address)": {
        "notice": "Emitted when pendingGovernance accepts to be governance"
      }
    },
    "kind": "user",
    "methods": {
      "acceptGovernance()": {
        "notice": "Changes the governance from the current governance to the previously proposed address"
      },
      "governance()": {
        "notice": "Stores the governance address"
      },
      "pendingGovernance()": {
        "notice": "Stores the pendingGovernance address"
      },
      "setGovernance(address)": {
        "notice": "Proposes a new address to be governance"
      }
    },
    "version": 1
  },
  "storageLayout": {
    "storage": [
      {
        "astId": 10024,
        "contract": "solidity/contracts/DataReceiver.sol:DataReceiver",
        "label": "governance",
        "offset": 0,
        "slot": "0",
        "type": "t_address"
      },
      {
        "astId": 10027,
        "contract": "solidity/contracts/DataReceiver.sol:DataReceiver",
        "label": "pendingGovernance",
        "offset": 0,
        "slot": "1",
        "type": "t_address"
      },
      {
        "astId": 9371,
        "contract": "solidity/contracts/DataReceiver.sol:DataReceiver",
        "label": "whitelistedAdapters",
        "offset": 0,
        "slot": "2",
        "type": "t_mapping(t_contract(IBridgeReceiverAdapter)10296,t_bool)"
      }
    ],
    "types": {
      "t_address": {
        "encoding": "inplace",
        "label": "address",
        "numberOfBytes": "20"
      },
      "t_bool": {
        "encoding": "inplace",
        "label": "bool",
        "numberOfBytes": "1"
      },
      "t_contract(IBridgeReceiverAdapter)10296": {
        "encoding": "inplace",
        "label": "contract IBridgeReceiverAdapter",
        "numberOfBytes": "20"
      },
      "t_mapping(t_contract(IBridgeReceiverAdapter)10296,t_bool)": {
        "encoding": "mapping",
        "key": "t_contract(IBridgeReceiverAdapter)10296",
        "label": "mapping(contract IBridgeReceiverAdapter => bool)",
        "numberOfBytes": "32",
        "value": "t_bool"
      }
    }
  }
}