{
  "address": "0x9B4431E2EA7CF025a7953a1e5Acd1cC356476669",
  "abi": [
    {
      "inputs": [
        {
          "internalType": "contract IOracleSidechain",
          "name": "_oracleSidechain",
          "type": "address"
        },
        {
          "internalType": "address",
          "name": "_governance",
          "type": "address"
        }
      ],
      "stateMutability": "nonpayable",
      "type": "constructor"
    },
    {
      "inputs": [],
      "name": "LengthMismatch",
      "type": "error"
    },
    {
      "inputs": [],
      "name": "NoGovernanceZeroAddress",
      "type": "error"
    },
    {
      "inputs": [],
      "name": "ObservationsNotWritable",
      "type": "error"
    },
    {
      "inputs": [],
      "name": "OnlyGovernance",
      "type": "error"
    },
    {
      "inputs": [],
      "name": "OnlyPendingGovernance",
      "type": "error"
    },
    {
      "inputs": [],
      "name": "UnallowedAdapter",
      "type": "error"
    },
    {
      "anonymous": false,
      "inputs": [
        {
          "indexed": false,
          "internalType": "contract IBridgeReceiverAdapter",
          "name": "_adapter",
          "type": "address"
        },
        {
          "indexed": false,
          "internalType": "bool",
          "name": "_isAllowed",
          "type": "bool"
        }
      ],
      "name": "AdapterWhitelisted",
      "type": "event"
    },
    {
      "anonymous": false,
      "inputs": [
        {
          "indexed": false,
          "internalType": "address",
          "name": "_pendingGovernance",
          "type": "address"
        }
      ],
      "name": "GovernanceProposal",
      "type": "event"
    },
    {
      "anonymous": false,
      "inputs": [
        {
          "indexed": false,
          "internalType": "address",
          "name": "_governance",
          "type": "address"
        }
      ],
      "name": "GovernanceSet",
      "type": "event"
    },
    {
      "anonymous": false,
      "inputs": [
        {
          "indexed": false,
          "internalType": "address",
          "name": "_user",
          "type": "address"
        },
        {
          "components": [
            {
              "internalType": "uint32",
              "name": "blockTimestamp",
              "type": "uint32"
            },
            {
              "internalType": "int24",
              "name": "tick",
              "type": "int24"
            }
          ],
          "indexed": false,
          "internalType": "struct IOracleSidechain.ObservationData[]",
          "name": "_observationsData",
          "type": "tuple[]"
        }
      ],
      "name": "ObservationsAdded",
      "type": "event"
    },
    {
      "inputs": [],
      "name": "acceptGovernance",
      "outputs": [],
      "stateMutability": "nonpayable",
      "type": "function"
    },
    {
      "inputs": [
        {
          "components": [
            {
              "internalType": "uint32",
              "name": "blockTimestamp",
              "type": "uint32"
            },
            {
              "internalType": "int24",
              "name": "tick",
              "type": "int24"
            }
          ],
          "internalType": "struct IOracleSidechain.ObservationData[]",
          "name": "_observationsData",
          "type": "tuple[]"
        }
      ],
      "name": "addObservations",
      "outputs": [],
      "stateMutability": "nonpayable",
      "type": "function"
    },
    {
      "inputs": [],
      "name": "governance",
      "outputs": [
        {
          "internalType": "address",
          "name": "",
          "type": "address"
        }
      ],
      "stateMutability": "view",
      "type": "function"
    },
    {
      "inputs": [],
      "name": "oracleSidechain",
      "outputs": [
        {
          "internalType": "contract IOracleSidechain",
          "name": "",
          "type": "address"
        }
      ],
      "stateMutability": "view",
      "type": "function"
    },
    {
      "inputs": [],
      "name": "pendingGovernance",
      "outputs": [
        {
          "internalType": "address",
          "name": "",
          "type": "address"
        }
      ],
      "stateMutability": "view",
      "type": "function"
    },
    {
      "inputs": [
        {
          "internalType": "address",
          "name": "_governance",
          "type": "address"
        }
      ],
      "name": "setGovernance",
      "outputs": [],
      "stateMutability": "nonpayable",
      "type": "function"
    },
    {
      "inputs": [
        {
          "internalType": "contract IBridgeReceiverAdapter",
          "name": "_receiverAdapter",
          "type": "address"
        },
        {
          "internalType": "bool",
          "name": "_isWhitelisted",
          "type": "bool"
        }
      ],
      "name": "whitelistAdapter",
      "outputs": [],
      "stateMutability": "nonpayable",
      "type": "function"
    },
    {
      "inputs": [
        {
          "internalType": "contract IBridgeReceiverAdapter[]",
          "name": "_receiverAdapters",
          "type": "address[]"
        },
        {
          "internalType": "bool[]",
          "name": "_isWhitelisted",
          "type": "bool[]"
        }
      ],
      "name": "whitelistAdapters",
      "outputs": [],
      "stateMutability": "nonpayable",
      "type": "function"
    },
    {
      "inputs": [
        {
          "internalType": "contract IBridgeReceiverAdapter",
          "name": "",
          "type": "address"
        }
      ],
      "name": "whitelistedAdapters",
      "outputs": [
        {
          "internalType": "bool",
          "name": "",
          "type": "bool"
        }
      ],
      "stateMutability": "view",
      "type": "function"
    }
  ],
  "transactionHash": "0x98d00641ea1db3bcd056f8f61e614ac645123448becdb72d36198b289ebe4c37",
  "args": [
    "0x5B5fbd188bcd4Ef946071411ECf59e929ce2C9ad",
    "0x57B067e4E27558FE2c60fCE86941011cB5F5A4FD"
  ],
  "numDeployments": 2,
  "solcInputHash": "9a08159241e536ab8c9fe9dee0fe4027",
  "bytecode": "0x60a060405234801561001057600080fd5b506040516108e03803806108e083398101604081905261002f91610097565b806001600160a01b0381166100565760405162b293ed60e81b815260040160405180910390fd5b50600080546001600160a01b039384166080526001600160a01b031916919092161790556100d1565b6001600160a01b038116811461009457600080fd5b50565b600080604083850312156100aa57600080fd5b82516100b58161007f565b60208401519092506100c68161007f565b809150509250929050565b6080516107ee6100f26000396000818160fd01526103d301526107ee6000f3fe608060405234801561001057600080fd5b50600436106100935760003560e01c80639dad3145116100665780639dad3145146100f8578063ab033ea91461011f578063b893cce214610132578063d086db3614610165578063f39c38a01461017857600080fd5b80630ddb5dd214610098578063238efcbc146100ad5780635aa6e675146100b5578063954e863e146100e5575b600080fd5b6100ab6100a6366004610552565b61018b565b005b6100ab61024b565b6000546100c8906001600160a01b031681565b6040516001600160a01b0390911681526020015b60405180910390f35b6100ab6100f33660046105e4565b6102d4565b6100c87f000000000000000000000000000000000000000000000000000000000000000081565b6100ab61012d36600461061d565b61030d565b61015561014036600461061d565b60026020526000908152604090205460ff1681565b60405190151581526020016100dc565b6100ab610173366004610641565b61038c565b6001546100c8906001600160a01b031681565b6000546001600160a01b031633146101b6576040516354348f0360e01b815260040160405180910390fd5b828181146101da576040516001621398b960e31b0319815260040160405180910390fd5b60005b818110156102435761023b8686838181106101fa576101fa6106b6565b905060200201602081019061020f919061061d565b858584818110610221576102216106b6565b905060200201602081019061023691906106cc565b6104aa565b6001016101dd565b505050505050565b6001546001600160a01b0316331461027657604051637ef5703160e11b815260040160405180910390fd5b60018054600080546001600160a01b0383166001600160a01b031991821681179092559091169091556040519081527fc73be659241aade67e9a059bcf21494955018b213dbd1179054ccf928b13f3b69060200160405180910390a1565b6000546001600160a01b031633146102ff576040516354348f0360e01b815260040160405180910390fd5b61030982826104aa565b5050565b6000546001600160a01b03163314610338576040516354348f0360e01b815260040160405180910390fd5b600180546001600160a01b0319166001600160a01b0383169081179091556040519081527fe987aaedf9d279143bdf1eee16cf1d0feb47742867d81083df8d6cd0a5ac857f9060200160405180910390a150565b3360009081526002602052604090205460ff166103bc576040516360ece74160e01b815260040160405180910390fd5b604051633870176560e01b81526001600160a01b037f0000000000000000000000000000000000000000000000000000000000000000169063387017659061040a9085908590600401610751565b6020604051808303816000875af1158015610429573d6000803e3d6000fd5b505050506040513d601f19601f8201168201806040525081019061044d919061076d565b15610491577f617afa62635b4d3e0901427201c347a24650276db5c920f7347d6d969bf256743383836040516104859392919061078a565b60405180910390a15050565b604051630a96dcbd60e11b815260040160405180910390fd5b6001600160a01b038216600081815260026020908152604091829020805460ff19168515159081179091558251938452908301527f3cece36ac6216147f57b10bb30975f82b18b8b290a7925c322277e684afcce4a9101610485565b60008083601f84011261051857600080fd5b50813567ffffffffffffffff81111561053057600080fd5b6020830191508360208260051b850101111561054b57600080fd5b9250929050565b6000806000806040858703121561056857600080fd5b843567ffffffffffffffff8082111561058057600080fd5b61058c88838901610506565b909650945060208701359150808211156105a557600080fd5b506105b287828801610506565b95989497509550505050565b6001600160a01b03811681146105d357600080fd5b50565b80151581146105d357600080fd5b600080604083850312156105f757600080fd5b8235610602816105be565b91506020830135610612816105d6565b809150509250929050565b60006020828403121561062f57600080fd5b813561063a816105be565b9392505050565b6000806020838503121561065457600080fd5b823567ffffffffffffffff8082111561066c57600080fd5b818501915085601f83011261068057600080fd5b81358181111561068f57600080fd5b8660208260061b85010111156106a457600080fd5b60209290920196919550909350505050565b634e487b7160e01b600052603260045260246000fd5b6000602082840312156106de57600080fd5b813561063a816105d6565b8183526000602080850194508260005b8581101561074657813563ffffffff811680821461071657600080fd5b88525081830135600281900b80821461072e57600080fd5b888501525060409687019691909101906001016106f9565b509495945050505050565b6020815260006107656020830184866106e9565b949350505050565b60006020828403121561077f57600080fd5b815161063a816105d6565b6001600160a01b03841681526040602082018190526000906107af90830184866106e9565b9594505050505056fea2646970667358221220f181e30aadac7168265aec1de388eab2eea82a50f9646ace2e1a6da96cafe9c264736f6c634300080c0033",
  "devdoc": {
    "kind": "dev",
    "methods": {
      "setGovernance(address)": {
        "params": {
          "_governance": "The address being proposed as the new governance"
        }
      }
    },
    "version": 1
  },
  "userdoc": {
    "errors": {
      "NoGovernanceZeroAddress()": [
        {
          "notice": "Throws if trying to set governance to zero address"
        }
      ],
      "OnlyGovernance()": [
        {
          "notice": "Throws if the caller of the function is not governance"
        }
      ],
      "OnlyPendingGovernance()": [
        {
          "notice": "Throws if the caller of the function is not pendingGovernance"
        }
      ]
    },
    "events": {
      "GovernanceProposal(address)": {
        "notice": "Emitted when a new governance is proposed"
      },
      "GovernanceSet(address)": {
        "notice": "Emitted when pendingGovernance accepts to be governance"
      }
    },
    "kind": "user",
    "methods": {
      "acceptGovernance()": {
        "notice": "Changes the governance from the current governance to the previously proposed address"
      },
      "governance()": {
        "notice": "Stores the governance address"
      },
      "pendingGovernance()": {
        "notice": "Stores the pendingGovernance address"
      },
      "setGovernance(address)": {
        "notice": "Proposes a new address to be governance"
      }
    },
    "version": 1
  },
  "storageLayout": {
    "storage": [
      {
        "astId": 10047,
        "contract": "solidity/contracts/DataReceiver.sol:DataReceiver",
        "label": "governance",
        "offset": 0,
        "slot": "0",
        "type": "t_address"
      },
      {
        "astId": 10050,
        "contract": "solidity/contracts/DataReceiver.sol:DataReceiver",
        "label": "pendingGovernance",
        "offset": 0,
        "slot": "1",
        "type": "t_address"
      },
      {
        "astId": 9371,
        "contract": "solidity/contracts/DataReceiver.sol:DataReceiver",
        "label": "whitelistedAdapters",
        "offset": 0,
        "slot": "2",
        "type": "t_mapping(t_contract(IBridgeReceiverAdapter)10321,t_bool)"
      }
    ],
    "types": {
      "t_address": {
        "encoding": "inplace",
        "label": "address",
        "numberOfBytes": "20"
      },
      "t_bool": {
        "encoding": "inplace",
        "label": "bool",
        "numberOfBytes": "1"
      },
      "t_contract(IBridgeReceiverAdapter)10321": {
        "encoding": "inplace",
        "label": "contract IBridgeReceiverAdapter",
        "numberOfBytes": "20"
      },
      "t_mapping(t_contract(IBridgeReceiverAdapter)10321,t_bool)": {
        "encoding": "mapping",
        "key": "t_contract(IBridgeReceiverAdapter)10321",
        "label": "mapping(contract IBridgeReceiverAdapter => bool)",
        "numberOfBytes": "32",
        "value": "t_bool"
      }
    }
  }
}