{
  "address": "0x3EE6f90Abb8Af28fA0084Ee55d82b3808A1d03a7",
  "abi": [
    {
      "inputs": [
        {
          "internalType": "address",
          "name": "_governance",
          "type": "address"
        },
        {
          "internalType": "contract IDataReceiver",
          "name": "_dataReceiver",
          "type": "address"
        }
      ],
      "stateMutability": "nonpayable",
      "type": "constructor"
    },
    {
      "inputs": [],
      "name": "NoGovernanceZeroAddress",
      "type": "error"
    },
    {
      "inputs": [],
      "name": "OnlyDataReceiver",
      "type": "error"
    },
    {
      "inputs": [],
      "name": "OnlyGovernance",
      "type": "error"
    },
    {
      "inputs": [],
      "name": "OnlyPendingGovernance",
      "type": "error"
    },
    {
      "anonymous": false,
      "inputs": [
        {
          "indexed": false,
          "internalType": "contract IDataReceiver",
          "name": "_dataReceiver",
          "type": "address"
        }
      ],
      "name": "DataReceiverSet",
      "type": "event"
    },
    {
      "anonymous": false,
      "inputs": [
        {
          "indexed": false,
          "internalType": "address",
          "name": "_pendingGovernance",
          "type": "address"
        }
      ],
      "name": "GovernanceProposal",
      "type": "event"
    },
    {
      "anonymous": false,
      "inputs": [
        {
          "indexed": false,
          "internalType": "address",
          "name": "_governance",
          "type": "address"
        }
      ],
      "name": "GovernanceSet",
      "type": "event"
    },
    {
      "anonymous": false,
      "inputs": [
        {
          "indexed": false,
          "internalType": "uint16",
          "name": "_initialCardinality",
          "type": "uint16"
        }
      ],
      "name": "InitialCardinalitySet",
      "type": "event"
    },
    {
      "anonymous": false,
      "inputs": [
        {
          "indexed": false,
          "internalType": "address",
          "name": "_oracleAddress",
          "type": "address"
        },
        {
          "indexed": false,
          "internalType": "address",
          "name": "_token0",
          "type": "address"
        },
        {
          "indexed": false,
          "internalType": "address",
          "name": "_token1",
          "type": "address"
        },
        {
          "indexed": false,
          "internalType": "uint24",
          "name": "_fee",
          "type": "uint24"
        },
        {
          "indexed": false,
          "internalType": "uint16",
          "name": "_cardinality",
          "type": "uint16"
        }
      ],
      "name": "OracleDeployed",
      "type": "event"
    },
    {
      "inputs": [],
      "name": "acceptGovernance",
      "outputs": [],
      "stateMutability": "nonpayable",
      "type": "function"
    },
    {
      "inputs": [],
      "name": "dataReceiver",
      "outputs": [
        {
          "internalType": "contract IDataReceiver",
          "name": "",
          "type": "address"
        }
      ],
      "stateMutability": "view",
      "type": "function"
    },
    {
      "inputs": [
        {
          "internalType": "address",
          "name": "_token0",
          "type": "address"
        },
        {
          "internalType": "address",
          "name": "_token1",
          "type": "address"
        },
        {
          "internalType": "uint24",
          "name": "_fee",
          "type": "uint24"
        }
      ],
      "name": "deployOracle",
      "outputs": [
        {
          "internalType": "address",
          "name": "_deployedOracle",
          "type": "address"
        }
      ],
      "stateMutability": "nonpayable",
      "type": "function"
    },
    {
      "inputs": [
        {
          "internalType": "address",
          "name": "",
          "type": "address"
        },
        {
          "internalType": "address",
          "name": "",
          "type": "address"
        },
        {
          "internalType": "uint24",
          "name": "",
          "type": "uint24"
        }
      ],
      "name": "getPool",
      "outputs": [
        {
          "internalType": "address",
          "name": "",
          "type": "address"
        }
      ],
      "stateMutability": "view",
      "type": "function"
    },
    {
      "inputs": [],
      "name": "governance",
      "outputs": [
        {
          "internalType": "address",
          "name": "",
          "type": "address"
        }
      ],
      "stateMutability": "view",
      "type": "function"
    },
    {
      "inputs": [],
      "name": "initialCardinality",
      "outputs": [
        {
          "internalType": "uint16",
          "name": "",
          "type": "uint16"
        }
      ],
      "stateMutability": "view",
      "type": "function"
    },
    {
      "inputs": [],
      "name": "oracleParameters",
      "outputs": [
        {
          "internalType": "contract IOracleFactory",
          "name": "factory",
          "type": "address"
        },
        {
          "internalType": "address",
          "name": "token0",
          "type": "address"
        },
        {
          "internalType": "address",
          "name": "token1",
          "type": "address"
        },
        {
          "internalType": "uint24",
          "name": "fee",
          "type": "uint24"
        },
        {
          "internalType": "uint16",
          "name": "cardinality",
          "type": "uint16"
        }
      ],
      "stateMutability": "view",
      "type": "function"
    },
    {
      "inputs": [],
      "name": "pendingGovernance",
      "outputs": [
        {
          "internalType": "address",
          "name": "",
          "type": "address"
        }
      ],
      "stateMutability": "view",
      "type": "function"
    },
    {
      "inputs": [
        {
          "internalType": "contract IDataReceiver",
          "name": "_dataReceiver",
          "type": "address"
        }
      ],
      "name": "setDataReceiver",
      "outputs": [],
      "stateMutability": "nonpayable",
      "type": "function"
    },
    {
      "inputs": [
        {
          "internalType": "address",
          "name": "_governance",
          "type": "address"
        }
      ],
      "name": "setGovernance",
      "outputs": [],
      "stateMutability": "nonpayable",
      "type": "function"
    },
    {
      "inputs": [
        {
          "internalType": "uint16",
          "name": "_initialCardinality",
          "type": "uint16"
        }
      ],
      "name": "setInitialCardinality",
      "outputs": [],
      "stateMutability": "nonpayable",
      "type": "function"
    }
  ],
  "transactionHash": "0x903b7aecb068fafa26045cdd634b446cc1949bd3f8dd15396bbb6e9bdcc8246b",
  "args": [
    "0x57B067e4E27558FE2c60fCE86941011cB5F5A4FD",
    "0x459D8201ADb265B83D1AAB0e1dbF4B2943D09644"
  ],
  "numDeployments": 1,
  "solcInputHash": "d9c8f4a75f1081f77b146589b1a5d995",
  "bytecode": "0x60806040526002805461ffff60a01b1916600960a41b17905534801561002457600080fd5b50604051611cf5380380611cf5833981016040819052610043916100b7565b816001600160a01b03811661006a5760405162b293ed60e81b815260040160405180910390fd5b600080546001600160a01b039283166001600160a01b03199182161790915560028054939092169216919091179055506100f1565b6001600160a01b03811681146100b457600080fd5b50565b600080604083850312156100ca57600080fd5b82516100d58161009f565b60208401519092506100e68161009f565b809150509250929050565b611bf5806101006000396000f3fe608060405234801561001057600080fd5b50600436106100a95760003560e01c806399df71201161007157806399df712014610148578063ab033ea914610194578063e0fee1f5146101a7578063e8047788146101ba578063ebaa56aa146101cd578063f39c38a0146101f557600080fd5b806307d5851a146100ae5780631698ee82146100c3578063238efcbc1461011a5780635aa6e6751461012257806397862d6d14610135575b600080fd5b6100c16100bc366004610640565b610208565b005b6100fd6100d1366004610664565b60036020908152600093845260408085208252928452828420905282529020546001600160a01b031681565b6040516001600160a01b0390911681526020015b60405180910390f35b6100c1610288565b6000546100fd906001600160a01b031681565b6100c16101433660046106b7565b610311565b600454600554600654610183926001600160a01b039081169281169190811690600160a01b810462ffffff1690600160b81b900461ffff1685565b6040516101119594939291906106db565b6100c16101a2366004610640565b61038f565b6100fd6101b5366004610664565b610408565b6002546100fd906001600160a01b031681565b6002546101e290600160a01b900461ffff1681565b60405161ffff9091168152602001610111565b6001546100fd906001600160a01b031681565b6000546001600160a01b03163314610233576040516354348f0360e01b815260040160405180910390fd5b600280546001600160a01b0319166001600160a01b0383169081179091556040519081527f23ab7a40fedc3062f72fa590994df2ec8e49b54309a22df0ad3790dbc56346be906020015b60405180910390a150565b6001546001600160a01b031633146102b357604051637ef5703160e11b815260040160405180910390fd5b60018054600080546001600160a01b0383166001600160a01b031991821681179092559091169091556040519081527fc73be659241aade67e9a059bcf21494955018b213dbd1179054ccf928b13f3b69060200160405180910390a1565b6000546001600160a01b0316331461033c576040516354348f0360e01b815260040160405180910390fd5b6002805461ffff60a01b1916600160a01b61ffff8481168202929092179283905560405192041681527fec9fa937c26cb048aac5fc5992eaace52f38cd13c8da22f42630090bd258261f9060200161027d565b6000546001600160a01b031633146103ba576040516354348f0360e01b815260040160405180910390fd5b600180546001600160a01b0319166001600160a01b0383169081179091556040519081527fe987aaedf9d279143bdf1eee16cf1d0feb47742867d81083df8d6cd0a5ac857f9060200161027d565b6002546000906001600160a01b0316331461043657604051638e5b30cb60e01b815260040160405180910390fd5b6040805160a081018252308082526001600160a01b03878116602080850182905291881684860181905262ffffff88166060808701829052600254600160a01b9081900461ffff166080988901819052600480546001600160a01b03199081169099179055600580549098168617909755600680546001600160b81b03191685179184029190911761ffff60b81b1916600160b81b909702969096179095558651938401929092529482019490945290810192909252016040516020818303038152906040528051906020012060405161050f9061061b565b8190604051809103906000f590508015801561052f573d6000803e3d6000fd5b506001600160a01b0380861660008181526003602081815260408084208a871680865290835281852062ffffff8b168087529084528286208054988a166001600160a01b0319998a1681179091559186529383528185209585529482528084209284529190529081902080548416909217909155600480548316905560058054909216909155600680546001600160c81b031916905560025490519192507ff190e8b2a78bc6652a43192156e78c2e5ff9bccc9692ad0a4d7a53a879f5d8e99161060c918491889188918891600160a01b900461ffff16906106db565b60405180910390a19392505050565b6114a98061071783390190565b6001600160a01b038116811461063d57600080fd5b50565b60006020828403121561065257600080fd5b813561065d81610628565b9392505050565b60008060006060848603121561067957600080fd5b833561068481610628565b9250602084013561069481610628565b9150604084013562ffffff811681146106ac57600080fd5b809150509250925092565b6000602082840312156106c957600080fd5b813561ffff8116811461065d57600080fd5b6001600160a01b039586168152938516602085015291909316604083015262ffffff909216606082015261ffff909116608082015260a0019056fe6101006040523480156200001257600080fd5b506000336001600160a01b03166399df71206040518163ffffffff1660e01b815260040160a060405180830381865afa15801562000054573d6000803e3d6000fd5b505050506040513d601f19601f820116820180604052508101906200007a919062000136565b62ffffff90911660e0526001600160a01b0391821660c05291811660a05291909116608052604080516060810190915290915080620000bb600184620001c3565b61ffff9081168252928316602080830182905260409283019190915282516000805492850151949093015185166401000000000261ffff60201b19948616620100000263ffffffff1990931691909516171791909116919091179055620001f5565b6001600160a01b03811681146200013357600080fd5b50565b600080600080600060a086880312156200014f57600080fd5b85516200015c816200011d565b60208701519095506200016f816200011d565b604087015190945062000182816200011d565b606087015190935062ffffff811681146200019c57600080fd5b608087015190925061ffff81168114620001b557600080fd5b809150509295509295909350565b600061ffff83811690831681811015620001ed57634e487b7160e01b600052601160045260246000fd5b039392505050565b60805160a05160c05160e05161127462000235600039600061022a0152600061020301526000609d0152600081816101dc01526102a901526112746000f3fe608060405234801561001057600080fd5b50600436106100935760003560e01c80633dfa5d87116100665780633dfa5d8714610194578063883bdbfd146101b6578063c45a0155146101d7578063d21220a7146101fe578063ddca3f431461022557600080fd5b80630dfe168114610098578063252c09d7146100dc5780633850c7bd146101295780633870176514610171575b600080fd5b6100bf7f000000000000000000000000000000000000000000000000000000000000000081565b6040516001600160a01b0390911681526020015b60405180910390f35b6100ef6100ea366004610f94565b610260565b6040805163ffffffff909516855260069390930b60208501526001600160a01b0390911691830191909152151560608201526080016100d3565b60005461014c9061ffff80821691620100008104821691600160201b9091041683565b6040805161ffff948516815292841660208401529216918101919091526060016100d3565b61018461017f366004610fad565b6102a5565b60405190151581526020016100d3565b62010000546101a39060020b81565b60405160029190910b81526020016100d3565b6101c96101c4366004611022565b610451565b6040516100d3929190611085565b6100bf7f000000000000000000000000000000000000000000000000000000000000000081565b6100bf7f000000000000000000000000000000000000000000000000000000000000000081565b61024c7f000000000000000000000000000000000000000000000000000000000000000081565b60405162ffffff90911681526020016100d3565b60018161ffff811061027157600080fd5b015463ffffffff81169150600160201b810460060b90600160581b81046001600160a01b031690600160f81b900460ff1684565b60007f00000000000000000000000000000000000000000000000000000000000000006001600160a01b031663e80477886040518163ffffffff1660e01b8152600401602060405180830381865afa158015610305573d6000803e3d6000fd5b505050506040513d601f19601f82011682018060405250810190610329919061110c565b6001600160a01b0316336001600160a01b03161461035a57604051638e5b30cb60e01b815260040160405180910390fd5b6000805460019061ffff90811690811061037657610376611135565b60408051608081018252929091015463ffffffff81168352600160201b810460060b60208401526001600160a01b03600160581b8204169183019190915260ff600160f81b909104161515606082015290508260005b81811015610448578585828181106103e6576103e6611135565b6103fc9260206040909202019081019150611164565b63ffffffff16836000015163ffffffff1610156104385761043386868381811061042857610428611135565b9050604002016104b9565b600193505b6104418161117f565b90506103cc565b50505092915050565b6060806104ae428585808060200260200160405190810160405280939291908181526020018383602002808284376000920182905250620100008054825460019897965060029190910b945061ffff808216945091900416610596565b915091509250929050565b6000805481906105009061ffff166104d46020860186611164565b62010000805460008054600195949360029390930b9261ffff908204811691600160201b9004166106e1565b6000805463ffffffff19166201000061ffff8481169190910261ffff191691909117908416179055909250905061053d60408401602085016111b8565b62010000805462ffffff191662ffffff929092169190911790556040517f351cb05bc71b044931f7410e88dceed68c021615a824de572c6cb0a735f50ac49061058990339086906111d3565b60405180910390a1505050565b60608060008361ffff16116105be57604051636b93000360e11b815260040160405180910390fd5b865167ffffffffffffffff8111156105d8576105d8611212565b604051908082528060200260200182016040528015610601578160200160208202803683370190505b509150865167ffffffffffffffff81111561061e5761061e611212565b604051908082528060200260200182016040528015610647578160200160208202803683370190505b50905060005b87518110156106d45761067e8a8a8a848151811061066d5761066d611135565b60200260200101518a8a8a8a610869565b84838151811061069057610690611135565b602002602001018484815181106106a9576106a9611135565b6001600160a01b039093166020938402919091019092019190915260069190910b905260010161064d565b5097509795505050505050565b6000806000898961ffff1661ffff81106106fd576106fd611135565b60408051608081018252919092015463ffffffff808216808452600160201b830460060b6020850152600160581b83046001600160a01b031694840194909452600160f81b90910460ff161515606083015290925089169003610766578885925092505061085d565b8461ffff168461ffff1611801561078757506001850361ffff168961ffff16145b1561079457839150610798565b8491505b8161ffff168960010161ffff16816107b2576107b2611228565b0692506107c181898989610a18565b8a8461ffff1661ffff81106107d8576107d8611135565b825191018054602084015160408501516060909501511515600160f81b026001600160f81b036001600160a01b03909616600160581b02959095166affffffffffffffffffffff66ffffffffffffff909216600160201b026affffffffffffffffffffff1990931663ffffffff90951694909417919091171691909117919091179055505b97509795505050505050565b6000808663ffffffff16600003610912576000898661ffff1661ffff811061089357610893611135565b60408051608081018252919092015463ffffffff808216808452600160201b830460060b6020850152600160581b83046001600160a01b031694840194909452600160f81b90910460ff16151560608301529092508a16146108fe576108fb818a8988610a18565b90505b80602001518160400151925092505061085d565b8688036000806109278c8c858c8c8c8c610add565b91509150816000015163ffffffff168363ffffffff160361095857816020015182604001519450945050505061085d565b806000015163ffffffff168363ffffffff160361098557806020015181604001519450945050505061085d565b60008260000151826000015103905060008360000151850390508063ffffffff168263ffffffff1660060b856020015185602001510360060b816109cb576109cb611228565b05028460200151018263ffffffff168263ffffffff1686604001518660400151036001600160a01b03160281610a0357610a03611228565b0485604001510196509650505050505061085d565b604080516080810182526000808252602082018190529181018290526060810191909152600085600001518503905060405180608001604052808663ffffffff1681526020018263ffffffff168660020b0288602001510160060b81526020016000856001600160801b031611610a90576001610a92565b845b6001600160801b031663ffffffff60801b608085901b1681610ab657610ab6611228565b048860400151016001600160a01b0316815260200160011515815250915050949350505050565b604080516080810182526000808252602082018190529181018290526060810191909152604080516080810182526000808252602082018190529181018290526060810191909152888561ffff1661ffff8110610b3c57610b3c611135565b60408051608081018252919092015463ffffffff8116808352600160201b820460060b6020840152600160581b82046001600160a01b031693830193909352600160f81b900460ff16151560608201529250610b9a90899089610ce9565b15610bc657815163ffffffff88811691161461085d5781610bbd83898988610a18565b9150915061085d565b888361ffff168660010161ffff1681610be157610be1611228565b0661ffff1661ffff8110610bf757610bf7611135565b60408051608081018252929091015463ffffffff81168352600160201b810460060b60208401526001600160a01b03600160581b8204169183019190915260ff600160f81b90910416151560608201819052909250610ca057604080516080810182528a5463ffffffff81168252600160201b810460060b6020830152600160581b81046001600160a01b031692820192909252600160f81b90910460ff161515606082015291505b610caf88836000015189610ce9565b610ccc576040516327e8e87560e01b815260040160405180910390fd5b610cd98989898887610dac565b9150915097509795505050505050565b60008363ffffffff168363ffffffff1611158015610d1357508363ffffffff168263ffffffff1611155b15610d2f578163ffffffff168363ffffffff1611159050610da5565b60008463ffffffff168463ffffffff1611610d56578363ffffffff16600160201b01610d5e565b8363ffffffff165b64ffffffffff16905060008563ffffffff168463ffffffff1611610d8e578363ffffffff16600160201b01610d96565b8363ffffffff165b64ffffffffff16909111159150505b9392505050565b60408051608081018252600080825260208201819052918101829052606081019190915260408051608081018252600080825260208201819052918101829052606081019190915260008361ffff168560010161ffff1681610e1057610e10611228565b0661ffff169050600060018561ffff16830103905060005b506002818301048961ffff87168281610e4357610e43611228565b0661ffff8110610e5557610e55611135565b60408051608081018252929091015463ffffffff81168352600160201b810460060b60208401526001600160a01b03600160581b8204169183019190915260ff600160f81b90910416151560608201819052909550610eb957806001019250610e28565b898661ffff168260010181610ed057610ed0611228565b0661ffff8110610ee257610ee2611135565b60408051608081018252929091015463ffffffff81168352600160201b810460060b60208401526001600160a01b03600160581b8204169183019190915260ff600160f81b90910416151560608201528551909450600090610f46908b908b610ce9565b9050808015610f5f5750610f5f8a8a8760000151610ce9565b15610f6a5750610f87565b80610f7a57600182039250610f81565b8160010193505b50610e28565b5050509550959350505050565b600060208284031215610fa657600080fd5b5035919050565b60008060208385031215610fc057600080fd5b823567ffffffffffffffff80821115610fd857600080fd5b818501915085601f830112610fec57600080fd5b813581811115610ffb57600080fd5b8660208260061b850101111561101057600080fd5b60209290920196919550909350505050565b6000806020838503121561103557600080fd5b823567ffffffffffffffff8082111561104d57600080fd5b818501915085601f83011261106157600080fd5b81358181111561107057600080fd5b8660208260051b850101111561101057600080fd5b604080825283519082018190526000906020906060840190828701845b828110156110c157815160060b845292840192908401906001016110a2565b5050508381038285015284518082528583019183019060005b818110156110ff5783516001600160a01b0316835292840192918401916001016110da565b5090979650505050505050565b60006020828403121561111e57600080fd5b81516001600160a01b0381168114610da557600080fd5b634e487b7160e01b600052603260045260246000fd5b803563ffffffff8116811461115f57600080fd5b919050565b60006020828403121561117657600080fd5b610da58261114b565b60006001820161119f57634e487b7160e01b600052601160045260246000fd5b5060010190565b8035600281900b811461115f57600080fd5b6000602082840312156111ca57600080fd5b610da5826111a6565b6001600160a01b03831681526060810163ffffffff6111f18461114b565b166020830152611203602084016111a6565b60020b60408301529392505050565b634e487b7160e01b600052604160045260246000fd5b634e487b7160e01b600052601260045260246000fdfea26469706673582212208128084b1d4bc14963218d62df816defe68325a805fd8a0ea2a46785b0d72a6764736f6c634300080f0033a26469706673582212201ef805d437320e73b82a31d4b4bb39f0f90fd9c044b8853301dae691bf6637b564736f6c634300080f0033",
  "devdoc": {
    "kind": "dev",
    "methods": {
      "setGovernance(address)": {
        "params": {
          "_governance": "The address being proposed as the new governance"
        }
      }
    },
    "version": 1
  },
  "userdoc": {
    "errors": {
      "NoGovernanceZeroAddress()": [
        {
          "notice": "Throws if trying to set governance to zero address"
        }
      ],
      "OnlyGovernance()": [
        {
          "notice": "Throws if the caller of the function is not governance"
        }
      ],
      "OnlyPendingGovernance()": [
        {
          "notice": "Throws if the caller of the function is not pendingGovernance"
        }
      ]
    },
    "events": {
      "GovernanceProposal(address)": {
        "notice": "Emitted when a new governance is proposed"
      },
      "GovernanceSet(address)": {
        "notice": "Emitted when pendingGovernance accepts to be governance"
      }
    },
    "kind": "user",
    "methods": {
      "acceptGovernance()": {
        "notice": "Changes the governance from the current governance to the previously proposed address"
      },
      "governance()": {
        "notice": "Stores the governance address"
      },
      "pendingGovernance()": {
        "notice": "Stores the pendingGovernance address"
      },
      "setGovernance(address)": {
        "notice": "Proposes a new address to be governance"
      }
    },
    "version": 1
  },
  "storageLayout": {
    "storage": [
      {
        "astId": 20231,
        "contract": "solidity/contracts/OracleFactory.sol:OracleFactory",
        "label": "governance",
        "offset": 0,
        "slot": "0",
        "type": "t_address"
      },
      {
        "astId": 20234,
        "contract": "solidity/contracts/OracleFactory.sol:OracleFactory",
        "label": "pendingGovernance",
        "offset": 0,
        "slot": "1",
        "type": "t_address"
      },
      {
        "astId": 18975,
        "contract": "solidity/contracts/OracleFactory.sol:OracleFactory",
        "label": "dataReceiver",
        "offset": 0,
        "slot": "2",
        "type": "t_contract(IDataReceiver)20612"
      },
      {
        "astId": 18978,
        "contract": "solidity/contracts/OracleFactory.sol:OracleFactory",
        "label": "initialCardinality",
        "offset": 20,
        "slot": "2",
        "type": "t_uint16"
      },
      {
        "astId": 18986,
        "contract": "solidity/contracts/OracleFactory.sol:OracleFactory",
        "label": "getPool",
        "offset": 0,
        "slot": "3",
        "type": "t_mapping(t_address,t_mapping(t_address,t_mapping(t_uint24,t_address)))"
      },
      {
        "astId": 18989,
        "contract": "solidity/contracts/OracleFactory.sol:OracleFactory",
        "label": "oracleParameters",
        "offset": 0,
        "slot": "4",
        "type": "t_struct(OracleParameters)20634_storage"
      }
    ],
    "types": {
      "t_address": {
        "encoding": "inplace",
        "label": "address",
        "numberOfBytes": "20"
      },
      "t_contract(IDataReceiver)20612": {
        "encoding": "inplace",
        "label": "contract IDataReceiver",
        "numberOfBytes": "20"
      },
      "t_contract(IOracleFactory)20705": {
        "encoding": "inplace",
        "label": "contract IOracleFactory",
        "numberOfBytes": "20"
      },
      "t_mapping(t_address,t_mapping(t_address,t_mapping(t_uint24,t_address)))": {
        "encoding": "mapping",
        "key": "t_address",
        "label": "mapping(address => mapping(address => mapping(uint24 => address)))",
        "numberOfBytes": "32",
        "value": "t_mapping(t_address,t_mapping(t_uint24,t_address))"
      },
      "t_mapping(t_address,t_mapping(t_uint24,t_address))": {
        "encoding": "mapping",
        "key": "t_address",
        "label": "mapping(address => mapping(uint24 => address))",
        "numberOfBytes": "32",
        "value": "t_mapping(t_uint24,t_address)"
      },
      "t_mapping(t_uint24,t_address)": {
        "encoding": "mapping",
        "key": "t_uint24",
        "label": "mapping(uint24 => address)",
        "numberOfBytes": "32",
        "value": "t_address"
      },
      "t_struct(OracleParameters)20634_storage": {
        "encoding": "inplace",
        "label": "struct IOracleFactory.OracleParameters",
        "members": [
          {
            "astId": 20625,
            "contract": "solidity/contracts/OracleFactory.sol:OracleFactory",
            "label": "factory",
            "offset": 0,
            "slot": "0",
            "type": "t_contract(IOracleFactory)20705"
          },
          {
            "astId": 20627,
            "contract": "solidity/contracts/OracleFactory.sol:OracleFactory",
            "label": "token0",
            "offset": 0,
            "slot": "1",
            "type": "t_address"
          },
          {
            "astId": 20629,
            "contract": "solidity/contracts/OracleFactory.sol:OracleFactory",
            "label": "token1",
            "offset": 0,
            "slot": "2",
            "type": "t_address"
          },
          {
            "astId": 20631,
            "contract": "solidity/contracts/OracleFactory.sol:OracleFactory",
            "label": "fee",
            "offset": 20,
            "slot": "2",
            "type": "t_uint24"
          },
          {
            "astId": 20633,
            "contract": "solidity/contracts/OracleFactory.sol:OracleFactory",
            "label": "cardinality",
            "offset": 23,
            "slot": "2",
            "type": "t_uint16"
          }
        ],
        "numberOfBytes": "96"
      },
      "t_uint16": {
        "encoding": "inplace",
        "label": "uint16",
        "numberOfBytes": "2"
      },
      "t_uint24": {
        "encoding": "inplace",
        "label": "uint24",
        "numberOfBytes": "3"
      }
    }
  }
}