{
  "address": "0x5B5fbd188bcd4Ef946071411ECf59e929ce2C9ad",
  "abi": [
    {
      "inputs": [
        {
          "internalType": "contract IDataReceiver",
          "name": "_dataReceiver",
          "type": "address"
        }
      ],
      "stateMutability": "nonpayable",
      "type": "constructor"
    },
    {
      "inputs": [],
      "name": "AI",
      "type": "error"
    },
    {
      "inputs": [],
      "name": "I",
      "type": "error"
    },
    {
      "inputs": [],
      "name": "OLD",
      "type": "error"
    },
    {
      "inputs": [],
      "name": "OnlyDataReceiver",
      "type": "error"
    },
    {
      "anonymous": false,
      "inputs": [
        {
          "indexed": false,
          "internalType": "uint16",
          "name": "_observationCardinalityNextOld",
          "type": "uint16"
        },
        {
          "indexed": false,
          "internalType": "uint16",
          "name": "_observationCardinalityNextNew",
          "type": "uint16"
        }
      ],
      "name": "IncreaseObservationCardinalityNext",
      "type": "event"
    },
    {
      "anonymous": false,
      "inputs": [
        {
          "components": [
            {
              "internalType": "uint32",
              "name": "blockTimestamp",
              "type": "uint32"
            },
            {
              "internalType": "int24",
              "name": "tick",
              "type": "int24"
            }
          ],
          "indexed": false,
          "internalType": "struct IOracleSidechain.ObservationData",
          "name": "_observationData",
          "type": "tuple"
        }
      ],
      "name": "Initialize",
      "type": "event"
    },
    {
      "anonymous": false,
      "inputs": [
        {
          "indexed": false,
          "internalType": "address",
          "name": "_user",
          "type": "address"
        },
        {
          "components": [
            {
              "internalType": "uint32",
              "name": "blockTimestamp",
              "type": "uint32"
            },
            {
              "internalType": "int24",
              "name": "tick",
              "type": "int24"
            }
          ],
          "indexed": false,
          "internalType": "struct IOracleSidechain.ObservationData",
          "name": "_observationData",
          "type": "tuple"
        }
      ],
      "name": "ObservationWritten",
      "type": "event"
    },
    {
      "inputs": [],
      "name": "dataReceiver",
      "outputs": [
        {
          "internalType": "contract IDataReceiver",
          "name": "",
          "type": "address"
        }
      ],
      "stateMutability": "view",
      "type": "function"
    },
    {
      "inputs": [
        {
          "internalType": "uint16",
          "name": "_observationCardinalityNext",
          "type": "uint16"
        }
      ],
      "name": "increaseObservationCardinalityNext",
      "outputs": [],
      "stateMutability": "nonpayable",
      "type": "function"
    },
    {
      "inputs": [
        {
          "components": [
            {
              "internalType": "uint32",
              "name": "blockTimestamp",
              "type": "uint32"
            },
            {
              "internalType": "int24",
              "name": "tick",
              "type": "int24"
            }
          ],
          "internalType": "struct IOracleSidechain.ObservationData",
          "name": "_observationData",
          "type": "tuple"
        }
      ],
      "name": "initialize",
      "outputs": [],
      "stateMutability": "nonpayable",
      "type": "function"
    },
    {
      "inputs": [],
      "name": "lastTick",
      "outputs": [
        {
          "internalType": "int24",
          "name": "",
          "type": "int24"
        }
      ],
      "stateMutability": "view",
      "type": "function"
    },
    {
      "inputs": [
        {
          "internalType": "uint256",
          "name": "",
          "type": "uint256"
        }
      ],
      "name": "observations",
      "outputs": [
        {
          "internalType": "uint32",
          "name": "blockTimestamp",
          "type": "uint32"
        },
        {
          "internalType": "int56",
          "name": "tickCumulative",
          "type": "int56"
        },
        {
          "internalType": "uint160",
          "name": "secondsPerLiquidityCumulativeX128",
          "type": "uint160"
        },
        {
          "internalType": "bool",
          "name": "initialized",
          "type": "bool"
        }
      ],
      "stateMutability": "view",
      "type": "function"
    },
    {
      "inputs": [
        {
          "internalType": "uint32[]",
          "name": "_secondsAgos",
          "type": "uint32[]"
        }
      ],
      "name": "observe",
      "outputs": [
        {
          "internalType": "int56[]",
          "name": "_tickCumulatives",
          "type": "int56[]"
        },
        {
          "internalType": "uint160[]",
          "name": "_secondsPerLiquidityCumulativeX128s",
          "type": "uint160[]"
        }
      ],
      "stateMutability": "view",
      "type": "function"
    },
    {
      "inputs": [],
      "name": "slot0",
      "outputs": [
        {
          "internalType": "uint16",
          "name": "observationIndex",
          "type": "uint16"
        },
        {
          "internalType": "uint16",
          "name": "observationCardinality",
          "type": "uint16"
        },
        {
          "internalType": "uint16",
          "name": "observationCardinalityNext",
          "type": "uint16"
        }
      ],
      "stateMutability": "view",
      "type": "function"
    },
    {
      "inputs": [
        {
          "components": [
            {
              "internalType": "uint32",
              "name": "blockTimestamp",
              "type": "uint32"
            },
            {
              "internalType": "int24",
              "name": "tick",
              "type": "int24"
            }
          ],
          "internalType": "struct IOracleSidechain.ObservationData[]",
          "name": "_observationsData",
          "type": "tuple[]"
        }
      ],
      "name": "write",
      "outputs": [
        {
          "internalType": "bool",
          "name": "_written",
          "type": "bool"
        }
      ],
      "stateMutability": "nonpayable",
      "type": "function"
    }
  ],
  "transactionHash": "0xbcb36b28e19e74ce8c71d7adf4630a9f7ffad56eef5697ed515a2101368531ca",
  "args": [
    "0x9B4431E2EA7CF025a7953a1e5Acd1cC356476669"
  ],
  "numDeployments": 2,
  "solcInputHash": "9a08159241e536ab8c9fe9dee0fe4027",
  "bytecode": "0x608060405234801561001057600080fd5b5060405161148738038061148783398101604081905261002f9161005e565b600180546001600160a01b039092166301000000026301000000600160b81b031990921691909117905561008e565b60006020828403121561007057600080fd5b81516001600160a01b038116811461008757600080fd5b9392505050565b6113ea8061009d6000396000f3fe608060405234801561001057600080fd5b50600436106100885760003560e01c80633dfa5d871161005b5780633dfa5d871461015f578063883bdbfd1461017f578063ba93b303146101a0578063e8047788146101b357600080fd5b8063252c09d71461008d57806332148f67146100df5780633850c7bd146100f4578063387017651461013c575b600080fd5b6100a061009b3660046110da565b6101e5565b6040805163ffffffff909516855260069390930b60208501526001600160a01b0390911691830191909152151560608201526080015b60405180910390f35b6100f26100ed3660046110f3565b61022a565b005b6000546101179061ffff80821691620100008104821691600160201b9091041683565b6040805161ffff948516815292841660208401529216918101919091526060016100d6565b61014f61014a366004611117565b6102b8565b60405190151581526020016100d6565b60015461016c9060020b81565b60405160029190910b81526020016100d6565b61019261018d36600461118c565b6103e4565b6040516100d69291906111ef565b6100f26101ae366004611276565b61044a565b6001546101cd90630100000090046001600160a01b031681565b6040516001600160a01b0390911681526020016100d6565b60028161ffff81106101f657600080fd5b015463ffffffff81169150600160201b810460060b90600160581b81046001600160a01b031690600160f81b900460ff1684565b60008054600160201b900461ffff16906102466002838561056f565b6000805461ffff808416600160201b810265ffff0000000019909316929092179092559192508316146102b3576040805161ffff8085168252831660208201527fac49e518f90a358f652e4400164f05a5d8f7e35e7747279bc3a93dbf584e125a91015b60405180910390a15b505050565b600154600090630100000090046001600160a01b031633146102ed57604051638e5b30cb60e01b815260040160405180910390fd5b6000805460029061ffff9081169081106103095761030961128e565b60408051608081018252929091015463ffffffff81168352600160201b810460060b60208401526001600160a01b03600160581b8204169183019190915260ff600160f81b909104161515606082015290508260005b818110156103db578585828181106103795761037961128e565b61038f92602060409092020190810191506112bd565b63ffffffff16836000015163ffffffff1610156103cb576103c68686838181106103bb576103bb61128e565b905060400201610603565b600193505b6103d4816112d8565b905061035f565b50505092915050565b60608061043f428585808060200260200160405190810160405280939291908181526020018383602002808284376000920182905250600154815460029796955090870b935061ffff808216935062010000909104166106d9565b915091509250929050565b60005462010000900461ffff16156104755760405163139816ff60e31b815260040160405180910390fd5b6104856040820160208301611313565b6001805462ffffff191662ffffff929092169190911790556000806104ed6104b060208501856112bd565b6040805160808101825263ffffffff9092168083526000602084018190529183019190915260016060909201829052600160f81b17600255908190565b60408051606081018252600080825261ffff85811660208401819052908516928401839052815465ffffffffffff19166201000090910265ffff00000000191617600160201b9092029190911790555191935091507f99f7a0da84f56b0388730fd267e2c99bd71e2b3eefa85cf3f231f8c50f14575b906102aa908590611357565b6000808361ffff161161059557604051636b93000360e11b815260040160405180910390fd5b8261ffff168261ffff16116105ab5750816105fc565b825b8261ffff168161ffff1610156105f7576001858261ffff1661ffff81106105d6576105d661128e565b01805463ffffffff191663ffffffff929092169190911790556001016105ad565b508190505b9392505050565b6000805481906106529061ffff1661061e60208601866112bd565b61062e6040870160208801611313565b600080546002949392919061ffff620100008204811691600160201b900416610824565b6000805463ffffffff19166201000061ffff8481169190910261ffff191691909117908416179055909250905061068f6040840160208501611313565b6001805462ffffff191662ffffff929092169190911790556040517f351cb05bc71b044931f7410e88dceed68c021615a824de572c6cb0a735f50ac4906102aa903390869061136b565b60608060008361ffff161161070157604051636b93000360e11b815260040160405180910390fd5b865167ffffffffffffffff81111561071b5761071b611388565b604051908082528060200260200182016040528015610744578160200160208202803683370190505b509150865167ffffffffffffffff81111561076157610761611388565b60405190808252806020026020018201604052801561078a578160200160208202803683370190505b50905060005b8751811015610817576107c18a8a8a84815181106107b0576107b061128e565b60200260200101518a8a8a8a6109ac565b8483815181106107d3576107d361128e565b602002602001018484815181106107ec576107ec61128e565b6001600160a01b039093166020938402919091019092019190915260069190910b9052600101610790565b5097509795505050505050565b6000806000898961ffff1661ffff81106108405761084061128e565b60408051608081018252919092015463ffffffff808216808452600160201b830460060b6020850152600160581b83046001600160a01b031694840194909452600160f81b90910460ff1615156060830152909250891614156108a957888592509250506109a0565b8461ffff168461ffff161180156108ca57506001850361ffff168961ffff16145b156108d7578391506108db565b8491505b8161ffff168960010161ffff16816108f5576108f561139e565b06925061090481898989610b54565b8a8461ffff1661ffff811061091b5761091b61128e565b825191018054602084015160408501516060909501511515600160f81b026001600160f81b036001600160a01b03909616600160581b02959095166affffffffffffffffffffff66ffffffffffffff909216600160201b026affffffffffffffffffffff1990931663ffffffff90951694909417919091171691909117919091179055505b97509795505050505050565b60008063ffffffff8716610a52576000898661ffff1661ffff81106109d3576109d361128e565b60408051608081018252919092015463ffffffff808216808452600160201b830460060b6020850152600160581b83046001600160a01b031694840194909452600160f81b90910460ff16151560608301529092508a1614610a3e57610a3b818a8988610b54565b90505b8060200151816040015192509250506109a0565b868803600080610a678c8c858c8c8c8c610c19565b91509150816000015163ffffffff168363ffffffff161415610a995781602001518260400151945094505050506109a0565b805163ffffffff84811691161415610ac15780602001518160400151945094505050506109a0565b60008260000151826000015103905060008360000151850390508063ffffffff168263ffffffff1660060b856020015185602001510360060b81610b0757610b0761139e565b05028460200151018263ffffffff168263ffffffff1686604001518660400151036001600160a01b03160281610b3f57610b3f61139e565b048560400151019650965050505050506109a0565b604080516080810182526000808252602082018190529181018290526060810191909152600085600001518503905060405180608001604052808663ffffffff1681526020018263ffffffff168660020b0288602001510160060b81526020016000856001600160801b031611610bcc576001610bce565b845b6001600160801b031663ffffffff60801b608085901b1681610bf257610bf261139e565b048860400151016001600160a01b0316815260200160011515815250915050949350505050565b604080516080810182526000808252602082018190529181018290526060810191909152604080516080810182526000808252602082018190529181018290526060810191909152888561ffff1661ffff8110610c7857610c7861128e565b60408051608081018252919092015463ffffffff8116808352600160201b820460060b6020840152600160581b82046001600160a01b031693830193909352600160f81b900460ff16151560608201529250610cd690899089610e31565b15610d0e578663ffffffff16826000015163ffffffff161415610cf8576109a0565b81610d0583898988610b54565b915091506109a0565b888361ffff168660010161ffff1681610d2957610d2961139e565b0661ffff1661ffff8110610d3f57610d3f61128e565b60408051608081018252929091015463ffffffff81168352600160201b810460060b60208401526001600160a01b03600160581b8204169183019190915260ff600160f81b90910416151560608201819052909250610de857604080516080810182528a5463ffffffff81168252600160201b810460060b6020830152600160581b81046001600160a01b031692820192909252600160f81b90910460ff161515606082015291505b610df788836000015189610e31565b610e14576040516327e8e87560e01b815260040160405180910390fd5b610e218989898887610ef2565b9150915097509795505050505050565b60008363ffffffff168363ffffffff1611158015610e5b57508363ffffffff168263ffffffff1611155b15610e77578163ffffffff168363ffffffff16111590506105fc565b60008463ffffffff168463ffffffff1611610e9e578363ffffffff16600160201b01610ea6565b8363ffffffff165b64ffffffffff16905060008563ffffffff168463ffffffff1611610ed6578363ffffffff16600160201b01610ede565b8363ffffffff165b64ffffffffff169091111595945050505050565b60408051608081018252600080825260208201819052918101829052606081019190915260408051608081018252600080825260208201819052918101829052606081019190915260008361ffff168560010161ffff1681610f5657610f5661139e565b0661ffff169050600060018561ffff16830103905060005b506002818301048961ffff87168281610f8957610f8961139e565b0661ffff8110610f9b57610f9b61128e565b60408051608081018252929091015463ffffffff81168352600160201b810460060b60208401526001600160a01b03600160581b8204169183019190915260ff600160f81b90910416151560608201819052909550610fff57806001019250610f6e565b898661ffff1682600101816110165761101661139e565b0661ffff81106110285761102861128e565b60408051608081018252929091015463ffffffff81168352600160201b810460060b60208401526001600160a01b03600160581b8204169183019190915260ff600160f81b9091041615156060820152855190945060009061108c908b908b610e31565b90508080156110a557506110a58a8a8760000151610e31565b156110b057506110cd565b806110c0576001820392506110c7565b8160010193505b50610f6e565b5050509550959350505050565b6000602082840312156110ec57600080fd5b5035919050565b60006020828403121561110557600080fd5b813561ffff811681146105fc57600080fd5b6000806020838503121561112a57600080fd5b823567ffffffffffffffff8082111561114257600080fd5b818501915085601f83011261115657600080fd5b81358181111561116557600080fd5b8660208260061b850101111561117a57600080fd5b60209290920196919550909350505050565b6000806020838503121561119f57600080fd5b823567ffffffffffffffff808211156111b757600080fd5b818501915085601f8301126111cb57600080fd5b8135818111156111da57600080fd5b8660208260051b850101111561117a57600080fd5b604080825283519082018190526000906020906060840190828701845b8281101561122b57815160060b8452928401929084019060010161120c565b5050508381038285015284518082528583019183019060005b818110156112695783516001600160a01b031683529284019291840191600101611244565b5090979650505050505050565b60006040828403121561128857600080fd5b50919050565b634e487b7160e01b600052603260045260246000fd5b803563ffffffff811681146112b857600080fd5b919050565b6000602082840312156112cf57600080fd5b6105fc826112a4565b60006000198214156112fa57634e487b7160e01b600052601160045260246000fd5b5060010190565b8035600281900b81146112b857600080fd5b60006020828403121561132557600080fd5b6105fc82611301565b63ffffffff61133c826112a4565b16825261134b60208201611301565b60020b60208301525050565b60408101611365828461132e565b92915050565b6001600160a01b0383168152606081016105fc602083018461132e565b634e487b7160e01b600052604160045260246000fd5b634e487b7160e01b600052601260045260246000fdfea26469706673582212205e1a93f8fd92cc26c8310996e469d0e47bc405e67a00b22e80843ce122493de364736f6c634300080c0033",
  "devdoc": {
    "author": "0xJabberwock (from DeFi Wonderland)",
    "details": "Bridges Uniswap V3 pool observations",
    "kind": "dev",
    "methods": {
      "increaseObservationCardinalityNext(uint16)": {
        "details": "This method is no-op if the pool already has an observationCardinalityNext greater than or equal to the input observationCardinalityNext.",
        "params": {
          "_observationCardinalityNext": "The desired minimum number of observations for the pool to store"
        }
      },
      "initialize((uint32,int24))": {
        "params": {
          "_observationData": "The timestamp of the observation and the initial tick of the pool, i.e. log base 1.0001 of the starting price of the pool"
        }
      },
      "observe(uint32[])": {
        "details": "To get a time weighted average tick or liquidity-in-range, you must call this with two values, one representing the beginning of the period and another for the end of the period. E.g., to get the last hour time-weighted average tick, you must call it with secondsAgos = [3600, 0].The time weighted average tick represents the geometric time weighted average price of the pool, in log base sqrt(1.0001) of token1 / token0. The TickMath library can be used to go from a tick value to a ratio.",
        "params": {
          "_secondsAgos": "From how long ago each cumulative tick and liquidity value should be returned"
        },
        "returns": {
          "_secondsPerLiquidityCumulativeX128s": "Cumulative seconds per liquidity-in-range value as of each `secondsAgos` from the current block timestamp",
          "_tickCumulatives": "Cumulative tick values as of each `secondsAgos` from the current block timestamp"
        }
      }
    },
    "stateVariables": {
      "observations": {
        "details": "You most likely want to use #observe() instead of this method to get an observation as of some amount of time ago, rather than at a specific index in the array.",
        "params": {
          "_index": "The element of the observations array to fetch"
        },
        "returns": {
          "blockTimestamp": "The timestamp of the observation,",
          "initialized": "whether the observation has been initialized and the values are safe to use",
          "secondsPerLiquidityCumulativeX128": "the seconds per in range liquidity for the life of the pool as of the observation timestamp,",
          "tickCumulative": "the tick multiplied by seconds elapsed for the life of the pool as of the observation timestamp,"
        }
      },
      "slot0": {
        "returns": {
          "observationCardinality": "The current maximum number of observations stored in the pool,",
          "observationCardinalityNext": "The next maximum number of observations, to be updated when the observation.",
          "observationIndex": "The index of the last oracle observation that was written,"
        }
      }
    },
    "title": "A sidechain oracle contract",
    "version": 1
  },
  "userdoc": {
    "events": {
      "IncreaseObservationCardinalityNext(uint16,uint16)": {
        "notice": "Emitted by the pool for increases to the number of observations that can be stored"
      },
      "Initialize((uint32,int24))": {
        "notice": "Emitted exactly once by a pool when #initialize is first called on the pool"
      }
    },
    "kind": "user",
    "methods": {
      "increaseObservationCardinalityNext(uint16)": {
        "notice": "Increase the maximum number of price and liquidity observations that this pool will store"
      },
      "initialize((uint32,int24))": {
        "notice": "Sets the initial price for the pool"
      },
      "observations(uint256)": {
        "notice": "Returns data about a specific observation index"
      },
      "observe(uint32[])": {
        "notice": "Returns the cumulative tick and liquidity as of each timestamp `secondsAgo` from the current block timestamp"
      },
      "slot0()": {
        "notice": "The 0th storage slot in the pool stores many values, and is exposed as a single method to save gas when accessed externally."
      }
    },
    "notice": "Computes on-chain price data from Mainnet",
    "version": 1
  },
  "storageLayout": {
    "storage": [
      {
        "astId": 9546,
        "contract": "solidity/contracts/OracleSidechain.sol:OracleSidechain",
        "label": "slot0",
        "offset": 0,
        "slot": "0",
        "type": "t_struct(Slot0)9542_storage"
      },
      {
        "astId": 9549,
        "contract": "solidity/contracts/OracleSidechain.sol:OracleSidechain",
        "label": "lastTick",
        "offset": 0,
        "slot": "1",
        "type": "t_int24"
      },
      {
        "astId": 9553,
        "contract": "solidity/contracts/OracleSidechain.sol:OracleSidechain",
        "label": "dataReceiver",
        "offset": 3,
        "slot": "1",
        "type": "t_contract(IDataReceiver)10204"
      },
      {
        "astId": 9559,
        "contract": "solidity/contracts/OracleSidechain.sol:OracleSidechain",
        "label": "observations",
        "offset": 0,
        "slot": "2",
        "type": "t_array(t_struct(Observation)8584_storage)65535_storage"
      }
    ],
    "types": {
      "t_array(t_struct(Observation)8584_storage)65535_storage": {
        "base": "t_struct(Observation)8584_storage",
        "encoding": "inplace",
        "label": "struct Oracle.Observation[65535]",
        "numberOfBytes": "2097120"
      },
      "t_bool": {
        "encoding": "inplace",
        "label": "bool",
        "numberOfBytes": "1"
      },
      "t_contract(IDataReceiver)10204": {
        "encoding": "inplace",
        "label": "contract IDataReceiver",
        "numberOfBytes": "20"
      },
      "t_int24": {
        "encoding": "inplace",
        "label": "int24",
        "numberOfBytes": "3"
      },
      "t_int56": {
        "encoding": "inplace",
        "label": "int56",
        "numberOfBytes": "7"
      },
      "t_struct(Observation)8584_storage": {
        "encoding": "inplace",
        "label": "struct Oracle.Observation",
        "members": [
          {
            "astId": 8577,
            "contract": "solidity/contracts/OracleSidechain.sol:OracleSidechain",
            "label": "blockTimestamp",
            "offset": 0,
            "slot": "0",
            "type": "t_uint32"
          },
          {
            "astId": 8579,
            "contract": "solidity/contracts/OracleSidechain.sol:OracleSidechain",
            "label": "tickCumulative",
            "offset": 4,
            "slot": "0",
            "type": "t_int56"
          },
          {
            "astId": 8581,
            "contract": "solidity/contracts/OracleSidechain.sol:OracleSidechain",
            "label": "secondsPerLiquidityCumulativeX128",
            "offset": 11,
            "slot": "0",
            "type": "t_uint160"
          },
          {
            "astId": 8583,
            "contract": "solidity/contracts/OracleSidechain.sol:OracleSidechain",
            "label": "initialized",
            "offset": 31,
            "slot": "0",
            "type": "t_bool"
          }
        ],
        "numberOfBytes": "32"
      },
      "t_struct(Slot0)9542_storage": {
        "encoding": "inplace",
        "label": "struct OracleSidechain.Slot0",
        "members": [
          {
            "astId": 9537,
            "contract": "solidity/contracts/OracleSidechain.sol:OracleSidechain",
            "label": "observationIndex",
            "offset": 0,
            "slot": "0",
            "type": "t_uint16"
          },
          {
            "astId": 9539,
            "contract": "solidity/contracts/OracleSidechain.sol:OracleSidechain",
            "label": "observationCardinality",
            "offset": 2,
            "slot": "0",
            "type": "t_uint16"
          },
          {
            "astId": 9541,
            "contract": "solidity/contracts/OracleSidechain.sol:OracleSidechain",
            "label": "observationCardinalityNext",
            "offset": 4,
            "slot": "0",
            "type": "t_uint16"
          }
        ],
        "numberOfBytes": "32"
      },
      "t_uint16": {
        "encoding": "inplace",
        "label": "uint16",
        "numberOfBytes": "2"
      },
      "t_uint160": {
        "encoding": "inplace",
        "label": "uint160",
        "numberOfBytes": "20"
      },
      "t_uint32": {
        "encoding": "inplace",
        "label": "uint32",
        "numberOfBytes": "4"
      }
    }
  }
}