{
  "address": "0x91C641A9825d9f87289fbEa7b3FFc98498a302AD",
  "abi": [
    {
      "inputs": [
        {
          "internalType": "contract IConnext",
          "name": "_connext",
          "type": "address"
        },
        {
          "internalType": "contract IDataFeed",
          "name": "_dataFeed",
          "type": "address"
        }
      ],
      "stateMutability": "nonpayable",
      "type": "constructor"
    },
    {
      "inputs": [],
      "name": "OnlyDataFeed",
      "type": "error"
    },
    {
      "inputs": [
        {
          "internalType": "address",
          "name": "_to",
          "type": "address"
        },
        {
          "internalType": "uint32",
          "name": "_destinationDomainId",
          "type": "uint32"
        },
        {
          "components": [
            {
              "internalType": "uint32",
              "name": "blockTimestamp",
              "type": "uint32"
            },
            {
              "internalType": "int24",
              "name": "tick",
              "type": "int24"
            }
          ],
          "internalType": "struct IOracleSidechain.ObservationData[]",
          "name": "_observationsData",
          "type": "tuple[]"
        },
        {
          "internalType": "bytes32",
          "name": "_poolSalt",
          "type": "bytes32"
        },
        {
          "internalType": "uint24",
          "name": "_poolNonce",
          "type": "uint24"
        }
      ],
      "name": "bridgeObservations",
      "outputs": [],
      "stateMutability": "payable",
      "type": "function"
    },
    {
      "inputs": [],
      "name": "connext",
      "outputs": [
        {
          "internalType": "contract IConnext",
          "name": "",
          "type": "address"
        }
      ],
      "stateMutability": "view",
      "type": "function"
    },
    {
      "inputs": [],
      "name": "dataFeed",
      "outputs": [
        {
          "internalType": "contract IDataFeed",
          "name": "",
          "type": "address"
        }
      ],
      "stateMutability": "view",
      "type": "function"
    }
  ],
  "transactionHash": "0xad740c14caf5d1b8ca63d5e0e173dc0f9dfd77464254ea1f6206d9546fd487cb",
  "args": [
    "0x2b501381c6d6aFf9238526352b1c7560Aa35A7C5",
    "0x0209a9bAc6E96C47890573Fc2C20E485f198Da9D"
  ],
  "numDeployments": 2,
  "solcInputHash": "c13a9c9fec104b95e6c1800beae11ff9",
  "bytecode": "0x60c060405234801561001057600080fd5b506040516105ca3803806105ca83398101604081905261002f9161005e565b6001600160a01b039182166080521660a052610098565b6001600160a01b038116811461005b57600080fd5b50565b6000806040838503121561007157600080fd5b825161007c81610046565b602084015190925061008d81610046565b809150509250929050565b60805160a0516105026100c860003960008181604b015260dd01526000818160b0015261015901526105026000f3fe6080604052600436106100345760003560e01c80639e42ff9014610039578063c21a686414610089578063de4b05481461009e575b600080fd5b34801561004557600080fd5b5061006d7f000000000000000000000000000000000000000000000000000000000000000081565b6040516001600160a01b03909116815260200160405180910390f35b61009c610097366004610283565b6100d2565b005b3480156100aa57600080fd5b5061006d7f000000000000000000000000000000000000000000000000000000000000000081565b336001600160a01b037f0000000000000000000000000000000000000000000000000000000000000000161461011b57604051630273810d60e61b815260040160405180910390fd5b6000838383604051602001610132939291906103b1565b60408051601f19818403018152908290526345560b5d60e11b825291506001600160a01b037f00000000000000000000000000000000000000000000000000000000000000001690638aac16ba9061019b9088908a906000908190819081908a9060040161041c565b6020604051808303816000875af11580156101ba573d6000803e3d6000fd5b505050506040513d601f19601f820116820180604052508101906101de91906104b3565b50505050505050565b803563ffffffff811681146101fb57600080fd5b919050565b634e487b7160e01b600052604160045260246000fd5b6040805190810167ffffffffffffffff8111828210171561023957610239610200565b60405290565b604051601f8201601f1916810167ffffffffffffffff8111828210171561026857610268610200565b604052919050565b803562ffffff811681146101fb57600080fd5b600080600080600060a0868803121561029b57600080fd5b85356001600160a01b03811681146102b257600080fd5b945060206102c18782016101e7565b945060408088013567ffffffffffffffff808211156102df57600080fd5b818a0191508a601f8301126102f357600080fd5b81358181111561030557610305610200565b610313858260051b0161023f565b818152858101925060069190911b83018501908c82111561033357600080fd5b928501925b8184101561038a5784848e0312156103505760008081fd5b610358610216565b610361856101e7565b8152868501358060020b81146103775760008081fd5b8188015283529284019291850191610338565b9750505050606088013593506103a591505060808701610270565b90509295509295909350565b606080825284519082018190526000906020906080840190828801845b828110156103fe578151805163ffffffff16855285015160020b85850152604090930192908401906001016103ce565b505050908301949094525062ffffff91909116604090910152919050565b63ffffffff881681526000602060018060a01b03808a168285015280891660408501528088166060850152508560808401528460a084015260e060c084015283518060e085015260005b818110156104835785810183015185820161010001528201610466565b8181111561049657600061010083870101525b50601f01601f191692909201610100019998505050505050505050565b6000602082840312156104c557600080fd5b505191905056fea26469706673582212204398dc3ad37c7452a8c604bf82985c1cb34d449f3b5c2fd92ad0b948c66e1de364736f6c634300080f0033",
  "devdoc": {
    "kind": "dev",
    "methods": {},
    "version": 1
  },
  "userdoc": {
    "kind": "user",
    "methods": {},
    "version": 1
  },
  "storageLayout": {
    "storage": [],
    "types": null
  }
}