{
  "address": "0x4B11b6BEF9480d62b471a9a91a52C893143Bad19",
  "abi": [
    {
      "inputs": [
        {
          "internalType": "address",
          "name": "_governor",
          "type": "address"
        },
        {
          "internalType": "contract IOracleFactory",
          "name": "_oracleFactory",
          "type": "address"
        }
      ],
      "stateMutability": "nonpayable",
      "type": "constructor"
    },
    {
      "inputs": [],
      "name": "InvalidAddress",
      "type": "error"
    },
    {
      "inputs": [],
      "name": "InvalidAmount",
      "type": "error"
    },
    {
      "inputs": [],
      "name": "LengthMismatch",
      "type": "error"
    },
    {
      "inputs": [],
      "name": "ObservationsNotWritable",
      "type": "error"
    },
    {
      "inputs": [],
      "name": "OnlyGovernor",
      "type": "error"
    },
    {
      "inputs": [],
      "name": "OnlyPendingGovernor",
      "type": "error"
    },
    {
      "inputs": [],
      "name": "UnallowedAdapter",
      "type": "error"
    },
    {
      "inputs": [],
      "name": "ZeroAddress",
      "type": "error"
    },
    {
      "inputs": [],
      "name": "ZeroAmount",
      "type": "error"
    },
    {
      "anonymous": false,
      "inputs": [
        {
          "indexed": false,
          "internalType": "contract IBridgeReceiverAdapter",
          "name": "_adapter",
          "type": "address"
        },
        {
          "indexed": false,
          "internalType": "bool",
          "name": "_isAllowed",
          "type": "bool"
        }
      ],
      "name": "AdapterWhitelisted",
      "type": "event"
    },
    {
      "anonymous": false,
      "inputs": [
        {
          "indexed": true,
          "internalType": "bytes32",
          "name": "_poolSalt",
          "type": "bytes32"
        },
        {
          "indexed": false,
          "internalType": "uint24",
          "name": "_poolNonce",
          "type": "uint24"
        },
        {
          "indexed": false,
          "internalType": "address",
          "name": "_receiverAdapter",
          "type": "address"
        }
      ],
      "name": "ObservationsAdded",
      "type": "event"
    },
    {
      "anonymous": false,
      "inputs": [
        {
          "indexed": true,
          "internalType": "bytes32",
          "name": "_poolSalt",
          "type": "bytes32"
        },
        {
          "indexed": false,
          "internalType": "uint24",
          "name": "_poolNonce",
          "type": "uint24"
        },
        {
          "indexed": false,
          "internalType": "address",
          "name": "_receiverAdapter",
          "type": "address"
        }
      ],
      "name": "ObservationsCached",
      "type": "event"
    },
    {
      "anonymous": false,
      "inputs": [
        {
          "indexed": false,
          "internalType": "address",
          "name": "_newGovernor",
          "type": "address"
        }
      ],
      "name": "PendingGovernorAccepted",
      "type": "event"
    },
    {
      "anonymous": false,
      "inputs": [
        {
          "indexed": false,
          "internalType": "address",
          "name": "_governor",
          "type": "address"
        },
        {
          "indexed": false,
          "internalType": "address",
          "name": "_pendingGovernor",
          "type": "address"
        }
      ],
      "name": "PendingGovernorSet",
      "type": "event"
    },
    {
      "inputs": [],
      "name": "acceptPendingGovernor",
      "outputs": [],
      "stateMutability": "nonpayable",
      "type": "function"
    },
    {
      "inputs": [
        {
          "components": [
            {
              "internalType": "uint32",
              "name": "blockTimestamp",
              "type": "uint32"
            },
            {
              "internalType": "int24",
              "name": "tick",
              "type": "int24"
            }
          ],
          "internalType": "struct IOracleSidechain.ObservationData[]",
          "name": "_observationsData",
          "type": "tuple[]"
        },
        {
          "internalType": "bytes32",
          "name": "_poolSalt",
          "type": "bytes32"
        },
        {
          "internalType": "uint24",
          "name": "_poolNonce",
          "type": "uint24"
        }
      ],
      "name": "addObservations",
      "outputs": [],
      "stateMutability": "nonpayable",
      "type": "function"
    },
    {
      "inputs": [
        {
          "internalType": "bytes32",
          "name": "",
          "type": "bytes32"
        }
      ],
      "name": "deployedOracles",
      "outputs": [
        {
          "internalType": "contract IOracleSidechain",
          "name": "",
          "type": "address"
        }
      ],
      "stateMutability": "view",
      "type": "function"
    },
    {
      "inputs": [],
      "name": "governor",
      "outputs": [
        {
          "internalType": "address",
          "name": "",
          "type": "address"
        }
      ],
      "stateMutability": "view",
      "type": "function"
    },
    {
      "inputs": [],
      "name": "oracleFactory",
      "outputs": [
        {
          "internalType": "contract IOracleFactory",
          "name": "",
          "type": "address"
        }
      ],
      "stateMutability": "view",
      "type": "function"
    },
    {
      "inputs": [],
      "name": "pendingGovernor",
      "outputs": [
        {
          "internalType": "address",
          "name": "",
          "type": "address"
        }
      ],
      "stateMutability": "view",
      "type": "function"
    },
    {
      "inputs": [
        {
          "internalType": "address",
          "name": "_pendingGovernor",
          "type": "address"
        }
      ],
      "name": "setPendingGovernor",
      "outputs": [],
      "stateMutability": "nonpayable",
      "type": "function"
    },
    {
      "inputs": [
        {
          "internalType": "contract IBridgeReceiverAdapter",
          "name": "_receiverAdapter",
          "type": "address"
        },
        {
          "internalType": "bool",
          "name": "_isWhitelisted",
          "type": "bool"
        }
      ],
      "name": "whitelistAdapter",
      "outputs": [],
      "stateMutability": "nonpayable",
      "type": "function"
    },
    {
      "inputs": [
        {
          "internalType": "contract IBridgeReceiverAdapter[]",
          "name": "_receiverAdapters",
          "type": "address[]"
        },
        {
          "internalType": "bool[]",
          "name": "_isWhitelisted",
          "type": "bool[]"
        }
      ],
      "name": "whitelistAdapters",
      "outputs": [],
      "stateMutability": "nonpayable",
      "type": "function"
    },
    {
      "inputs": [
        {
          "internalType": "contract IBridgeReceiverAdapter",
          "name": "",
          "type": "address"
        }
      ],
      "name": "whitelistedAdapters",
      "outputs": [
        {
          "internalType": "bool",
          "name": "",
          "type": "bool"
        }
      ],
      "stateMutability": "view",
      "type": "function"
    }
  ],
  "transactionHash": "0xd56881b273081e5b436289093e54bd3f1acfc96aaf90fc739077e33d0a68ac8d",
  "args": [
    "0xa6DBFF53DD8F89f0bf4f6800BFDFfE099875bd9d",
    "0xa32f6603F9466eF0190CAc36759E41B40653471A"
  ],
  "numDeployments": 1,
  "solcInputHash": "92b61157bb7b7ae620a9f78d2e6fe053",
  "bytecode": "0x60a060405234801561001057600080fd5b50604051610fa0380380610fa083398101604081905261002f916100bc565b816001600160a01b0381166100575760405163d92e233d60e01b815260040160405180910390fd5b600080546001600160a01b0319166001600160a01b0392831617905581166100925760405163d92e233d60e01b815260040160405180910390fd5b6001600160a01b0316608052506100f6565b6001600160a01b03811681146100b957600080fd5b50565b600080604083850312156100cf57600080fd5b82516100da816100a4565b60208401519092506100eb816100a4565b809150509250929050565b608051610e8161011f600039600081816101640152818161045801526104fc0152610e816000f3fe608060405234801561001057600080fd5b506004361061009e5760003560e01c8063b893cce211610066578063b893cce21461012c578063c7f7fb901461015f578063d34ad40914610186578063e3056a3414610199578063f235757f146101ac57600080fd5b80630c340a24146100a35780630ddb5dd2146100d357806313f6986d146100e85780636607baca146100f0578063954e863e14610119575b600080fd5b6000546100b6906001600160a01b031681565b6040516001600160a01b0390911681526020015b60405180910390f35b6100e66100e1366004610a69565b6101bf565b005b6100e661027f565b6100b66100fe366004610ad5565b6002602052600090815260409020546001600160a01b031681565b6100e6610127366004610b11565b6102b4565b61014f61013a366004610b4a565b60036020526000908152604090205460ff1681565b60405190151581526020016100ca565b6100b67f000000000000000000000000000000000000000000000000000000000000000081565b6100e6610194366004610bff565b6102ed565b6001546100b6906001600160a01b031681565b6100e66101ba366004610b4a565b61032d565b6000546001600160a01b031633146101ea5760405163070545c960e51b815260040160405180910390fd5b8281811461020e576040516001621398b960e31b0319815260040160405180910390fd5b60005b818110156102775761026f86868381811061022e5761022e610d0b565b90506020020160208101906102439190610b4a565b85858481811061025557610255610d0b565b905060200201602081019061026a9190610d21565b610364565b600101610211565b505050505050565b6001546001600160a01b031633146102aa57604051639ba0305d60e01b815260040160405180910390fd5b6102b26103c7565b565b6000546001600160a01b031633146102df5760405163070545c960e51b815260040160405180910390fd5b6102e98282610364565b5050565b3360009081526003602052604090205460ff1661031d576040516360ece74160e01b815260040160405180910390fd5b610328838383610425565b505050565b6000546001600160a01b031633146103585760405163070545c960e51b815260040160405180910390fd5b61036181610958565b50565b6001600160a01b038216600081815260036020908152604091829020805460ff19168515159081179091558251938452908301527f3cece36ac6216147f57b10bb30975f82b18b8b290a7925c322277e684afcce4a910160405180910390a15050565b60018054600080546001600160a01b0383166001600160a01b031991821681179092559091169091556040519081527f5d5d6e01b731c3e68060f7fe13156f6197d4aeffc2d6f498e34c717ae616b7349060200160405180910390a1565b6000828152600260205260409020546001600160a01b03168061059c5760405163f6c0092760e01b8152600481018490527f00000000000000000000000000000000000000000000000000000000000000006001600160a01b03169063f6c0092790602401602060405180830381865afa1580156104a7573d6000803e3d6000fd5b505050506040513d601f19601f820116820180604052508101906104cb9190610d3e565b90506001600160a01b03811661057457604051632e60fe9b60e11b81526004810184905262ffffff831660248201527f00000000000000000000000000000000000000000000000000000000000000006001600160a01b031690635cc1fd36906044016020604051808303816000875af115801561054d573d6000803e3d6000fd5b505050506040513d601f19601f820116820180604052508101906105719190610d3e565b90505b600083815260026020526040902080546001600160a01b0319166001600160a01b0383161790555b6040516308f944b560e21b81526001600160a01b038216906323e512d4906105ca9087908690600401610d5b565b6020604051808303816000875af11580156105e9573d6000803e3d6000fd5b505050506040513d601f19601f8201168201806040525081019061060d9190610dc0565b15610656576040805162ffffff8416815233602082015284917f9a777601844e27c439fe9f23f4ada7ea2b67551ea35b07439e3dad53e0e369cd910160405180910390a2610952565b6000816001600160a01b0316639fdbd4d76040518163ffffffff1660e01b8152600401602060405180830381865afa158015610696573d6000803e3d6000fd5b505050506040513d601f19601f820116820180604052508101906106ba9190610ddd565b90508262ffffff168162ffffff1611156106e757604051630a96dcbd60e11b815260040160405180910390fd5b60005b855181101561078757600085815260046020908152604080832062ffffff881684529091529020865187908390811061072557610725610d0b565b6020908102919091018101518254600181018455600093845292829020815193018054919092015162ffffff166401000000000266ffffffffffffff1990911663ffffffff9093169290921791909117905561078081610e10565b90506106ea565b506040805162ffffff8516815233602082015285917fca8a146eac241d31b0d3d0650d8747b21a7d1f1a21c55abdbb7209740d742dd1910160405180910390a25b8262ffffff168162ffffff161161095057600084815260046020908152604080832062ffffff85168452825280832080548251818502810185019093528083529193909284015b82821015610856576000848152602090819020604080518082019091529084015463ffffffff81168252640100000000900460020b8183015282526001909201910161080f565b505050509450600085511115610950576040516308f944b560e21b81526001600160a01b038316906323e512d4906108949088908590600401610d5b565b6020604051808303816000875af11580156108b3573d6000803e3d6000fd5b505050506040513d601f19601f820116820180604052508101906108d79190610dc0565b506040805162ffffff8316815233602082015285917f9a777601844e27c439fe9f23f4ada7ea2b67551ea35b07439e3dad53e0e369cd910160405180910390a2600084815260046020908152604080832062ffffff85168452909152812061093e916109e1565b8061094881610e29565b9150506107c8565b505b50505050565b6001600160a01b03811661097f5760405163d92e233d60e01b815260040160405180910390fd5b600180546001600160a01b0319166001600160a01b038381169182179092556000546040805191909316815260208101919091527f6353ec38ac394f8be94bfafcdd3580d356470599059eaeebedc3207e1cc03dec910160405180910390a150565b508054600082559060005260206000209081019061036191905b80821115610a1957805466ffffffffffffff191681556001016109fb565b5090565b60008083601f840112610a2f57600080fd5b50813567ffffffffffffffff811115610a4757600080fd5b6020830191508360208260051b8501011115610a6257600080fd5b9250929050565b60008060008060408587031215610a7f57600080fd5b843567ffffffffffffffff80821115610a9757600080fd5b610aa388838901610a1d565b90965094506020870135915080821115610abc57600080fd5b50610ac987828801610a1d565b95989497509550505050565b600060208284031215610ae757600080fd5b5035919050565b6001600160a01b038116811461036157600080fd5b801515811461036157600080fd5b60008060408385031215610b2457600080fd5b8235610b2f81610aee565b91506020830135610b3f81610b03565b809150509250929050565b600060208284031215610b5c57600080fd5b8135610b6781610aee565b9392505050565b634e487b7160e01b600052604160045260246000fd5b6040805190810167ffffffffffffffff81118282101715610ba757610ba7610b6e565b60405290565b604051601f8201601f1916810167ffffffffffffffff81118282101715610bd657610bd6610b6e565b604052919050565b62ffffff8116811461036157600080fd5b8035610bfa81610bde565b919050565b600080600060608486031215610c1457600080fd5b833567ffffffffffffffff80821115610c2c57600080fd5b818601915086601f830112610c4057600080fd5b8135602082821115610c5457610c54610b6e565b610c62818360051b01610bad565b828152818101935060069290921b840181019189831115610c8257600080fd5b938101935b82851015610cea576040858b031215610ca05760008081fd5b610ca8610b84565b853563ffffffff81168114610cbd5760008081fd5b815285830135600281900b8114610cd45760008081fd5b8184015284526040949094019392810192610c87565b96508701359450610d02925050604086019050610bef565b90509250925092565b634e487b7160e01b600052603260045260246000fd5b600060208284031215610d3357600080fd5b8135610b6781610b03565b600060208284031215610d5057600080fd5b8151610b6781610aee565b60408082528351828201819052600091906020906060850190828801855b82811015610da7578151805163ffffffff16855285015160020b858501529285019290840190600101610d79565b50505062ffffff95909516930192909252509092915050565b600060208284031215610dd257600080fd5b8151610b6781610b03565b600060208284031215610def57600080fd5b8151610b6781610bde565b634e487b7160e01b600052601160045260246000fd5b600060018201610e2257610e22610dfa565b5060010190565b600062ffffff808316818103610e4157610e41610dfa565b600101939250505056fea264697066735822122034fd09118d3d0be727d85a098f8ee3713b14cb27c0ce5bd2232a496b84d3abcf64736f6c634300080f0033",
  "devdoc": {
    "kind": "dev",
    "methods": {
      "addObservations((uint32,int24)[],bytes32,uint24)": {
        "params": {
          "_observationsData": "Array of tuples containing the dataset",
          "_poolNonce": "Nonce of the observation broadcast",
          "_poolSalt": "Identifier of the pool to fetch"
        }
      },
      "setPendingGovernor(address)": {
        "params": {
          "_pendingGovernor": "Address of the proposed new governor"
        }
      },
      "whitelistAdapter(address,bool)": {
        "params": {
          "_isWhitelisted": "New whitelisting status",
          "_receiverAdapter": "Address of the adapter"
        }
      },
      "whitelistAdapters(address[],bool[])": {
        "params": {
          "_isWhitelisted": "Array of whitelisting status for each address",
          "_receiverAdapters": "Array of addresses of the adapter"
        }
      }
    },
    "stateVariables": {
      "deployedOracles": {
        "params": {
          "_poolSalt": "The identifier of the oracle"
        },
        "return": "The address of the correspondant Oracle",
        "returns": {
          "_0": "The address of the correspondant Oracle"
        }
      },
      "oracleFactory": {
        "return": "The address of the OracleFactory",
        "returns": {
          "_0": "The address of the OracleFactory"
        }
      },
      "whitelistedAdapters": {
        "params": {
          "_adapter": "Address of the bridge adapter to consult"
        },
        "return": "Whether a bridge adapter is whitelisted",
        "returns": {
          "_0": "Whether a bridge adapter is whitelisted"
        }
      }
    },
    "title": "The DataReceiver contract",
    "version": 1
  },
  "userdoc": {
    "errors": {
      "InvalidAddress()": [
        {
          "notice": "Thrown if an address is invalid"
        }
      ],
      "InvalidAmount()": [
        {
          "notice": "Thrown if an amount is invalid"
        }
      ],
      "LengthMismatch()": [
        {
          "notice": "Thrown if the lengths of a set of lists mismatch"
        }
      ],
      "ObservationsNotWritable()": [
        {
          "notice": "Thrown when the broadcast nonce is incorrect"
        }
      ],
      "OnlyGovernor()": [
        {
          "notice": "Thrown if a non-governor user tries to call a OnlyGovernor function"
        }
      ],
      "OnlyPendingGovernor()": [
        {
          "notice": "Thrown if a non-pending-governor user tries to call a OnlyPendingGovernor function"
        }
      ],
      "UnallowedAdapter()": [
        {
          "notice": "Thrown when a not-whitelisted adapter triggers an update"
        }
      ],
      "ZeroAddress()": [
        {
          "notice": "Thrown if an address is the zero address"
        }
      ],
      "ZeroAmount()": [
        {
          "notice": "Thrown if an amount is zero"
        }
      ]
    },
    "events": {
      "AdapterWhitelisted(address,bool)": {
        "notice": "Emitted when a new adapter whitelisting rule is set"
      },
      "ObservationsAdded(bytes32,uint24,address)": {
        "notice": "Emitted when a broadcast observation is succesfully processed"
      },
      "ObservationsCached(bytes32,uint24,address)": {
        "notice": "Emitted when a broadcast observation is cached for later processing"
      },
      "PendingGovernorAccepted(address)": {
        "notice": "Emitted when a new governor is set"
      },
      "PendingGovernorSet(address,address)": {
        "notice": "Emitted when a new pending governor is set"
      }
    },
    "kind": "user",
    "methods": {
      "acceptPendingGovernor()": {
        "notice": "Allows a proposed governor to accept the governance"
      },
      "addObservations((uint32,int24)[],bytes32,uint24)": {
        "notice": "Allows whitelisted bridge adapters to push a broadcast"
      },
      "deployedOracles(bytes32)": {
        "notice": "Tracks already deployed oracles"
      },
      "setPendingGovernor(address)": {
        "notice": "Allows a governor to propose a new governor"
      },
      "whitelistAdapter(address,bool)": {
        "notice": "Allows governance to set an adapter whitelisted state"
      },
      "whitelistAdapters(address[],bool[])": {
        "notice": "Allows governance to batch set adapters whitelisted state"
      },
      "whitelistedAdapters(address)": {
        "notice": "Tracks the whitelisting of bridge adapters"
      }
    },
    "notice": "Handles reception of broadcast data and delivers it to correspondant oracle",
    "version": 1
  },
  "storageLayout": {
    "storage": [
      {
        "astId": 8014,
        "contract": "solidity/contracts/DataReceiver.sol:DataReceiver",
        "label": "governor",
        "offset": 0,
        "slot": "0",
        "type": "t_address"
      },
      {
        "astId": 8017,
        "contract": "solidity/contracts/DataReceiver.sol:DataReceiver",
        "label": "pendingGovernor",
        "offset": 0,
        "slot": "1",
        "type": "t_address"
      },
      {
        "astId": 15164,
        "contract": "solidity/contracts/DataReceiver.sol:DataReceiver",
        "label": "deployedOracles",
        "offset": 0,
        "slot": "2",
        "type": "t_mapping(t_bytes32,t_contract(IOracleSidechain)18533)"
      },
      {
        "astId": 15170,
        "contract": "solidity/contracts/DataReceiver.sol:DataReceiver",
        "label": "whitelistedAdapters",
        "offset": 0,
        "slot": "3",
        "type": "t_mapping(t_contract(IBridgeReceiverAdapter)18668,t_bool)"
      },
      {
        "astId": 15178,
        "contract": "solidity/contracts/DataReceiver.sol:DataReceiver",
        "label": "_cachedObservations",
        "offset": 0,
        "slot": "4",
        "type": "t_mapping(t_bytes32,t_mapping(t_uint24,t_array(t_struct(ObservationData)18375_storage)dyn_storage))"
      }
    ],
    "types": {
      "t_address": {
        "encoding": "inplace",
        "label": "address",
        "numberOfBytes": "20"
      },
      "t_array(t_struct(ObservationData)18375_storage)dyn_storage": {
        "base": "t_struct(ObservationData)18375_storage",
        "encoding": "dynamic_array",
        "label": "struct IOracleSidechain.ObservationData[]",
        "numberOfBytes": "32"
      },
      "t_bool": {
        "encoding": "inplace",
        "label": "bool",
        "numberOfBytes": "1"
      },
      "t_bytes32": {
        "encoding": "inplace",
        "label": "bytes32",
        "numberOfBytes": "32"
      },
      "t_contract(IBridgeReceiverAdapter)18668": {
        "encoding": "inplace",
        "label": "contract IBridgeReceiverAdapter",
        "numberOfBytes": "20"
      },
      "t_contract(IOracleSidechain)18533": {
        "encoding": "inplace",
        "label": "contract IOracleSidechain",
        "numberOfBytes": "20"
      },
      "t_int24": {
        "encoding": "inplace",
        "label": "int24",
        "numberOfBytes": "3"
      },
      "t_mapping(t_bytes32,t_contract(IOracleSidechain)18533)": {
        "encoding": "mapping",
        "key": "t_bytes32",
        "label": "mapping(bytes32 => contract IOracleSidechain)",
        "numberOfBytes": "32",
        "value": "t_contract(IOracleSidechain)18533"
      },
      "t_mapping(t_bytes32,t_mapping(t_uint24,t_array(t_struct(ObservationData)18375_storage)dyn_storage))": {
        "encoding": "mapping",
        "key": "t_bytes32",
        "label": "mapping(bytes32 => mapping(uint24 => struct IOracleSidechain.ObservationData[]))",
        "numberOfBytes": "32",
        "value": "t_mapping(t_uint24,t_array(t_struct(ObservationData)18375_storage)dyn_storage)"
      },
      "t_mapping(t_contract(IBridgeReceiverAdapter)18668,t_bool)": {
        "encoding": "mapping",
        "key": "t_contract(IBridgeReceiverAdapter)18668",
        "label": "mapping(contract IBridgeReceiverAdapter => bool)",
        "numberOfBytes": "32",
        "value": "t_bool"
      },
      "t_mapping(t_uint24,t_array(t_struct(ObservationData)18375_storage)dyn_storage)": {
        "encoding": "mapping",
        "key": "t_uint24",
        "label": "mapping(uint24 => struct IOracleSidechain.ObservationData[])",
        "numberOfBytes": "32",
        "value": "t_array(t_struct(ObservationData)18375_storage)dyn_storage"
      },
      "t_struct(ObservationData)18375_storage": {
        "encoding": "inplace",
        "label": "struct IOracleSidechain.ObservationData",
        "members": [
          {
            "astId": 18372,
            "contract": "solidity/contracts/DataReceiver.sol:DataReceiver",
            "label": "blockTimestamp",
            "offset": 0,
            "slot": "0",
            "type": "t_uint32"
          },
          {
            "astId": 18374,
            "contract": "solidity/contracts/DataReceiver.sol:DataReceiver",
            "label": "tick",
            "offset": 4,
            "slot": "0",
            "type": "t_int24"
          }
        ],
        "numberOfBytes": "32"
      },
      "t_uint24": {
        "encoding": "inplace",
        "label": "uint24",
        "numberOfBytes": "3"
      },
      "t_uint32": {
        "encoding": "inplace",
        "label": "uint32",
        "numberOfBytes": "4"
      }
    }
  }
}