{
  "address": "0x6faB297066D36Abb2a5Cb5f030C42E70A539D188",
  "abi": [
    {
      "inputs": [
        {
          "internalType": "address",
          "name": "_governor",
          "type": "address"
        },
        {
          "internalType": "contract IDataFeedStrategy",
          "name": "_strategy",
          "type": "address"
        }
      ],
      "stateMutability": "nonpayable",
      "type": "constructor"
    },
    {
      "inputs": [],
      "name": "DestinationDomainIdNotSet",
      "type": "error"
    },
    {
      "inputs": [],
      "name": "InvalidSecondsAgos",
      "type": "error"
    },
    {
      "inputs": [],
      "name": "LengthMismatch",
      "type": "error"
    },
    {
      "inputs": [],
      "name": "OnlyGovernor",
      "type": "error"
    },
    {
      "inputs": [],
      "name": "OnlyPendingGovernor",
      "type": "error"
    },
    {
      "inputs": [],
      "name": "OnlyStrategy",
      "type": "error"
    },
    {
      "inputs": [],
      "name": "ReceiverNotSet",
      "type": "error"
    },
    {
      "inputs": [],
      "name": "UnallowedAdapter",
      "type": "error"
    },
    {
      "inputs": [],
      "name": "UnallowedPipeline",
      "type": "error"
    },
    {
      "inputs": [],
      "name": "UnallowedPool",
      "type": "error"
    },
    {
      "inputs": [],
      "name": "UnknownHash",
      "type": "error"
    },
    {
      "inputs": [],
      "name": "WrongNonce",
      "type": "error"
    },
    {
      "inputs": [],
      "name": "ZeroAddress",
      "type": "error"
    },
    {
      "anonymous": false,
      "inputs": [
        {
          "indexed": false,
          "internalType": "contract IBridgeSenderAdapter",
          "name": "_bridgeSenderAdapter",
          "type": "address"
        },
        {
          "indexed": false,
          "internalType": "bool",
          "name": "_isWhitelisted",
          "type": "bool"
        }
      ],
      "name": "AdapterWhitelisted",
      "type": "event"
    },
    {
      "anonymous": false,
      "inputs": [
        {
          "indexed": true,
          "internalType": "bytes32",
          "name": "_poolSalt",
          "type": "bytes32"
        },
        {
          "indexed": false,
          "internalType": "uint24",
          "name": "_poolNonce",
          "type": "uint24"
        },
        {
          "indexed": false,
          "internalType": "uint32",
          "name": "_chainId",
          "type": "uint32"
        },
        {
          "indexed": false,
          "internalType": "address",
          "name": "_dataReceiver",
          "type": "address"
        },
        {
          "indexed": false,
          "internalType": "contract IBridgeSenderAdapter",
          "name": "_bridgeSenderAdapter",
          "type": "address"
        }
      ],
      "name": "DataBroadcast",
      "type": "event"
    },
    {
      "anonymous": false,
      "inputs": [
        {
          "indexed": false,
          "internalType": "contract IBridgeSenderAdapter",
          "name": "_bridgeSenderAdapter",
          "type": "address"
        },
        {
          "indexed": false,
          "internalType": "uint32",
          "name": "_chainId",
          "type": "uint32"
        },
        {
          "indexed": false,
          "internalType": "uint32",
          "name": "_destinationDomainId",
          "type": "uint32"
        }
      ],
      "name": "DestinationDomainIdSet",
      "type": "event"
    },
    {
      "anonymous": false,
      "inputs": [
        {
          "indexed": false,
          "internalType": "address",
          "name": "_newGovernor",
          "type": "address"
        }
      ],
      "name": "PendingGovernorAccepted",
      "type": "event"
    },
    {
      "anonymous": false,
      "inputs": [
        {
          "indexed": false,
          "internalType": "address",
          "name": "_governor",
          "type": "address"
        },
        {
          "indexed": false,
          "internalType": "address",
          "name": "_pendingGovernor",
          "type": "address"
        }
      ],
      "name": "PendingGovernorSet",
      "type": "event"
    },
    {
      "anonymous": false,
      "inputs": [
        {
          "indexed": false,
          "internalType": "uint32",
          "name": "_chainId",
          "type": "uint32"
        },
        {
          "indexed": true,
          "internalType": "bytes32",
          "name": "_poolSalt",
          "type": "bytes32"
        },
        {
          "indexed": false,
          "internalType": "uint24",
          "name": "_whitelistedNonce",
          "type": "uint24"
        }
      ],
      "name": "PipelineWhitelisted",
      "type": "event"
    },
    {
      "anonymous": false,
      "inputs": [
        {
          "indexed": true,
          "internalType": "bytes32",
          "name": "_poolSalt",
          "type": "bytes32"
        },
        {
          "indexed": false,
          "internalType": "uint24",
          "name": "_poolNonce",
          "type": "uint24"
        },
        {
          "components": [
            {
              "internalType": "uint32",
              "name": "blockTimestamp",
              "type": "uint32"
            },
            {
              "internalType": "int24",
              "name": "tick",
              "type": "int24"
            }
          ],
          "indexed": false,
          "internalType": "struct IOracleSidechain.ObservationData[]",
          "name": "_observationsData",
          "type": "tuple[]"
        }
      ],
      "name": "PoolObserved",
      "type": "event"
    },
    {
      "anonymous": false,
      "inputs": [
        {
          "indexed": false,
          "internalType": "contract IBridgeSenderAdapter",
          "name": "_bridgeSenderAdapter",
          "type": "address"
        },
        {
          "indexed": false,
          "internalType": "uint32",
          "name": "_destinationDomainId",
          "type": "uint32"
        },
        {
          "indexed": false,
          "internalType": "address",
          "name": "_dataReceiver",
          "type": "address"
        }
      ],
      "name": "ReceiverSet",
      "type": "event"
    },
    {
      "anonymous": false,
      "inputs": [
        {
          "indexed": false,
          "internalType": "contract IDataFeedStrategy",
          "name": "_strategy",
          "type": "address"
        }
      ],
      "name": "StrategySet",
      "type": "event"
    },
    {
      "inputs": [],
      "name": "acceptPendingGovernor",
      "outputs": [],
      "stateMutability": "nonpayable",
      "type": "function"
    },
    {
      "inputs": [
        {
          "internalType": "contract IBridgeSenderAdapter",
          "name": "",
          "type": "address"
        },
        {
          "internalType": "uint32",
          "name": "",
          "type": "uint32"
        }
      ],
      "name": "destinationDomainIds",
      "outputs": [
        {
          "internalType": "uint32",
          "name": "",
          "type": "uint32"
        }
      ],
      "stateMutability": "view",
      "type": "function"
    },
    {
      "inputs": [
        {
          "internalType": "bytes32",
          "name": "_poolSalt",
          "type": "bytes32"
        },
        {
          "internalType": "uint32[]",
          "name": "_secondsAgos",
          "type": "uint32[]"
        }
      ],
      "name": "fetchObservations",
      "outputs": [],
      "stateMutability": "nonpayable",
      "type": "function"
    },
    {
      "inputs": [],
      "name": "governor",
      "outputs": [
        {
          "internalType": "address",
          "name": "",
          "type": "address"
        }
      ],
      "stateMutability": "view",
      "type": "function"
    },
    {
      "inputs": [
        {
          "internalType": "uint32",
          "name": "_chainId",
          "type": "uint32"
        },
        {
          "internalType": "bytes32",
          "name": "_poolSalt",
          "type": "bytes32"
        }
      ],
      "name": "isWhitelistedPipeline",
      "outputs": [
        {
          "internalType": "bool",
          "name": "_isWhitelisted",
          "type": "bool"
        }
      ],
      "stateMutability": "view",
      "type": "function"
    },
    {
      "inputs": [
        {
          "internalType": "bytes32",
          "name": "_poolSalt",
          "type": "bytes32"
        }
      ],
      "name": "isWhitelistedPool",
      "outputs": [
        {
          "internalType": "bool",
          "name": "_isWhitelisted",
          "type": "bool"
        }
      ],
      "stateMutability": "view",
      "type": "function"
    },
    {
      "inputs": [
        {
          "internalType": "bytes32",
          "name": "",
          "type": "bytes32"
        }
      ],
      "name": "lastPoolStateObserved",
      "outputs": [
        {
          "internalType": "uint24",
          "name": "poolNonce",
          "type": "uint24"
        },
        {
          "internalType": "uint32",
          "name": "blockTimestamp",
          "type": "uint32"
        },
        {
          "internalType": "int56",
          "name": "tickCumulative",
          "type": "int56"
        },
        {
          "internalType": "int24",
          "name": "arithmeticMeanTick",
          "type": "int24"
        }
      ],
      "stateMutability": "view",
      "type": "function"
    },
    {
      "inputs": [],
      "name": "pendingGovernor",
      "outputs": [
        {
          "internalType": "address",
          "name": "",
          "type": "address"
        }
      ],
      "stateMutability": "view",
      "type": "function"
    },
    {
      "inputs": [
        {
          "internalType": "contract IBridgeSenderAdapter",
          "name": "",
          "type": "address"
        },
        {
          "internalType": "uint32",
          "name": "",
          "type": "uint32"
        }
      ],
      "name": "receivers",
      "outputs": [
        {
          "internalType": "address",
          "name": "",
          "type": "address"
        }
      ],
      "stateMutability": "view",
      "type": "function"
    },
    {
      "inputs": [
        {
          "internalType": "contract IBridgeSenderAdapter",
          "name": "_bridgeSenderAdapter",
          "type": "address"
        },
        {
          "internalType": "uint32",
          "name": "_chainId",
          "type": "uint32"
        },
        {
          "internalType": "bytes32",
          "name": "_poolSalt",
          "type": "bytes32"
        },
        {
          "internalType": "uint24",
          "name": "_poolNonce",
          "type": "uint24"
        },
        {
          "components": [
            {
              "internalType": "uint32",
              "name": "blockTimestamp",
              "type": "uint32"
            },
            {
              "internalType": "int24",
              "name": "tick",
              "type": "int24"
            }
          ],
          "internalType": "struct IOracleSidechain.ObservationData[]",
          "name": "_observationsData",
          "type": "tuple[]"
        }
      ],
      "name": "sendObservations",
      "outputs": [],
      "stateMutability": "nonpayable",
      "type": "function"
    },
    {
      "inputs": [
        {
          "internalType": "contract IBridgeSenderAdapter",
          "name": "_bridgeSenderAdapter",
          "type": "address"
        },
        {
          "internalType": "uint32",
          "name": "_chainId",
          "type": "uint32"
        },
        {
          "internalType": "uint32",
          "name": "_destinationDomainId",
          "type": "uint32"
        }
      ],
      "name": "setDestinationDomainId",
      "outputs": [],
      "stateMutability": "nonpayable",
      "type": "function"
    },
    {
      "inputs": [
        {
          "internalType": "contract IBridgeSenderAdapter[]",
          "name": "_bridgeSenderAdapters",
          "type": "address[]"
        },
        {
          "internalType": "uint32[]",
          "name": "_chainIds",
          "type": "uint32[]"
        },
        {
          "internalType": "uint32[]",
          "name": "_destinationDomainIds",
          "type": "uint32[]"
        }
      ],
      "name": "setDestinationDomainIds",
      "outputs": [],
      "stateMutability": "nonpayable",
      "type": "function"
    },
    {
      "inputs": [
        {
          "internalType": "address",
          "name": "_pendingGovernor",
          "type": "address"
        }
      ],
      "name": "setPendingGovernor",
      "outputs": [],
      "stateMutability": "nonpayable",
      "type": "function"
    },
    {
      "inputs": [
        {
          "internalType": "contract IBridgeSenderAdapter",
          "name": "_bridgeSenderAdapter",
          "type": "address"
        },
        {
          "internalType": "uint32",
          "name": "_destinationDomainId",
          "type": "uint32"
        },
        {
          "internalType": "address",
          "name": "_dataReceiver",
          "type": "address"
        }
      ],
      "name": "setReceiver",
      "outputs": [],
      "stateMutability": "nonpayable",
      "type": "function"
    },
    {
      "inputs": [
        {
          "internalType": "contract IBridgeSenderAdapter[]",
          "name": "_bridgeSenderAdapters",
          "type": "address[]"
        },
        {
          "internalType": "uint32[]",
          "name": "_destinationDomainIds",
          "type": "uint32[]"
        },
        {
          "internalType": "address[]",
          "name": "_dataReceivers",
          "type": "address[]"
        }
      ],
      "name": "setReceivers",
      "outputs": [],
      "stateMutability": "nonpayable",
      "type": "function"
    },
    {
      "inputs": [
        {
          "internalType": "contract IDataFeedStrategy",
          "name": "_strategy",
          "type": "address"
        }
      ],
      "name": "setStrategy",
      "outputs": [],
      "stateMutability": "nonpayable",
      "type": "function"
    },
    {
      "inputs": [],
      "name": "strategy",
      "outputs": [
        {
          "internalType": "contract IDataFeedStrategy",
          "name": "",
          "type": "address"
        }
      ],
      "stateMutability": "view",
      "type": "function"
    },
    {
      "inputs": [
        {
          "internalType": "contract IBridgeSenderAdapter",
          "name": "_bridgeSenderAdapter",
          "type": "address"
        },
        {
          "internalType": "uint32",
          "name": "_chainId",
          "type": "uint32"
        }
      ],
      "name": "validateSenderAdapter",
      "outputs": [
        {
          "internalType": "uint32",
          "name": "_destinationDomainId",
          "type": "uint32"
        },
        {
          "internalType": "address",
          "name": "_dataReceiver",
          "type": "address"
        }
      ],
      "stateMutability": "view",
      "type": "function"
    },
    {
      "inputs": [
        {
          "internalType": "contract IBridgeSenderAdapter",
          "name": "_bridgeSenderAdapter",
          "type": "address"
        },
        {
          "internalType": "bool",
          "name": "_isWhitelisted",
          "type": "bool"
        }
      ],
      "name": "whitelistAdapter",
      "outputs": [],
      "stateMutability": "nonpayable",
      "type": "function"
    },
    {
      "inputs": [
        {
          "internalType": "contract IBridgeSenderAdapter[]",
          "name": "_bridgeSenderAdapters",
          "type": "address[]"
        },
        {
          "internalType": "bool[]",
          "name": "_isWhitelisted",
          "type": "bool[]"
        }
      ],
      "name": "whitelistAdapters",
      "outputs": [],
      "stateMutability": "nonpayable",
      "type": "function"
    },
    {
      "inputs": [
        {
          "internalType": "uint32",
          "name": "_chainId",
          "type": "uint32"
        },
        {
          "internalType": "bytes32",
          "name": "_poolSalt",
          "type": "bytes32"
        }
      ],
      "name": "whitelistPipeline",
      "outputs": [],
      "stateMutability": "nonpayable",
      "type": "function"
    },
    {
      "inputs": [
        {
          "internalType": "uint32[]",
          "name": "_chainIds",
          "type": "uint32[]"
        },
        {
          "internalType": "bytes32[]",
          "name": "_poolSalts",
          "type": "bytes32[]"
        }
      ],
      "name": "whitelistPipelines",
      "outputs": [],
      "stateMutability": "nonpayable",
      "type": "function"
    },
    {
      "inputs": [
        {
          "internalType": "contract IBridgeSenderAdapter",
          "name": "",
          "type": "address"
        }
      ],
      "name": "whitelistedAdapters",
      "outputs": [
        {
          "internalType": "bool",
          "name": "",
          "type": "bool"
        }
      ],
      "stateMutability": "view",
      "type": "function"
    },
    {
      "inputs": [
        {
          "internalType": "uint32",
          "name": "",
          "type": "uint32"
        },
        {
          "internalType": "bytes32",
          "name": "",
          "type": "bytes32"
        }
      ],
      "name": "whitelistedNonces",
      "outputs": [
        {
          "internalType": "uint24",
          "name": "",
          "type": "uint24"
        }
      ],
      "stateMutability": "view",
      "type": "function"
    },
    {
      "inputs": [],
      "name": "whitelistedPools",
      "outputs": [
        {
          "internalType": "bytes32[]",
          "name": "",
          "type": "bytes32[]"
        }
      ],
      "stateMutability": "view",
      "type": "function"
    }
  ],
  "transactionHash": "0x67eab0455a6fee1e3bf6c60082bac9fb56aeba46486cba3c3b02843086c2ff25",
  "args": [
    "0x57B067e4E27558FE2c60fCE86941011cB5F5A4FD",
    "0x57B067e4E27558FE2c60fCE86941011cB5F5A4FD"
  ],
  "numDeployments": 1,
  "solcInputHash": "bd68145e3ffcbd8bad2c61c01dd1b8a4",
  "bytecode": "0x60806040523480156200001157600080fd5b506040516200221c3803806200221c8339810160408190526200003491620000fd565b816001600160a01b0381166200005d5760405163d92e233d60e01b815260040160405180910390fd5b600080546001600160a01b0319166001600160a01b0392909216919091179055620000888162000090565b50506200013c565b600880546001600160a01b0319166001600160a01b0383169081179091556040519081527fe70d79dad95c835bdd87e9cf4665651c9e5abb3b756e4fd2bf45f29c95c3aa409060200160405180910390a150565b6001600160a01b0381168114620000fa57600080fd5b50565b600080604083850312156200011157600080fd5b82516200011e81620000e4565b60208401519092506200013181620000e4565b809150509250929050565b6120d0806200014c6000396000f3fe608060405234801561001057600080fd5b50600436106101735760003560e01c80636e927336116100de578063b893cce211610097578063ca200aee11610071578063ca200aee14610454578063e3056a3414610467578063f235757f1461047a578063f4ed7c5b1461048d57600080fd5b8063b893cce2146103e7578063bf5d23c31461040a578063c81373251461041d57600080fd5b80636e927336146103755780638920bc5a14610388578063954e863e1461039b578063a8c62e76146103ae578063b3d39afe146103c1578063b3f10d95146103d457600080fd5b806333a100ca1161013057806333a100ca1461028d578063389c3e2c146102a05780633e8cee17146102e6578063434798851461032a57806346efef551461033f57806351919bdf1461035257600080fd5b80630c340a24146101785780630ddb5dd2146101a8578063128657be146101bd57806313f6986d146101d05780631b79c0bc146101d85780632104ee3e14610259575b600080fd5b60005461018b906001600160a01b031681565b6040516001600160a01b0390911681526020015b60405180910390f35b6101bb6101b6366004611712565b6104a0565b005b6101bb6101cb3660046117a5565b610560565b6101bb61059b565b6102226101e63660046117f0565b60096020526000908152604090205462ffffff81169063ffffffff630100000082041690600160381b810460060b90600160701b900460020b84565b6040805162ffffff909516855263ffffffff909316602085015260069190910b9183019190915260020b606082015260800161019f565b61018b610267366004611809565b60076020908152600092835260408084209091529082529020546001600160a01b031681565b6101bb61029b366004611842565b6105d0565b6102d16102ae366004611809565b600660209081526000928352604080842090915290825290205463ffffffff1681565b60405163ffffffff909116815260200161019f565b6103166102f436600461185f565b600460209081526000928352604080842090915290825290205462ffffff1681565b60405162ffffff909116815260200161019f565b610332610607565b60405161019f919061188b565b6101bb61034d366004611983565b610618565b61036561036036600461185f565b6107d3565b604051901515815260200161019f565b6101bb61038336600461185f565b610802565b6101bb610396366004611a93565b61083b565b6101bb6103a9366004611ae8565b610871565b60085461018b906001600160a01b031681565b6101bb6103cf366004611b1d565b6108a6565b6101bb6103e2366004611712565b610ea5565b6103656103f5366004611842565b60056020526000908152604090205460ff1681565b6101bb610418366004611b69565b610f4f565b61043061042b366004611809565b611045565b6040805163ffffffff90931683526001600160a01b0390911660208301520161019f565b6101bb610462366004611b69565b61111f565b60015461018b906001600160a01b031681565b6101bb610488366004611842565b61120b565b61036561049b3660046117f0565b61123f565b6000546001600160a01b031633146104cb5760405163070545c960e51b815260040160405180910390fd5b828181146104ef576040516001621398b960e31b0319815260040160405180910390fd5b60005b818110156105585761055086868381811061050f5761050f611c03565b90506020020160208101906105249190611842565b85858481811061053657610536611c03565b905060200201602081019061054b9190611c19565b61124c565b6001016104f2565b505050505050565b6000546001600160a01b0316331461058b5760405163070545c960e51b815260040160405180910390fd5b6105968383836112af565b505050565b6001546001600160a01b031633146105c657604051639ba0305d60e01b815260040160405180910390fd5b6105ce61132f565b565b6000546001600160a01b031633146105fb5760405163070545c960e51b815260040160405180910390fd5b6106048161138d565b50565b606061061360026113e2565b905090565b63ffffffff8416600090815260046020908152604080832086845290915281205485918591859162ffffff9091169081900361066757604051635768ad3760e11b815260040160405180910390fd5b8162ffffff168162ffffff1611156106925760405163d9c6386f60e01b815260040160405180910390fd5b60008061069f8b8b611045565b9150915060008989896040516020016106ba93929190611c83565b60408051601f1981840301815291815281516020928301206000818152600a90935291205490915060ff16610702576040516303cb569960e01b815260040160405180910390fd5b506040516330869a1960e21b81526001600160a01b038c169063c21a68649061073790849086908c908f908f90600401611cb0565b600060405180830381600087803b15801561075157600080fd5b505af1158015610765573d6000803e3d6000fd5b50506040805162ffffff8c16815263ffffffff8e1660208201526001600160a01b03858116828401528f16606082015290518c93507f5f685b819eab82dd6870f1d9df308696ccd2a5327711e94bbd22a9da8cf0fc7592509081900360800190a25050505050505050505050565b63ffffffff8216600090815260046020908152604080832084845290915290205462ffffff1615155b92915050565b6000546001600160a01b0316331461082d5760405163070545c960e51b815260040160405180910390fd5b61083782826113ed565b5050565b6000546001600160a01b031633146108665760405163070545c960e51b815260040160405180910390fd5b610596838383611500565b6000546001600160a01b0316331461089c5760405163070545c960e51b815260040160405180910390fd5b610837828261124c565b6008546001600160a01b031633146108d15760405163ade5da5f60e01b815260040160405180910390fd5b826108dd60028261157d565b6108fa5760405163043acd3f60e31b815260040160405180910390fd5b60008481526009602090815260408083208151608081018352905462ffffff8116825263ffffffff630100000082041682850152600160381b810460060b82840152600160701b900460020b60608083019190915282516001600160f81b0319818601527307e610c722b66148d8c6b92967c99cd1ba8c7e6160621b6021820152603581018a90527fe34f199b19b2b4f47f68442619d555527d244f78a3297ea89325f843f87b8b54605580830191909152845180830390910181526075820194859052805195019490942063883bdbfd60e01b9093529390926001600160a01b0383169063883bdbfd906109f5908a908a90607901611cfd565b600060405180830381865afa158015610a12573d6000803e3d6000fd5b505050506040513d6000823e601f3d908101601f19168201604052610a3a9190810190611dbe565b5060208401519091504290600090819081908a90829063ffffffff168103610b3a5781600103610a7d57604051632335bf0960e11b815260040160405180910390fd5b610a88600183611e97565b67ffffffffffffffff811115610aa057610aa06118e0565b604051908082528060200260200182016040528015610ae557816020015b6040805180820190915260008082526020820152815260200190600190039081610abe5790505b5099508c8c6000818110610afb57610afb611c03565b9050602002016020810190610b109190611eae565b945086600081518110610b2557610b25611c03565b60200260200101519350806001019050610bb5565b8167ffffffffffffffff811115610b5357610b536118e0565b604051908082528060200260200182016040528015610b9857816020015b6040805180820190915260008082526020820152815260200190600190039081610b715790505b509950886020015186610bab9190611ecb565b9450886040015193505b60008060005b84841015610d0257868a8581518110610bd657610bd6611c03565b6020026020010151610be89190611ef0565b91508f8f85818110610bfc57610bfc611c03565b9050602002016020810190610c119190611eae565b610c1b9089611ecb565b9250610c2b600384900b83611f56565b955060008260060b128015610c4f5750610c49600384900b83611f94565b60060b15155b15610c6057610c5d86611fb6565b95505b6040518060400160405280898b610c779190611ecb565b63ffffffff1681526020018760020b8152508d8280610c9590611fd9565b935081518110610ca757610ca7611c03565b60200260200101819052508f8f85818110610cc457610cc4611c03565b9050602002016020810190610cd99190611eae565b9750898481518110610ced57610ced611c03565b60200260200101519650836001019350610bbb565b60405180608001604052808d600001516001610d1e9190611ff2565b62ffffff168152602001610d328a8c611ecb565b63ffffffff1681526020018860060b81526020018760020b8152509b505050505050505050505050806009600088815260200190815260200160002060008201518160000160006101000a81548162ffffff021916908362ffffff16021790555060208201518160000160036101000a81548163ffffffff021916908363ffffffff16021790555060408201518160000160076101000a81548166ffffffffffffff021916908360060b66ffffffffffffff160217905550606082015181600001600e6101000a81548162ffffff021916908360020b62ffffff160217905550905050600086826000015184604051602001610e3093929190611c83565b60408051601f1981840301815282825280516020918201206000818152600a909252919020805460ff19166001179055835190925088917fbbea6ef77154be715a6de74ab5aae8710da33d74e2660ead1da5e867ea50d57791610e94918790612019565b60405180910390a250505050505050565b6000546001600160a01b03163314610ed05760405163070545c960e51b815260040160405180910390fd5b82818114610ef4576040516001621398b960e31b0319815260040160405180910390fd5b60005b8181101561055857610f47868683818110610f1457610f14611c03565b9050602002016020810190610f299190611eae565b858584818110610f3b57610f3b611c03565b905060200201356113ed565b600101610ef7565b6000546001600160a01b03163314610f7a5760405163070545c960e51b815260040160405180910390fd5b848381141580610f8a5750808214155b15610fab576040516001621398b960e31b0319815260040160405180910390fd5b60005b8181101561103b57611033888883818110610fcb57610fcb611c03565b9050602002016020810190610fe09190611842565b878784818110610ff257610ff2611c03565b90506020020160208101906110079190611eae565b86868581811061101957611019611c03565b905060200201602081019061102e9190611842565b611500565b600101610fae565b5050505050505050565b6001600160a01b038216600090815260056020526040812054819060ff16611080576040516360ece74160e01b815260040160405180910390fd5b6001600160a01b038416600090815260066020908152604080832063ffffffff808816855292528220541692508290036110cd57604051630e359ccd60e21b815260040160405180910390fd5b506001600160a01b03808416600090815260076020908152604080832063ffffffff861684529091529020541680611118576040516310c3a82760e21b815260040160405180910390fd5b9250929050565b6000546001600160a01b0316331461114a5760405163070545c960e51b815260040160405180910390fd5b84838114158061115a5750808214155b1561117b576040516001621398b960e31b0319815260040160405180910390fd5b60005b8181101561103b5761120388888381811061119b5761119b611c03565b90506020020160208101906111b09190611842565b8787848181106111c2576111c2611c03565b90506020020160208101906111d79190611eae565b8686858181106111e9576111e9611c03565b90506020020160208101906111fe9190611eae565b6112af565b60010161117e565b6000546001600160a01b031633146112365760405163070545c960e51b815260040160405180910390fd5b61060481611598565b60006107fc60028361157d565b6001600160a01b038216600081815260056020908152604091829020805460ff19168515159081179091558251938452908301527f3cece36ac6216147f57b10bb30975f82b18b8b290a7925c322277e684afcce4a910160405180910390a15050565b6001600160a01b038316600081815260066020908152604080832063ffffffff87811680865291845293829020805463ffffffff191694871694851790558151948552918401919091528201527f3e24da33c22b04a64e58b32f670294d92772b3eaea87193ad4af9c79ba1b9777906060015b60405180910390a1505050565b60018054600080546001600160a01b0383166001600160a01b031991821681179092559091169091556040519081527f5d5d6e01b731c3e68060f7fe13156f6197d4aeffc2d6f498e34c717ae616b7349060200160405180910390a1565b600880546001600160a01b0319166001600160a01b0383169081179091556040519081527fe70d79dad95c835bdd87e9cf4665651c9e5abb3b756e4fd2bf45f29c95c3aa40906020015b60405180910390a150565b60606107fc8261161b565b6040516306de702f60e21b8152600481018290526000903090631b79c0bc90602401608060405180830381865afa15801561142c573d6000803e3d6000fd5b505050506040513d601f19601f82011682018060405250810190611450919061203f565b50505090508060016114629190611ff2565b63ffffffff84811660009081526004602090815260408083208784529091529020805462ffffff191662ffffff93909316929092179091556114a990600290849061167716565b50817f72a26a4be8ad6c6e855323a15bbfb771d3ec413c351d40e1df7cafd5866f6c07846114d8846001611ff2565b6040805163ffffffff909316835262ffffff90911660208301520160405180910390a2505050565b6001600160a01b03838116600081815260076020908152604080832063ffffffff88168085529083529281902080546001600160a01b03191695871695861790558051938452908301919091528101919091527f8c40b26b4f622e79dfd089e60fb1880f58fd338c7ec794035d25b79f26fbe0e990606001611322565b600081815260018301602052604081205415155b9392505050565b6001600160a01b0381166115bf5760405163d92e233d60e01b815260040160405180910390fd5b600180546001600160a01b0319166001600160a01b038381169182179092556000546040805191909316815260208101919091527f6353ec38ac394f8be94bfafcdd3580d356470599059eaeebedc3207e1cc03dec91016113d7565b60608160000180548060200260200160405190810160405280929190818152602001828054801561166b57602002820191906000526020600020905b815481526020019060010190808311611657575b50505050509050919050565b6000611591838360008181526001830160205260408120546116c5575081546001818101845560008481526020808220909301849055845484825282860190935260409020919091556107fc565b5060006107fc565b60008083601f8401126116df57600080fd5b50813567ffffffffffffffff8111156116f757600080fd5b6020830191508360208260051b850101111561111857600080fd5b6000806000806040858703121561172857600080fd5b843567ffffffffffffffff8082111561174057600080fd5b61174c888389016116cd565b9096509450602087013591508082111561176557600080fd5b50611772878288016116cd565b95989497509550505050565b6001600160a01b038116811461060457600080fd5b63ffffffff8116811461060457600080fd5b6000806000606084860312156117ba57600080fd5b83356117c58161177e565b925060208401356117d581611793565b915060408401356117e581611793565b809150509250925092565b60006020828403121561180257600080fd5b5035919050565b6000806040838503121561181c57600080fd5b82356118278161177e565b9150602083013561183781611793565b809150509250929050565b60006020828403121561185457600080fd5b81356115918161177e565b6000806040838503121561187257600080fd5b823561187d81611793565b946020939093013593505050565b6020808252825182820181905260009190848201906040850190845b818110156118c3578351835292840192918401916001016118a7565b50909695505050505050565b62ffffff8116811461060457600080fd5b634e487b7160e01b600052604160045260246000fd5b6040805190810167ffffffffffffffff81118282101715611919576119196118e0565b60405290565b604051601f8201601f1916810167ffffffffffffffff81118282101715611948576119486118e0565b604052919050565b600067ffffffffffffffff82111561196a5761196a6118e0565b5060051b60200190565b8060020b811461060457600080fd5b600080600080600060a0868803121561199b57600080fd5b85356119a68161177e565b94506020868101356119b781611793565b9450604087810135945060608801356119cf816118cf565b9350608088013567ffffffffffffffff8111156119eb57600080fd5b8801601f81018a136119fc57600080fd5b8035611a0f611a0a82611950565b61191f565b81815260069190911b8201840190848101908c831115611a2e57600080fd5b928501925b82841015611a805784848e031215611a4b5760008081fd5b611a536118f6565b8435611a5e81611793565b815284870135611a6d81611974565b8188015282529284019290850190611a33565b8096505050505050509295509295909350565b600080600060608486031215611aa857600080fd5b8335611ab38161177e565b92506020840135611ac381611793565b915060408401356117e58161177e565b80358015158114611ae357600080fd5b919050565b60008060408385031215611afb57600080fd5b8235611b068161177e565b9150611b1460208401611ad3565b90509250929050565b600080600060408486031215611b3257600080fd5b83359250602084013567ffffffffffffffff811115611b5057600080fd5b611b5c868287016116cd565b9497909650939450505050565b60008060008060008060608789031215611b8257600080fd5b863567ffffffffffffffff80821115611b9a57600080fd5b611ba68a838b016116cd565b90985096506020890135915080821115611bbf57600080fd5b611bcb8a838b016116cd565b90965094506040890135915080821115611be457600080fd5b50611bf189828a016116cd565b979a9699509497509295939492505050565b634e487b7160e01b600052603260045260246000fd5b600060208284031215611c2b57600080fd5b61159182611ad3565b600081518084526020808501945080840160005b83811015611c78578151805163ffffffff16885283015160020b8388015260409096019590820190600101611c48565b509495945050505050565b83815262ffffff83166020820152606060408201526000611ca76060830184611c34565b95945050505050565b6001600160a01b038616815263ffffffff8516602082015260a060408201819052600090611ce090830186611c34565b905083606083015262ffffff831660808301529695505050505050565b60208082528181018390526000908460408401835b86811015611d3d578235611d2581611793565b63ffffffff1682529183019190830190600101611d12565b509695505050505050565b8051600681900b8114611ae357600080fd5b600082601f830112611d6b57600080fd5b81516020611d7b611a0a83611950565b82815260059290921b84018101918181019086841115611d9a57600080fd5b8286015b84811015611d3d578051611db18161177e565b8352918301918301611d9e565b60008060408385031215611dd157600080fd5b825167ffffffffffffffff80821115611de957600080fd5b818501915085601f830112611dfd57600080fd5b81516020611e0d611a0a83611950565b82815260059290921b84018101918181019089841115611e2c57600080fd5b948201945b83861015611e5157611e4286611d48565b82529482019490820190611e31565b91880151919650909350505080821115611e6a57600080fd5b50611e7785828601611d5a565b9150509250929050565b634e487b7160e01b600052601160045260246000fd5b600082821015611ea957611ea9611e81565b500390565b600060208284031215611ec057600080fd5b813561159181611793565b600063ffffffff83811690831681811015611ee857611ee8611e81565b039392505050565b60008160060b8360060b6000811281667fffffffffffff1901831281151615611f1b57611f1b611e81565b81667fffffffffffff018313811615611f3657611f36611e81565b5090039392505050565b634e487b7160e01b600052601260045260246000fd5b60008160060b8360060b80611f6d57611f6d611f40565b667fffffffffffff19821460001982141615611f8b57611f8b611e81565b90059392505050565b60008260060b80611fa757611fa7611f40565b808360060b0791505092915050565b60008160020b627fffff198103611fcf57611fcf611e81565b6000190192915050565b600060018201611feb57611feb611e81565b5060010190565b600062ffffff80831681851680830382111561201057612010611e81565b01949350505050565b62ffffff831681526040602082015260006120376040830184611c34565b949350505050565b6000806000806080858703121561205557600080fd5b8451612060816118cf565b602086015190945061207181611793565b925061207f60408601611d48565b9150606085015161208f81611974565b93969295509093505056fea2646970667358221220f0f2807a7da600b018db5040bf8e4189960f9bc2628125cdeb0bd06d5c39953364736f6c634300080f0033",
  "devdoc": {
    "kind": "dev",
    "methods": {
      "fetchObservations(bytes32,uint32[])": {
        "details": "Permisioned, callable only by Strategy",
        "params": {
          "_poolSalt": "Identifier of the pool of the data broadcast",
          "_secondsAgos": "Set of time periods to consult the pool with"
        }
      },
      "sendObservations(address,uint32,bytes32,uint24,(uint32,int24)[])": {
        "details": "Permisionless, input parameters are validated to ensure being correct",
        "params": {
          "_bridgeSenderAdapter": "Address of the bridge adapter",
          "_chainId": "Identifier of the receiving chain",
          "_observationsData": "Array of tuples representing broadcast dataset",
          "_poolNonce": "Nonce identifier of the dataset",
          "_poolSalt": "Identifier of the pool of the data broadcast"
        }
      },
      "setPendingGovernor(address)": {
        "params": {
          "_pendingGovernor": "Address of the proposed new governor"
        }
      },
      "setStrategy(address)": {
        "details": "Permisioned, callable only by Governor",
        "params": {
          "_strategy": "Address of the new Strategy"
        }
      }
    },
    "stateVariables": {
      "lastPoolStateObserved": {
        "params": {
          "_poolSalt": "The id of both the oracle and the pool"
        },
        "returns": {
          "arithmeticMeanTick": "Last calculated twap",
          "blockTimestamp": "Last observed timestamp",
          "poolNonce": "Nonce of the last observation",
          "tickCumulative": "Pool's tickCumulative at last observed timestamp"
        }
      },
      "strategy": {
        "details": "The strategy should define when and with which timestamps the pool should be read",
        "return": "Address of the contract allowed to trigger an oracle update",
        "returns": {
          "_0": "Address of the contract allowed to trigger an oracle update"
        }
      }
    },
    "title": "The DataFeed interface",
    "version": 1
  },
  "userdoc": {
    "errors": {
      "InvalidSecondsAgos()": [
        {
          "notice": "Throws if set of secondsAgos is invalid to update the oracle"
        }
      ],
      "OnlyGovernor()": [
        {
          "notice": "Throws if a non-governor user tries to call a OnlyGovernor function"
        }
      ],
      "OnlyPendingGovernor()": [
        {
          "notice": "Throws if a non-pending-governor user tries to call a OnlyPendingGovernor function"
        }
      ],
      "OnlyStrategy()": [
        {
          "notice": "Throws if a contract other than Strategy calls an update"
        }
      ],
      "UnknownHash()": [
        {
          "notice": "Throws if an unknown dataset is being broadcast"
        }
      ],
      "ZeroAddress()": [
        {
          "notice": "Throws if a variable is assigned to the zero address"
        }
      ]
    },
    "events": {
      "DataBroadcast(bytes32,uint24,uint32,address,address)": {
        "notice": "Emitted when a data batch is broadcast"
      },
      "PendingGovernorAccepted(address)": {
        "notice": "Emitted when a new governor is set"
      },
      "PendingGovernorSet(address,address)": {
        "notice": "Emitted when a new pending governor is set"
      },
      "PoolObserved(bytes32,uint24,(uint32,int24)[])": {
        "notice": "Emitted when a data batch is observed"
      },
      "StrategySet(address)": {
        "notice": "Emitted when the Strategy contract is set"
      }
    },
    "kind": "user",
    "methods": {
      "acceptPendingGovernor()": {
        "notice": "Allows a proposed governor to accept the governance"
      },
      "fetchObservations(bytes32,uint32[])": {
        "notice": "Triggers an update of the oracle state"
      },
      "lastPoolStateObserved(bytes32)": {
        "notice": "Tracks the last observed pool state by salt"
      },
      "sendObservations(address,uint32,bytes32,uint24,(uint32,int24)[])": {
        "notice": "Broadcasts a validated set of datapoints to a bridge adapter"
      },
      "setPendingGovernor(address)": {
        "notice": "Allows a governor to propose a new governor"
      },
      "setStrategy(address)": {
        "notice": "Updates the Strategy address"
      }
    },
    "notice": "Queries UniV3Pools, stores history proofs on chain, handles data broadcast",
    "version": 1
  },
  "storageLayout": {
    "storage": [
      {
        "astId": 15791,
        "contract": "solidity/contracts/DataFeed.sol:DataFeed",
        "label": "governor",
        "offset": 0,
        "slot": "0",
        "type": "t_address"
      },
      {
        "astId": 15794,
        "contract": "solidity/contracts/DataFeed.sol:DataFeed",
        "label": "pendingGovernor",
        "offset": 0,
        "slot": "1",
        "type": "t_address"
      },
      {
        "astId": 16007,
        "contract": "solidity/contracts/DataFeed.sol:DataFeed",
        "label": "_whitelistedPools",
        "offset": 0,
        "slot": "2",
        "type": "t_struct(Bytes32Set)10743_storage"
      },
      {
        "astId": 16014,
        "contract": "solidity/contracts/DataFeed.sol:DataFeed",
        "label": "whitelistedNonces",
        "offset": 0,
        "slot": "4",
        "type": "t_mapping(t_uint32,t_mapping(t_bytes32,t_uint24))"
      },
      {
        "astId": 16020,
        "contract": "solidity/contracts/DataFeed.sol:DataFeed",
        "label": "whitelistedAdapters",
        "offset": 0,
        "slot": "5",
        "type": "t_mapping(t_contract(IBridgeSenderAdapter)17778,t_bool)"
      },
      {
        "astId": 16028,
        "contract": "solidity/contracts/DataFeed.sol:DataFeed",
        "label": "destinationDomainIds",
        "offset": 0,
        "slot": "6",
        "type": "t_mapping(t_contract(IBridgeSenderAdapter)17778,t_mapping(t_uint32,t_uint32))"
      },
      {
        "astId": 16036,
        "contract": "solidity/contracts/DataFeed.sol:DataFeed",
        "label": "receivers",
        "offset": 0,
        "slot": "7",
        "type": "t_mapping(t_contract(IBridgeSenderAdapter)17778,t_mapping(t_uint32,t_address))"
      },
      {
        "astId": 13166,
        "contract": "solidity/contracts/DataFeed.sol:DataFeed",
        "label": "strategy",
        "offset": 0,
        "slot": "8",
        "type": "t_contract(IDataFeedStrategy)17234"
      },
      {
        "astId": 13172,
        "contract": "solidity/contracts/DataFeed.sol:DataFeed",
        "label": "lastPoolStateObserved",
        "offset": 0,
        "slot": "9",
        "type": "t_mapping(t_bytes32,t_struct(PoolState)16976_storage)"
      },
      {
        "astId": 13176,
        "contract": "solidity/contracts/DataFeed.sol:DataFeed",
        "label": "_observedKeccak",
        "offset": 0,
        "slot": "10",
        "type": "t_mapping(t_bytes32,t_bool)"
      }
    ],
    "types": {
      "t_address": {
        "encoding": "inplace",
        "label": "address",
        "numberOfBytes": "20"
      },
      "t_array(t_bytes32)dyn_storage": {
        "base": "t_bytes32",
        "encoding": "dynamic_array",
        "label": "bytes32[]",
        "numberOfBytes": "32"
      },
      "t_bool": {
        "encoding": "inplace",
        "label": "bool",
        "numberOfBytes": "1"
      },
      "t_bytes32": {
        "encoding": "inplace",
        "label": "bytes32",
        "numberOfBytes": "32"
      },
      "t_contract(IBridgeSenderAdapter)17778": {
        "encoding": "inplace",
        "label": "contract IBridgeSenderAdapter",
        "numberOfBytes": "20"
      },
      "t_contract(IDataFeedStrategy)17234": {
        "encoding": "inplace",
        "label": "contract IDataFeedStrategy",
        "numberOfBytes": "20"
      },
      "t_int24": {
        "encoding": "inplace",
        "label": "int24",
        "numberOfBytes": "3"
      },
      "t_int56": {
        "encoding": "inplace",
        "label": "int56",
        "numberOfBytes": "7"
      },
      "t_mapping(t_bytes32,t_bool)": {
        "encoding": "mapping",
        "key": "t_bytes32",
        "label": "mapping(bytes32 => bool)",
        "numberOfBytes": "32",
        "value": "t_bool"
      },
      "t_mapping(t_bytes32,t_struct(PoolState)16976_storage)": {
        "encoding": "mapping",
        "key": "t_bytes32",
        "label": "mapping(bytes32 => struct IDataFeed.PoolState)",
        "numberOfBytes": "32",
        "value": "t_struct(PoolState)16976_storage"
      },
      "t_mapping(t_bytes32,t_uint24)": {
        "encoding": "mapping",
        "key": "t_bytes32",
        "label": "mapping(bytes32 => uint24)",
        "numberOfBytes": "32",
        "value": "t_uint24"
      },
      "t_mapping(t_bytes32,t_uint256)": {
        "encoding": "mapping",
        "key": "t_bytes32",
        "label": "mapping(bytes32 => uint256)",
        "numberOfBytes": "32",
        "value": "t_uint256"
      },
      "t_mapping(t_contract(IBridgeSenderAdapter)17778,t_bool)": {
        "encoding": "mapping",
        "key": "t_contract(IBridgeSenderAdapter)17778",
        "label": "mapping(contract IBridgeSenderAdapter => bool)",
        "numberOfBytes": "32",
        "value": "t_bool"
      },
      "t_mapping(t_contract(IBridgeSenderAdapter)17778,t_mapping(t_uint32,t_address))": {
        "encoding": "mapping",
        "key": "t_contract(IBridgeSenderAdapter)17778",
        "label": "mapping(contract IBridgeSenderAdapter => mapping(uint32 => address))",
        "numberOfBytes": "32",
        "value": "t_mapping(t_uint32,t_address)"
      },
      "t_mapping(t_contract(IBridgeSenderAdapter)17778,t_mapping(t_uint32,t_uint32))": {
        "encoding": "mapping",
        "key": "t_contract(IBridgeSenderAdapter)17778",
        "label": "mapping(contract IBridgeSenderAdapter => mapping(uint32 => uint32))",
        "numberOfBytes": "32",
        "value": "t_mapping(t_uint32,t_uint32)"
      },
      "t_mapping(t_uint32,t_address)": {
        "encoding": "mapping",
        "key": "t_uint32",
        "label": "mapping(uint32 => address)",
        "numberOfBytes": "32",
        "value": "t_address"
      },
      "t_mapping(t_uint32,t_mapping(t_bytes32,t_uint24))": {
        "encoding": "mapping",
        "key": "t_uint32",
        "label": "mapping(uint32 => mapping(bytes32 => uint24))",
        "numberOfBytes": "32",
        "value": "t_mapping(t_bytes32,t_uint24)"
      },
      "t_mapping(t_uint32,t_uint32)": {
        "encoding": "mapping",
        "key": "t_uint32",
        "label": "mapping(uint32 => uint32)",
        "numberOfBytes": "32",
        "value": "t_uint32"
      },
      "t_struct(Bytes32Set)10743_storage": {
        "encoding": "inplace",
        "label": "struct EnumerableSet.Bytes32Set",
        "members": [
          {
            "astId": 10742,
            "contract": "solidity/contracts/DataFeed.sol:DataFeed",
            "label": "_inner",
            "offset": 0,
            "slot": "0",
            "type": "t_struct(Set)10549_storage"
          }
        ],
        "numberOfBytes": "64"
      },
      "t_struct(PoolState)16976_storage": {
        "encoding": "inplace",
        "label": "struct IDataFeed.PoolState",
        "members": [
          {
            "astId": 16969,
            "contract": "solidity/contracts/DataFeed.sol:DataFeed",
            "label": "poolNonce",
            "offset": 0,
            "slot": "0",
            "type": "t_uint24"
          },
          {
            "astId": 16971,
            "contract": "solidity/contracts/DataFeed.sol:DataFeed",
            "label": "blockTimestamp",
            "offset": 3,
            "slot": "0",
            "type": "t_uint32"
          },
          {
            "astId": 16973,
            "contract": "solidity/contracts/DataFeed.sol:DataFeed",
            "label": "tickCumulative",
            "offset": 7,
            "slot": "0",
            "type": "t_int56"
          },
          {
            "astId": 16975,
            "contract": "solidity/contracts/DataFeed.sol:DataFeed",
            "label": "arithmeticMeanTick",
            "offset": 14,
            "slot": "0",
            "type": "t_int24"
          }
        ],
        "numberOfBytes": "32"
      },
      "t_struct(Set)10549_storage": {
        "encoding": "inplace",
        "label": "struct EnumerableSet.Set",
        "members": [
          {
            "astId": 10544,
            "contract": "solidity/contracts/DataFeed.sol:DataFeed",
            "label": "_values",
            "offset": 0,
            "slot": "0",
            "type": "t_array(t_bytes32)dyn_storage"
          },
          {
            "astId": 10548,
            "contract": "solidity/contracts/DataFeed.sol:DataFeed",
            "label": "_indexes",
            "offset": 0,
            "slot": "1",
            "type": "t_mapping(t_bytes32,t_uint256)"
          }
        ],
        "numberOfBytes": "64"
      },
      "t_uint24": {
        "encoding": "inplace",
        "label": "uint24",
        "numberOfBytes": "3"
      },
      "t_uint256": {
        "encoding": "inplace",
        "label": "uint256",
        "numberOfBytes": "32"
      },
      "t_uint32": {
        "encoding": "inplace",
        "label": "uint32",
        "numberOfBytes": "4"
      }
    }
  }
}