{
  "address": "0xD5b62b8652EE922Ef6AF32C75f5E218D689F0B72",
  "abi": [
    {
      "inputs": [
        {
          "internalType": "contract IDataReceiver",
          "name": "_dataReceiver",
          "type": "address"
        },
        {
          "internalType": "address",
          "name": "_dao",
          "type": "address"
        },
        {
          "internalType": "uint32",
          "name": "_origin",
          "type": "uint32"
        },
        {
          "internalType": "address",
          "name": "_connext",
          "type": "address"
        }
      ],
      "stateMutability": "nonpayable",
      "type": "constructor"
    },
    {
      "inputs": [],
      "name": "UnauthorizedCaller",
      "type": "error"
    },
    {
      "anonymous": false,
      "inputs": [
        {
          "components": [
            {
              "internalType": "uint32",
              "name": "blockTimestamp",
              "type": "uint32"
            },
            {
              "internalType": "int24",
              "name": "tick",
              "type": "int24"
            }
          ],
          "indexed": false,
          "internalType": "struct IOracleSidechain.ObservationData[]",
          "name": "_observationsData",
          "type": "tuple[]"
        },
        {
          "indexed": false,
          "internalType": "bytes32",
          "name": "_poolSalt",
          "type": "bytes32"
        }
      ],
      "name": "DataSent",
      "type": "event"
    },
    {
      "inputs": [],
      "name": "connext",
      "outputs": [
        {
          "internalType": "address",
          "name": "",
          "type": "address"
        }
      ],
      "stateMutability": "view",
      "type": "function"
    },
    {
      "inputs": [],
      "name": "dao",
      "outputs": [
        {
          "internalType": "address",
          "name": "",
          "type": "address"
        }
      ],
      "stateMutability": "view",
      "type": "function"
    },
    {
      "inputs": [],
      "name": "dataReceiver",
      "outputs": [
        {
          "internalType": "contract IDataReceiver",
          "name": "",
          "type": "address"
        }
      ],
      "stateMutability": "view",
      "type": "function"
    },
    {
      "inputs": [],
      "name": "origin",
      "outputs": [
        {
          "internalType": "uint32",
          "name": "",
          "type": "uint32"
        }
      ],
      "stateMutability": "view",
      "type": "function"
    },
    {
      "inputs": [
        {
          "internalType": "bytes32",
          "name": "_transferId",
          "type": "bytes32"
        },
        {
          "internalType": "uint256",
          "name": "_amount",
          "type": "uint256"
        },
        {
          "internalType": "address",
          "name": "_asset",
          "type": "address"
        },
        {
          "internalType": "address",
          "name": "_originSender",
          "type": "address"
        },
        {
          "internalType": "uint32",
          "name": "_origin",
          "type": "uint32"
        },
        {
          "internalType": "bytes",
          "name": "_callData",
          "type": "bytes"
        }
      ],
      "name": "xReceive",
      "outputs": [
        {
          "internalType": "bytes",
          "name": "",
          "type": "bytes"
        }
      ],
      "stateMutability": "nonpayable",
      "type": "function"
    }
  ],
  "transactionHash": "0x97a849f12f12109cb429c2049bc4437a8b14e210e2bfb0a4b626c2f8c4915c00",
  "args": [
    "0x0258eFbFC9B7cE9E4DD5CBc4a09EFd52699f3F06",
    "0x24707164c7E0a7974041c759F8D531cEe78A86C6",
    3331,
    "0x6F9F801CeE214Cf6dCf216Cc0FFEC3D908f15A12"
  ],
  "numDeployments": 1,
  "solcInputHash": "4a314a55a0c547808cc40f9921cdbcf5",
  "bytecode": "0x60e060405234801561001057600080fd5b506040516107f63803806107f683398101604081905261002f9161007e565b6001600160a01b0393841660805291831660c05263ffffffff1660a052600080546001600160a01b031916919092161790556100e6565b6001600160a01b038116811461007b57600080fd5b50565b6000806000806080858703121561009457600080fd5b845161009f81610066565b60208601519094506100b081610066565b604086015190935063ffffffff811681146100ca57600080fd5b60608601519092506100db81610066565b939692955090935050565b60805160a05160c0516106cf610127600039600081816061015261015401526000818160a5015261019101526000818160f4015261026901526106cf6000f3fe608060405234801561001057600080fd5b50600436106100575760003560e01c80634162169f1461005c578063938b5f32146100a0578063de4b0548146100dc578063e8047788146100ef578063fd614f4114610116575b600080fd5b6100837f000000000000000000000000000000000000000000000000000000000000000081565b6040516001600160a01b0390911681526020015b60405180910390f35b6100c77f000000000000000000000000000000000000000000000000000000000000000081565b60405163ffffffff9091168152602001610097565b600054610083906001600160a01b031681565b6100837f000000000000000000000000000000000000000000000000000000000000000081565b6101296101243660046103b3565b610136565b604051610097919061048e565b600054606090849084906001600160a01b03163314158061018957507f00000000000000000000000000000000000000000000000000000000000000006001600160a01b0316826001600160a01b031614155b806101c057507f000000000000000000000000000000000000000000000000000000000000000063ffffffff168163ffffffff1614155b156101de57604051635c427cd960e01b815260040160405180910390fd5b6000806000868060200190518101906101f791906104f6565b925092509250610208838383610252565b6040516020016102329060208082526006908201526572616e646f6d60d01b604082015260600190565b604051602081830303815290604052955050505050509695505050505050565b60405163d34ad40960e01b81526001600160a01b037f0000000000000000000000000000000000000000000000000000000000000000169063d34ad409906102a290869086908690600401610649565b600060405180830381600087803b1580156102bc57600080fd5b505af11580156102d0573d6000803e3d6000fd5b505050507fc04b786bc493bbc02eb30560b488bedd65e6b331239e8effe92ea7e915c2e3b28383604051610305929190610677565b60405180910390a1505050565b80356001600160a01b038116811461032957600080fd5b919050565b63ffffffff8116811461034057600080fd5b50565b634e487b7160e01b600052604160045260246000fd5b6040805190810167ffffffffffffffff8111828210171561037c5761037c610343565b60405290565b604051601f8201601f1916810167ffffffffffffffff811182821017156103ab576103ab610343565b604052919050565b60008060008060008060c087890312156103cc57600080fd5b8635955060208088013595506103e460408901610312565b94506103f260608901610312565b935060808801356104028161032e565b925060a088013567ffffffffffffffff8082111561041f57600080fd5b818a0191508a601f83011261043357600080fd5b81358181111561044557610445610343565b610457601f8201601f19168501610382565b91508082528b8482850101111561046d57600080fd5b80848401858401376000848284010152508093505050509295509295509295565b600060208083528351808285015260005b818110156104bb5785810183015185820160400152820161049f565b818111156104cd576000604083870101525b50601f01601f1916929092016040019392505050565b805162ffffff8116811461032957600080fd5b60008060006060848603121561050b57600080fd5b835167ffffffffffffffff8082111561052357600080fd5b818601915086601f83011261053757600080fd5b815160208282111561054b5761054b610343565b610559818360051b01610382565b828152818101935060069290921b84018101918983111561057957600080fd5b938101935b828510156105d7576040858b0312156105975760008081fd5b61059f610359565b85516105aa8161032e565b815285830151600281900b81146105c15760008081fd5b818401528452604094909401939281019261057e565b80975050808801519550505050506105f1604085016104e3565b90509250925092565b600081518084526020808501945080840160005b8381101561063e578151805163ffffffff16885283015160020b838801526040909601959082019060010161060e565b509495945050505050565b60608152600061065c60608301866105fa565b905083602083015262ffffff83166040830152949350505050565b60408152600061068a60408301856105fa565b9050826020830152939250505056fea2646970667358221220178b2c77574ab569982037017a7ecf2867b7f50c96e34e336a91a755374e319764736f6c634300080f0033",
  "devdoc": {
    "kind": "dev",
    "methods": {},
    "version": 1
  },
  "userdoc": {
    "kind": "user",
    "methods": {},
    "version": 1
  },
  "storageLayout": {
    "storage": [
      {
        "astId": 37,
        "contract": "solidity/contracts/bridges/ConnextReceiverAdapter.sol:ConnextReceiverAdapter",
        "label": "connext",
        "offset": 0,
        "slot": "0",
        "type": "t_address"
      }
    ],
    "types": {
      "t_address": {
        "encoding": "inplace",
        "label": "address",
        "numberOfBytes": "20"
      }
    }
  }
}