{
  "address": "0x04C62f0bB6EBd7283b0237abDeb200B2b0f1464d",
  "abi": [
    {
      "inputs": [
        {
          "internalType": "address",
          "name": "_governor",
          "type": "address"
        },
        {
          "internalType": "contract IOracleFactory",
          "name": "_oracleFactory",
          "type": "address"
        }
      ],
      "stateMutability": "nonpayable",
      "type": "constructor"
    },
    {
      "inputs": [],
      "name": "LengthMismatch",
      "type": "error"
    },
    {
      "inputs": [],
      "name": "ObservationsNotWritable",
      "type": "error"
    },
    {
      "inputs": [],
      "name": "OnlyGovernor",
      "type": "error"
    },
    {
      "inputs": [],
      "name": "OnlyPendingGovernor",
      "type": "error"
    },
    {
      "inputs": [],
      "name": "UnallowedAdapter",
      "type": "error"
    },
    {
      "inputs": [],
      "name": "ZeroAddress",
      "type": "error"
    },
    {
      "anonymous": false,
      "inputs": [
        {
          "indexed": false,
          "internalType": "contract IBridgeReceiverAdapter",
          "name": "_adapter",
          "type": "address"
        },
        {
          "indexed": false,
          "internalType": "bool",
          "name": "_isAllowed",
          "type": "bool"
        }
      ],
      "name": "AdapterWhitelisted",
      "type": "event"
    },
    {
      "anonymous": false,
      "inputs": [
        {
          "indexed": false,
          "internalType": "address",
          "name": "_user",
          "type": "address"
        },
        {
          "components": [
            {
              "internalType": "uint32",
              "name": "blockTimestamp",
              "type": "uint32"
            },
            {
              "internalType": "int24",
              "name": "tick",
              "type": "int24"
            }
          ],
          "indexed": false,
          "internalType": "struct IOracleSidechain.ObservationData[]",
          "name": "_observationsData",
          "type": "tuple[]"
        }
      ],
      "name": "ObservationsAdded",
      "type": "event"
    },
    {
      "anonymous": false,
      "inputs": [
        {
          "indexed": false,
          "internalType": "address",
          "name": "_newGovernor",
          "type": "address"
        }
      ],
      "name": "PendingGovernorAccepted",
      "type": "event"
    },
    {
      "anonymous": false,
      "inputs": [
        {
          "indexed": false,
          "internalType": "address",
          "name": "_governor",
          "type": "address"
        },
        {
          "indexed": false,
          "internalType": "address",
          "name": "_pendingGovernor",
          "type": "address"
        }
      ],
      "name": "PendingGovernorSet",
      "type": "event"
    },
    {
      "inputs": [],
      "name": "ORACLE_INIT_CODE_HASH",
      "outputs": [
        {
          "internalType": "bytes32",
          "name": "",
          "type": "bytes32"
        }
      ],
      "stateMutability": "view",
      "type": "function"
    },
    {
      "inputs": [],
      "name": "acceptPendingGovernor",
      "outputs": [],
      "stateMutability": "nonpayable",
      "type": "function"
    },
    {
      "inputs": [
        {
          "components": [
            {
              "internalType": "uint32",
              "name": "blockTimestamp",
              "type": "uint32"
            },
            {
              "internalType": "int24",
              "name": "tick",
              "type": "int24"
            }
          ],
          "internalType": "struct IOracleSidechain.ObservationData[]",
          "name": "_observationsData",
          "type": "tuple[]"
        },
        {
          "internalType": "bytes32",
          "name": "_poolSalt",
          "type": "bytes32"
        },
        {
          "internalType": "uint24",
          "name": "_poolNonce",
          "type": "uint24"
        }
      ],
      "name": "addObservations",
      "outputs": [],
      "stateMutability": "nonpayable",
      "type": "function"
    },
    {
      "inputs": [],
      "name": "governor",
      "outputs": [
        {
          "internalType": "address",
          "name": "",
          "type": "address"
        }
      ],
      "stateMutability": "view",
      "type": "function"
    },
    {
      "inputs": [],
      "name": "oracleFactory",
      "outputs": [
        {
          "internalType": "contract IOracleFactory",
          "name": "",
          "type": "address"
        }
      ],
      "stateMutability": "view",
      "type": "function"
    },
    {
      "inputs": [],
      "name": "pendingGovernor",
      "outputs": [
        {
          "internalType": "address",
          "name": "",
          "type": "address"
        }
      ],
      "stateMutability": "view",
      "type": "function"
    },
    {
      "inputs": [
        {
          "internalType": "address",
          "name": "_pendingGovernor",
          "type": "address"
        }
      ],
      "name": "setPendingGovernor",
      "outputs": [],
      "stateMutability": "nonpayable",
      "type": "function"
    },
    {
      "inputs": [
        {
          "internalType": "contract IBridgeReceiverAdapter",
          "name": "_receiverAdapter",
          "type": "address"
        },
        {
          "internalType": "bool",
          "name": "_isWhitelisted",
          "type": "bool"
        }
      ],
      "name": "whitelistAdapter",
      "outputs": [],
      "stateMutability": "nonpayable",
      "type": "function"
    },
    {
      "inputs": [
        {
          "internalType": "contract IBridgeReceiverAdapter[]",
          "name": "_receiverAdapters",
          "type": "address[]"
        },
        {
          "internalType": "bool[]",
          "name": "_isWhitelisted",
          "type": "bool[]"
        }
      ],
      "name": "whitelistAdapters",
      "outputs": [],
      "stateMutability": "nonpayable",
      "type": "function"
    },
    {
      "inputs": [
        {
          "internalType": "contract IBridgeReceiverAdapter",
          "name": "",
          "type": "address"
        }
      ],
      "name": "whitelistedAdapters",
      "outputs": [
        {
          "internalType": "bool",
          "name": "",
          "type": "bool"
        }
      ],
      "stateMutability": "view",
      "type": "function"
    }
  ],
  "transactionHash": "0x2dddd687fd8dd053937df969ce39a5d07173c89cb0ba5e52ad315315986030a5",
  "args": [
    "0x57B067e4E27558FE2c60fCE86941011cB5F5A4FD",
    "0x83d6E498cE26D7E95f9ff17d0dd929a53fC20cDc"
  ],
  "numDeployments": 1,
  "solcInputHash": "7802bf93316ff44d1d051ed37063e5d2",
  "bytecode": "0x608060405234801561001057600080fd5b50604051610ac9380380610ac983398101604081905261002f916100a4565b816001600160a01b0381166100575760405163d92e233d60e01b815260040160405180910390fd5b600080546001600160a01b039283166001600160a01b03199182161790915560028054939092169216919091179055506100de565b6001600160a01b03811681146100a157600080fd5b50565b600080604083850312156100b757600080fd5b82516100c28161008c565b60208401519092506100d38161008c565b809150509250929050565b6109dc806100ed6000396000f3fe608060405234801561001057600080fd5b506004361061009e5760003560e01c8063b893cce211610066578063b893cce214610138578063c7f7fb901461016b578063d34ad4091461017e578063e3056a3414610191578063f235757f146101a457600080fd5b80630c340a24146100a35780630ddb5dd2146100d357806313f6986d146100e857806391a0b979146100f0578063954e863e14610125575b600080fd5b6000546100b6906001600160a01b031681565b6040516001600160a01b0390911681526020015b60405180910390f35b6100e66100e13660046106f8565b6101b7565b005b6100e6610277565b6101177f0fe972a6017390d56e73ca70df8e3865b17f00bc279fe9826cd6e44d3e9daa2c81565b6040519081526020016100ca565b6100e6610133366004610787565b6102ac565b61015b6101463660046107c0565b60036020526000908152604090205460ff1681565b60405190151581526020016100ca565b6002546100b6906001600160a01b031681565b6100e661018c3660046107e4565b6102e5565b6001546100b6906001600160a01b031681565b6100e66101b23660046107c0565b610327565b6000546001600160a01b031633146101e25760405163070545c960e51b815260040160405180910390fd5b82818114610206576040516001621398b960e31b0319815260040160405180910390fd5b60005b8181101561026f576102678686838181106102265761022661087a565b905060200201602081019061023b91906107c0565b85858481811061024d5761024d61087a565b90506020020160208101906102629190610890565b61035e565b600101610209565b505050505050565b6001546001600160a01b031633146102a257604051639ba0305d60e01b815260040160405180910390fd5b6102aa6103c1565b565b6000546001600160a01b031633146102d75760405163070545c960e51b815260040160405180910390fd5b6102e1828261035e565b5050565b3360009081526003602052604090205460ff16610315576040516360ece74160e01b815260040160405180910390fd5b6103218484848461041f565b50505050565b6000546001600160a01b031633146103525760405163070545c960e51b815260040160405180910390fd5b61035b81610552565b50565b6001600160a01b038216600081815260036020908152604091829020805460ff19168515159081179091558251938452908301527f3cece36ac6216147f57b10bb30975f82b18b8b290a7925c322277e684afcce4a910160405180910390a15050565b60018054600080546001600160a01b0383166001600160a01b031991821681179092559091169091556040519081527f5d5d6e01b731c3e68060f7fe13156f6197d4aeffc2d6f498e34c717ae616b7349060200160405180910390a1565b600254604080516001600160f81b031960208083019190915260609390931b6bffffffffffffffffffffffff19166021820152603581018590527f0fe972a6017390d56e73ca70df8e3865b17f00bc279fe9826cd6e44d3e9daa2c60558083019190915282518083039091018152607590910190915280519101206001600160a01b0381163b158015906104c0576104b9828787866105db565b5050610321565b600254604051632e60fe9b60e11b81526004810186905262ffffff851660248201526000916001600160a01b031690635cc1fd36906044016020604051808303816000875af1158015610517573d6000803e3d6000fd5b505050506040513d601f19601f8201168201806040525081019061053b91906108ad565b9050610549818888876105db565b50505050505050565b6001600160a01b0381166105795760405163d92e233d60e01b815260040160405180910390fd5b600180546001600160a01b0319166001600160a01b038381169182179092556000546040805191909316815260208101919091527f6353ec38ac394f8be94bfafcdd3580d356470599059eaeebedc3207e1cc03dec910160405180910390a150565b6040516308f944b560e21b81526001600160a01b038516906323e512d49061060b90869086908690600401610932565b6020604051808303816000875af115801561062a573d6000803e3d6000fd5b505050506040513d601f19601f8201168201806040525081019061064e919061095b565b15610693577f617afa62635b4d3e0901427201c347a24650276db5c920f7347d6d969bf2567433848460405161068693929190610978565b60405180910390a1610321565b604051630a96dcbd60e11b815260040160405180910390fd5b60008083601f8401126106be57600080fd5b50813567ffffffffffffffff8111156106d657600080fd5b6020830191508360208260051b85010111156106f157600080fd5b9250929050565b6000806000806040858703121561070e57600080fd5b843567ffffffffffffffff8082111561072657600080fd5b610732888389016106ac565b9096509450602087013591508082111561074b57600080fd5b50610758878288016106ac565b95989497509550505050565b6001600160a01b038116811461035b57600080fd5b801515811461035b57600080fd5b6000806040838503121561079a57600080fd5b82356107a581610764565b915060208301356107b581610779565b809150509250929050565b6000602082840312156107d257600080fd5b81356107dd81610764565b9392505050565b600080600080606085870312156107fa57600080fd5b843567ffffffffffffffff8082111561081257600080fd5b818701915087601f83011261082657600080fd5b81358181111561083557600080fd5b8860208260061b850101111561084a57600080fd5b602092830196509450508501359150604085013562ffffff8116811461086f57600080fd5b939692955090935050565b634e487b7160e01b600052603260045260246000fd5b6000602082840312156108a257600080fd5b81356107dd81610779565b6000602082840312156108bf57600080fd5b81516107dd81610764565b8183526000602080850194508260005b8581101561092757813563ffffffff81168082146108f757600080fd5b88525081830135600281900b80821461090f57600080fd5b888501525060409687019691909101906001016108da565b509495945050505050565b6040815260006109466040830185876108ca565b905062ffffff83166020830152949350505050565b60006020828403121561096d57600080fd5b81516107dd81610779565b6001600160a01b038416815260406020820181905260009061099d90830184866108ca565b9594505050505056fea2646970667358221220e1b02df54751552aa1d8fb4f7ede0cfd70f58f3af53a542da10fed80f220e87764736f6c634300080f0033",
  "devdoc": {
    "kind": "dev",
    "methods": {
      "setPendingGovernor(address)": {
        "params": {
          "_pendingGovernor": "Address of the proposed new governor"
        }
      }
    },
    "version": 1
  },
  "userdoc": {
    "errors": {
      "OnlyGovernor()": [
        {
          "notice": "Throws if a non-governor user tries to call a OnlyGovernor function"
        }
      ],
      "OnlyPendingGovernor()": [
        {
          "notice": "Throws if a non-pending-governor user tries to call a OnlyPendingGovernor function"
        }
      ],
      "ZeroAddress()": [
        {
          "notice": "Throws if a variable is assigned to the zero address"
        }
      ]
    },
    "events": {
      "PendingGovernorAccepted(address)": {
        "notice": "Emitted when a new governor is set"
      },
      "PendingGovernorSet(address,address)": {
        "notice": "Emitted when a new pending governor is set"
      }
    },
    "kind": "user",
    "methods": {
      "acceptPendingGovernor()": {
        "notice": "Allows a proposed governor to accept the governance"
      },
      "setPendingGovernor(address)": {
        "notice": "Allows a governor to propose a new governor"
      }
    },
    "version": 1
  },
  "storageLayout": {
    "storage": [
      {
        "astId": 21877,
        "contract": "solidity/contracts/DataReceiver.sol:DataReceiver",
        "label": "governor",
        "offset": 0,
        "slot": "0",
        "type": "t_address"
      },
      {
        "astId": 21880,
        "contract": "solidity/contracts/DataReceiver.sol:DataReceiver",
        "label": "pendingGovernor",
        "offset": 0,
        "slot": "1",
        "type": "t_address"
      },
      {
        "astId": 20794,
        "contract": "solidity/contracts/DataReceiver.sol:DataReceiver",
        "label": "oracleFactory",
        "offset": 0,
        "slot": "2",
        "type": "t_contract(IOracleFactory)23637"
      },
      {
        "astId": 20803,
        "contract": "solidity/contracts/DataReceiver.sol:DataReceiver",
        "label": "whitelistedAdapters",
        "offset": 0,
        "slot": "3",
        "type": "t_mapping(t_contract(IBridgeReceiverAdapter)23783,t_bool)"
      }
    ],
    "types": {
      "t_address": {
        "encoding": "inplace",
        "label": "address",
        "numberOfBytes": "20"
      },
      "t_bool": {
        "encoding": "inplace",
        "label": "bool",
        "numberOfBytes": "1"
      },
      "t_contract(IBridgeReceiverAdapter)23783": {
        "encoding": "inplace",
        "label": "contract IBridgeReceiverAdapter",
        "numberOfBytes": "20"
      },
      "t_contract(IOracleFactory)23637": {
        "encoding": "inplace",
        "label": "contract IOracleFactory",
        "numberOfBytes": "20"
      },
      "t_mapping(t_contract(IBridgeReceiverAdapter)23783,t_bool)": {
        "encoding": "mapping",
        "key": "t_contract(IBridgeReceiverAdapter)23783",
        "label": "mapping(contract IBridgeReceiverAdapter => bool)",
        "numberOfBytes": "32",
        "value": "t_bool"
      }
    }
  }
}