{
  "address": "0x9A705f806ab576078d9b979F32c2FB61d6A18d8B",
  "abi": [
    {
      "inputs": [],
      "stateMutability": "nonpayable",
      "type": "constructor"
    },
    {
      "anonymous": false,
      "inputs": [
        {
          "indexed": false,
          "internalType": "bytes32",
          "name": "",
          "type": "bytes32"
        }
      ],
      "name": "Create2Hash",
      "type": "event"
    },
    {
      "anonymous": false,
      "inputs": [
        {
          "indexed": false,
          "internalType": "contract IDataReceiver",
          "name": "",
          "type": "address"
        },
        {
          "components": [
            {
              "internalType": "uint32",
              "name": "blockTimestamp",
              "type": "uint32"
            },
            {
              "internalType": "int24",
              "name": "tick",
              "type": "int24"
            }
          ],
          "indexed": false,
          "internalType": "struct IOracleSidechain.ObservationData[]",
          "name": "",
          "type": "tuple[]"
        }
      ],
      "name": "SentData",
      "type": "event"
    },
    {
      "inputs": [
        {
          "internalType": "contract IDataReceiver",
          "name": "_to",
          "type": "address"
        },
        {
          "internalType": "uint32",
          "name": "",
          "type": "uint32"
        },
        {
          "components": [
            {
              "internalType": "uint32",
              "name": "blockTimestamp",
              "type": "uint32"
            },
            {
              "internalType": "int24",
              "name": "tick",
              "type": "int24"
            }
          ],
          "internalType": "struct IOracleSidechain.ObservationData[]",
          "name": "_observationsData",
          "type": "tuple[]"
        },
        {
          "internalType": "bytes32",
          "name": "_poolSalt",
          "type": "bytes32"
        },
        {
          "internalType": "uint24",
          "name": "_poolNonce",
          "type": "uint24"
        }
      ],
      "name": "bridgeObservations",
      "outputs": [],
      "stateMutability": "payable",
      "type": "function"
    },
    {
      "inputs": [],
      "name": "ignoreTxs",
      "outputs": [
        {
          "internalType": "bool",
          "name": "",
          "type": "bool"
        }
      ],
      "stateMutability": "view",
      "type": "function"
    },
    {
      "inputs": [
        {
          "internalType": "bool",
          "name": "_ignoreTxs",
          "type": "bool"
        }
      ],
      "name": "setIgnoreTxs",
      "outputs": [],
      "stateMutability": "nonpayable",
      "type": "function"
    }
  ],
  "transactionHash": "0xb70a444028737443a715f971928814f68db19749cdc7314962e1577f00f9d51d",
  "args": [],
  "numDeployments": 1,
  "solcInputHash": "18be01c67dac7fd81c6e88a9b71b05b8",
  "bytecode": "0x608060405234801561001057600080fd5b507fa3fa0f68d5538f319c38dace06045f59a936d3b04949aca33542d6a6fdb53992604051806020016100429061006f565b601f1982820381018352601f909101166040819052815160209283012081520160405180910390a161007c565b6117b1806103ee83390190565b6103638061008b6000396000f3fe6080604052600436106100335760003560e01c80622eef6214610038578063c21a686414610068578063f4cf44ca1461007b575b600080fd5b34801561004457600080fd5b5061006661005336600461015b565b6000805460ff1916911515919091179055565b005b6100666100763660046101b0565b6100a9565b34801561008757600080fd5b506000546100959060ff1681565b604051901515815260200160405180910390f35b60005460ff166101185760405163d34ad40960e01b81526001600160a01b0387169063d34ad409906100e59087908790879087906004016102cf565b600060405180830381600087803b1580156100ff57600080fd5b505af1158015610113573d6000803e3d6000fd5b505050505b7fbb85c1ecaa473ca194d63e52a4162f187930df29ba6674d806645a92a83634b786858560405161014b939291906102ff565b60405180910390a1505050505050565b60006020828403121561016d57600080fd5b8135801515811461017d57600080fd5b9392505050565b803563ffffffff8116811461019857600080fd5b919050565b803562ffffff8116811461019857600080fd5b60008060008060008060a087890312156101c957600080fd5b86356001600160a01b03811681146101e057600080fd5b95506101ee60208801610184565b9450604087013567ffffffffffffffff8082111561020b57600080fd5b818901915089601f83011261021f57600080fd5b81358181111561022e57600080fd5b8a60208260061b850101111561024357600080fd5b602083019650809550505050606087013591506102626080880161019d565b90509295509295509295565b818352600060208085019450826000805b868110156102c35763ffffffff61029584610184565b168852838301358060020b8082146102ab578384fd5b8986015250604097880197929092019160010161027f565b50959695505050505050565b6060815260006102e360608301868861026e565b905083602083015262ffffff8316604083015295945050505050565b6001600160a01b0384168152604060208201819052600090610324908301848661026e565b9594505050505056fea2646970667358221220a009e9704688262f8427bfbf98e930ab6ae68df4921597aaab553862a69faaa764736f6c634300080f003360c06040523480156200001157600080fd5b506000336001600160a01b03166399df71206040518163ffffffff1660e01b8152600401608060405180830381865afa15801562000053573d6000803e3d6000fd5b505050506040513d601f19601f82011682018060405250810190620000799190620001c6565b62010000805462ffffff90931662ffffff199093169290921790915560a0919091526001600160a01b039091166080526040805160e081018252600080825260208201529192508101620000cf6001846200023a565b61ffff90811682529283166020808301829052604080840192909252600060608085018290526001608095860152855182549387015194870151918701519587015160a088015160c0909801511515600160f01b0260ff60f01b1960ff99909916600160e81b0260ff60e81b19928b16600160d81b029290921662ffffff60d81b19988b16600160c81b0261ffff60c81b1995909b16600160b81b029490941663ffffffff60b81b1962ffffff909816600160a01b026001600160b81b03199097166001600160a01b039094169390931795909517959095161796909617939093169490941717919091169190911790556200026c565b60008060008060808587031215620001dd57600080fd5b84516001600160a01b0381168114620001f557600080fd5b60208601516040870151919550935062ffffff811681146200021657600080fd5b606086015190925061ffff811681146200022f57600080fd5b939692955090935050565b600061ffff838116908316818110156200026457634e487b7160e01b600052601160045260246000fd5b039392505050565b60805160a05161150a620002a76000396000818161025c0152818161050701526105af01526000818161029101526102e4015261150a6000f3fe608060405234801561001057600080fd5b50600436106100a95760003560e01c8063883bdbfd11610071578063883bdbfd146102115780639fdbd4d714610232578063c1c9115a14610257578063c45a01551461028c578063d21220a7146102b3578063ddca3f43146102c857600080fd5b80630dfe1681146100ae57806323e512d4146100e7578063252c09d71461010a5780633453952f146101575780633850c7bd1461016c575b600080fd5b62010000546100ca90630100000090046001600160a01b031681565b6040516001600160a01b0390911681526020015b60405180910390f35b6100fa6100f536600461119a565b6102e0565b60405190151581526020016100de565b61011d61011836600461121e565b61042a565b6040805163ffffffff909516855260069390930b60208501526001600160a01b0390911691830191909152151560608201526080016100de565b61016a61016536600461124f565b61046f565b005b6000546101c0906001600160a01b03811690600160a01b810460020b9061ffff600160b81b8204811691600160c81b8104821691600160d81b8204169060ff600160e81b8204811691600160f01b90041687565b604080516001600160a01b03909816885260029690960b602088015261ffff94851695870195909552918316606086015291909116608084015260ff1660a0830152151560c082015260e0016100de565b61022461021f36600461128d565b610617565b6040516100de929190611302565b62010000546102439062ffffff1681565b60405162ffffff90911681526020016100de565b61027e7f000000000000000000000000000000000000000000000000000000000000000081565b6040519081526020016100de565b6100ca7f000000000000000000000000000000000000000000000000000000000000000081565b62010001546100ca906001600160a01b031681565b620100015461024390600160a01b900462ffffff1681565b60007f00000000000000000000000000000000000000000000000000000000000000006001600160a01b031663e80477886040518163ffffffff1660e01b8152600401602060405180830381865afa158015610340573d6000803e3d6000fd5b505050506040513d601f19601f820116820180604052508101906103649190611389565b6001600160a01b0316336001600160a01b03161461039557604051638e5b30cb60e01b815260040160405180910390fd5b62010000805462ffffff169060006103ac836113bc565b91906101000a81548162ffffff021916908362ffffff16021790555062ffffff168262ffffff16146103e057506000610423565b8260005b8181101561041c5761040c868683818110610401576104016113de565b905060400201610688565b610415816113f4565b90506103e4565b5060019150505b9392505050565b60018161ffff811061043b57600080fd5b015463ffffffff81169150600160201b810460060b90600160581b81046001600160a01b031690600160f81b900460ff1684565b600054600160f01b900460ff166104995760405163139816ff60e31b815260040160405180910390fd5b600080836001600160a01b0316856001600160a01b0316106104bc5783856104bf565b84845b604080516001600160a01b03808516602083015283169181019190915262ffffff861660608201529193509150608001604051602081830303815290604052805190602001207f0000000000000000000000000000000000000000000000000000000000000000146105435760405162820f3560e61b815260040160405180910390fd5b6201000080546301000000600160b81b03191663010000006001600160a01b03858116918202929092179092556201000180549184166001600160b81b03199092168217600160a01b62ffffff8816908102919091179091556000805460ff60f01b19169055604080517f00000000000000000000000000000000000000000000000000000000000000008152602081019490945283019190915260608201527fb50ab96cf9f83d6c076a0d2a6e27a65bf1242920ba414829aa618d57d4a263739060800160405180910390a15050505050565b60608061067d4285858080602002602001604051908101604052809392919081815260200183836020028082843760009201829052508054600196959450600160a01b810460020b935061ffff600160b81b820481169350600160c81b90910416610786565b915091509250929050565b6000805481906106d890600160b81b900461ffff166106aa6020860186611421565b600080546001939291600160a01b820460020b9161ffff600160c81b8204811691600160d81b9004166108d1565b6000805461ffff808516600160b81b0261ffff60b81b19918516600160c81b029190911663ffffffff60b81b19909216919091171790559092509050610724604084016020850161144e565b6000805462ffffff92909216600160a01b0262ffffff60a01b199092169190911790556040517f351cb05bc71b044931f7410e88dceed68c021615a824de572c6cb0a735f50ac4906107799033908690611469565b60405180910390a1505050565b60608060008361ffff16116107ae57604051636b93000360e11b815260040160405180910390fd5b865167ffffffffffffffff8111156107c8576107c86114a8565b6040519080825280602002602001820160405280156107f1578160200160208202803683370190505b509150865167ffffffffffffffff81111561080e5761080e6114a8565b604051908082528060200260200182016040528015610837578160200160208202803683370190505b50905060005b87518110156108c45761086e8a8a8a848151811061085d5761085d6113de565b60200260200101518a8a8a8a610a59565b848381518110610880576108806113de565b60200260200101848481518110610899576108996113de565b6001600160a01b039093166020938402919091019092019190915260069190910b905260010161083d565b5097509795505050505050565b6000806000898961ffff1661ffff81106108ed576108ed6113de565b60408051608081018252919092015463ffffffff808216808452600160201b830460060b6020850152600160581b83046001600160a01b031694840194909452600160f81b90910460ff1615156060830152909250891690036109565788859250925050610a4d565b8461ffff168461ffff1611801561097757506001850361ffff168961ffff16145b1561098457839150610988565b8491505b8161ffff168960010161ffff16816109a2576109a26114be565b0692506109b181898989610c08565b8a8461ffff1661ffff81106109c8576109c86113de565b825191018054602084015160408501516060909501511515600160f81b026001600160f81b036001600160a01b03909616600160581b02959095166affffffffffffffffffffff66ffffffffffffff909216600160201b026affffffffffffffffffffff1990931663ffffffff90951694909417919091171691909117919091179055505b97509795505050505050565b6000808663ffffffff16600003610b02576000898661ffff1661ffff8110610a8357610a836113de565b60408051608081018252919092015463ffffffff808216808452600160201b830460060b6020850152600160581b83046001600160a01b031694840194909452600160f81b90910460ff16151560608301529092508a1614610aee57610aeb818a8988610c08565b90505b806020015181604001519250925050610a4d565b868803600080610b178c8c858c8c8c8c610ccd565b91509150816000015163ffffffff168363ffffffff1603610b48578160200151826040015194509450505050610a4d565b806000015163ffffffff168363ffffffff1603610b75578060200151816040015194509450505050610a4d565b60008260000151826000015103905060008360000151850390508063ffffffff168263ffffffff1660060b856020015185602001510360060b81610bbb57610bbb6114be565b05028460200151018263ffffffff168263ffffffff1686604001518660400151036001600160a01b03160281610bf357610bf36114be565b04856040015101965096505050505050610a4d565b604080516080810182526000808252602082018190529181018290526060810191909152600085600001518503905060405180608001604052808663ffffffff1681526020018263ffffffff168660020b0288602001510160060b81526020016000856001600160801b031611610c80576001610c82565b845b6001600160801b031663ffffffff60801b608085901b1681610ca657610ca66114be565b048860400151016001600160a01b0316815260200160011515815250915050949350505050565b604080516080810182526000808252602082018190529181018290526060810191909152604080516080810182526000808252602082018190529181018290526060810191909152888561ffff1661ffff8110610d2c57610d2c6113de565b60408051608081018252919092015463ffffffff8116808352600160201b820460060b6020840152600160581b82046001600160a01b031693830193909352600160f81b900460ff16151560608201529250610d8a90899089610ed9565b15610db657815163ffffffff888116911614610a4d5781610dad83898988610c08565b91509150610a4d565b888361ffff168660010161ffff1681610dd157610dd16114be565b0661ffff1661ffff8110610de757610de76113de565b60408051608081018252929091015463ffffffff81168352600160201b810460060b60208401526001600160a01b03600160581b8204169183019190915260ff600160f81b90910416151560608201819052909250610e9057604080516080810182528a5463ffffffff81168252600160201b810460060b6020830152600160581b81046001600160a01b031692820192909252600160f81b90910460ff161515606082015291505b610e9f88836000015189610ed9565b610ebc576040516327e8e87560e01b815260040160405180910390fd5b610ec98989898887610f9a565b9150915097509795505050505050565b60008363ffffffff168363ffffffff1611158015610f0357508363ffffffff168263ffffffff1611155b15610f1f578163ffffffff168363ffffffff1611159050610423565b60008463ffffffff168463ffffffff1611610f46578363ffffffff16600160201b01610f4e565b8363ffffffff165b64ffffffffff16905060008563ffffffff168463ffffffff1611610f7e578363ffffffff16600160201b01610f86565b8363ffffffff165b64ffffffffff169091111595945050505050565b60408051608081018252600080825260208201819052918101829052606081019190915260408051608081018252600080825260208201819052918101829052606081019190915260008361ffff168560010161ffff1681610ffe57610ffe6114be565b0661ffff169050600060018561ffff16830103905060005b506002818301048961ffff87168281611031576110316114be565b0661ffff8110611043576110436113de565b60408051608081018252929091015463ffffffff81168352600160201b810460060b60208401526001600160a01b03600160581b8204169183019190915260ff600160f81b909104161515606082018190529095506110a757806001019250611016565b898661ffff1682600101816110be576110be6114be565b0661ffff81106110d0576110d06113de565b60408051608081018252929091015463ffffffff81168352600160201b810460060b60208401526001600160a01b03600160581b8204169183019190915260ff600160f81b90910416151560608201528551909450600090611134908b908b610ed9565b905080801561114d575061114d8a8a8760000151610ed9565b156111585750611175565b806111685760018203925061116f565b8160010193505b50611016565b5050509550959350505050565b803562ffffff8116811461119557600080fd5b919050565b6000806000604084860312156111af57600080fd5b833567ffffffffffffffff808211156111c757600080fd5b818601915086601f8301126111db57600080fd5b8135818111156111ea57600080fd5b8760208260061b85010111156111ff57600080fd5b6020928301955093506112159186019050611182565b90509250925092565b60006020828403121561123057600080fd5b5035919050565b6001600160a01b038116811461124c57600080fd5b50565b60008060006060848603121561126457600080fd5b833561126f81611237565b9250602084013561127f81611237565b915061121560408501611182565b600080602083850312156112a057600080fd5b823567ffffffffffffffff808211156112b857600080fd5b818501915085601f8301126112cc57600080fd5b8135818111156112db57600080fd5b8660208260051b85010111156112f057600080fd5b60209290920196919550909350505050565b604080825283519082018190526000906020906060840190828701845b8281101561133e57815160060b8452928401929084019060010161131f565b5050508381038285015284518082528583019183019060005b8181101561137c5783516001600160a01b031683529284019291840191600101611357565b5090979650505050505050565b60006020828403121561139b57600080fd5b815161042381611237565b634e487b7160e01b600052601160045260246000fd5b600062ffffff8083168181036113d4576113d46113a6565b6001019392505050565b634e487b7160e01b600052603260045260246000fd5b600060018201611406576114066113a6565b5060010190565b803563ffffffff8116811461119557600080fd5b60006020828403121561143357600080fd5b6104238261140d565b8035600281900b811461119557600080fd5b60006020828403121561146057600080fd5b6104238261143c565b6001600160a01b03831681526060810163ffffffff6114878461140d565b1660208301526114996020840161143c565b60020b60408301529392505050565b634e487b7160e01b600052604160045260246000fd5b634e487b7160e01b600052601260045260246000fdfea26469706673582212203388501177f4611561d53fe9160899c31755506366465ebbd41eef6001cc20e764736f6c634300080f0033",
  "devdoc": {
    "kind": "dev",
    "methods": {},
    "version": 1
  },
  "userdoc": {
    "kind": "user",
    "methods": {},
    "version": 1
  },
  "storageLayout": {
    "storage": [
      {
        "astId": 22843,
        "contract": "solidity/for-test/DummyAdapterForTest.sol:DummyAdapterForTest",
        "label": "ignoreTxs",
        "offset": 0,
        "slot": "0",
        "type": "t_bool"
      }
    ],
    "types": {
      "t_bool": {
        "encoding": "inplace",
        "label": "bool",
        "numberOfBytes": "1"
      }
    }
  }
}