{
  "address": "0x4DF63E260Fb5AC4A2CAE6828B1e1c2EcBaC5D0F3",
  "abi": [
    {
      "inputs": [
        {
          "internalType": "contract IDataReceiver",
          "name": "_dataReceiver",
          "type": "address"
        },
        {
          "internalType": "address",
          "name": "_source",
          "type": "address"
        },
        {
          "internalType": "uint32",
          "name": "_originDomain",
          "type": "uint32"
        },
        {
          "internalType": "contract IConnext",
          "name": "_connext",
          "type": "address"
        }
      ],
      "stateMutability": "nonpayable",
      "type": "constructor"
    },
    {
      "inputs": [],
      "name": "UnauthorizedCaller",
      "type": "error"
    },
    {
      "inputs": [],
      "name": "connext",
      "outputs": [
        {
          "internalType": "contract IConnext",
          "name": "",
          "type": "address"
        }
      ],
      "stateMutability": "view",
      "type": "function"
    },
    {
      "inputs": [],
      "name": "dataReceiver",
      "outputs": [
        {
          "internalType": "contract IDataReceiver",
          "name": "",
          "type": "address"
        }
      ],
      "stateMutability": "view",
      "type": "function"
    },
    {
      "inputs": [],
      "name": "originDomain",
      "outputs": [
        {
          "internalType": "uint32",
          "name": "",
          "type": "uint32"
        }
      ],
      "stateMutability": "view",
      "type": "function"
    },
    {
      "inputs": [],
      "name": "source",
      "outputs": [
        {
          "internalType": "address",
          "name": "",
          "type": "address"
        }
      ],
      "stateMutability": "view",
      "type": "function"
    },
    {
      "inputs": [
        {
          "internalType": "bytes32",
          "name": "",
          "type": "bytes32"
        },
        {
          "internalType": "uint256",
          "name": "",
          "type": "uint256"
        },
        {
          "internalType": "address",
          "name": "",
          "type": "address"
        },
        {
          "internalType": "address",
          "name": "_originSender",
          "type": "address"
        },
        {
          "internalType": "uint32",
          "name": "_origin",
          "type": "uint32"
        },
        {
          "internalType": "bytes",
          "name": "_callData",
          "type": "bytes"
        }
      ],
      "name": "xReceive",
      "outputs": [
        {
          "internalType": "bytes",
          "name": "",
          "type": "bytes"
        }
      ],
      "stateMutability": "nonpayable",
      "type": "function"
    }
  ],
  "transactionHash": "0x42176ee01525554584e9180d8410cc3963c314b69a6a5857a6a061fe0e1777fa",
  "args": [
    "0xa09683377E5cE0bB7eEa90D2b64e3644f7eA1B8a",
    "0xAd8B340485A2305f3f4c0a4E659e7B830691858d",
    9991,
    "0xFCa08024A6D4bCc87275b1E4A1E22B71fAD7f649"
  ],
  "numDeployments": 5,
  "solcInputHash": "660c23a957f00c4f48e3ae67d9955766",
  "bytecode": "0x61010060405234801561001157600080fd5b506040516107aa3803806107aa8339810160408190526100309161006e565b6001600160a01b0393841660805291831660e05263ffffffff1660c0521660a0526100d6565b6001600160a01b038116811461006b57600080fd5b50565b6000806000806080858703121561008457600080fd5b845161008f81610056565b60208601519094506100a081610056565b604086015190935063ffffffff811681146100ba57600080fd5b60608601519092506100cb81610056565b939692955090935050565b60805160a05160c05160e051610682610128600039600081816061015261018301526000818160a501526101c001526000818160e10152610159015260008181610108015261028901526106826000f3fe608060405234801561001057600080fd5b50600436106100575760003560e01c806367e828bf1461005c578063cee85d7e146100a0578063de4b0548146100dc578063e804778814610103578063fd614f411461012a575b600080fd5b6100837f000000000000000000000000000000000000000000000000000000000000000081565b6040516001600160a01b0390911681526020015b60405180910390f35b6100c77f000000000000000000000000000000000000000000000000000000000000000081565b60405163ffffffff9091168152602001610097565b6100837f000000000000000000000000000000000000000000000000000000000000000081565b6100837f000000000000000000000000000000000000000000000000000000000000000081565b61013d61013836600461039a565b61014a565b6040516100979190610475565b60608383336001600160a01b037f0000000000000000000000000000000000000000000000000000000000000000161415806101b857507f00000000000000000000000000000000000000000000000000000000000000006001600160a01b0316826001600160a01b031614155b806101ef57507f000000000000000000000000000000000000000000000000000000000000000063ffffffff168163ffffffff1614155b1561020d57604051635c427cd960e01b815260040160405180910390fd5b60008060008680602001905181019061022691906104dd565b925092509250610237838383610272565b60405160200161025290602080825260009082015260400190565b604051602081830303815290604052955050505050509695505050505050565b60405163d34ad40960e01b81526001600160a01b037f0000000000000000000000000000000000000000000000000000000000000000169063d34ad409906102c2908690869086906004016105e1565b600060405180830381600087803b1580156102dc57600080fd5b505af11580156102f0573d6000803e3d6000fd5b50505050505050565b80356001600160a01b038116811461031057600080fd5b919050565b63ffffffff8116811461032757600080fd5b50565b634e487b7160e01b600052604160045260246000fd5b6040805190810167ffffffffffffffff811182821017156103635761036361032a565b60405290565b604051601f8201601f1916810167ffffffffffffffff811182821017156103925761039261032a565b604052919050565b60008060008060008060c087890312156103b357600080fd5b8635955060208088013595506103cb604089016102f9565b94506103d9606089016102f9565b935060808801356103e981610315565b925060a088013567ffffffffffffffff8082111561040657600080fd5b818a0191508a601f83011261041a57600080fd5b81358181111561042c5761042c61032a565b61043e601f8201601f19168501610369565b91508082528b8482850101111561045457600080fd5b80848401858401376000848284010152508093505050509295509295509295565b600060208083528351808285015260005b818110156104a257858101830151858201604001528201610486565b818111156104b4576000604083870101525b50601f01601f1916929092016040019392505050565b805162ffffff8116811461031057600080fd5b6000806000606084860312156104f257600080fd5b835167ffffffffffffffff8082111561050a57600080fd5b818601915086601f83011261051e57600080fd5b81516020828211156105325761053261032a565b610540818360051b01610369565b828152818101935060069290921b84018101918983111561056057600080fd5b938101935b828510156105be576040858b03121561057e5760008081fd5b610586610340565b855161059181610315565b815285830151600281900b81146105a85760008081fd5b8184015284526040949094019392810192610565565b80975050808801519550505050506105d8604085016104ca565b90509250925092565b606080825284519082018190526000906020906080840190828801845b8281101561062e578151805163ffffffff16855285015160020b85850152604090930192908401906001016105fe565b505050908301949094525062ffffff9190911660409091015291905056fea2646970667358221220ec0429afc0c3fb6b1c7a03bdc8f37cc2631884df52a9e113d7a08137305f12d664736f6c634300080f0033",
  "devdoc": {
    "kind": "dev",
    "methods": {},
    "version": 1
  },
  "userdoc": {
    "kind": "user",
    "methods": {},
    "version": 1
  },
  "storageLayout": {
    "storage": [],
    "types": null
  }
}