{
  "address": "0xcc6811Ab56Db8E03F647C2f4028Ba9adFF8097eB",
  "abi": [
    {
      "inputs": [
        {
          "internalType": "address",
          "name": "_governor",
          "type": "address"
        },
        {
          "internalType": "contract IDataFeedKeeper",
          "name": "_keeper",
          "type": "address"
        }
      ],
      "stateMutability": "nonpayable",
      "type": "constructor"
    },
    {
      "inputs": [],
      "name": "DestinationDomainIdNotSet",
      "type": "error"
    },
    {
      "inputs": [],
      "name": "I",
      "type": "error"
    },
    {
      "inputs": [],
      "name": "InvalidSecondsAgos",
      "type": "error"
    },
    {
      "inputs": [],
      "name": "LengthMismatch",
      "type": "error"
    },
    {
      "inputs": [],
      "name": "OLD",
      "type": "error"
    },
    {
      "inputs": [],
      "name": "OnlyGovernor",
      "type": "error"
    },
    {
      "inputs": [],
      "name": "OnlyKeeper",
      "type": "error"
    },
    {
      "inputs": [],
      "name": "OnlyPendingGovernor",
      "type": "error"
    },
    {
      "inputs": [],
      "name": "ReceiverNotSet",
      "type": "error"
    },
    {
      "inputs": [],
      "name": "UnallowedAdapter",
      "type": "error"
    },
    {
      "inputs": [],
      "name": "UnallowedPipeline",
      "type": "error"
    },
    {
      "inputs": [],
      "name": "UnallowedPool",
      "type": "error"
    },
    {
      "inputs": [],
      "name": "UnknownHash",
      "type": "error"
    },
    {
      "inputs": [],
      "name": "WrongNonce",
      "type": "error"
    },
    {
      "inputs": [],
      "name": "ZeroAddress",
      "type": "error"
    },
    {
      "anonymous": false,
      "inputs": [
        {
          "indexed": false,
          "internalType": "contract IBridgeSenderAdapter",
          "name": "_bridgeSenderAdapter",
          "type": "address"
        },
        {
          "indexed": false,
          "internalType": "bool",
          "name": "_isWhitelisted",
          "type": "bool"
        }
      ],
      "name": "AdapterWhitelisted",
      "type": "event"
    },
    {
      "anonymous": false,
      "inputs": [
        {
          "indexed": false,
          "internalType": "contract IBridgeSenderAdapter",
          "name": "_bridgeSenderAdapter",
          "type": "address"
        },
        {
          "indexed": false,
          "internalType": "address",
          "name": "_dataReceiver",
          "type": "address"
        },
        {
          "indexed": false,
          "internalType": "uint32",
          "name": "_destinationDomainId",
          "type": "uint32"
        },
        {
          "components": [
            {
              "internalType": "uint32",
              "name": "blockTimestamp",
              "type": "uint32"
            },
            {
              "internalType": "int24",
              "name": "tick",
              "type": "int24"
            }
          ],
          "indexed": false,
          "internalType": "struct IOracleSidechain.ObservationData[]",
          "name": "_observationsData",
          "type": "tuple[]"
        },
        {
          "indexed": false,
          "internalType": "bytes32",
          "name": "_poolSalt",
          "type": "bytes32"
        }
      ],
      "name": "DataSent",
      "type": "event"
    },
    {
      "anonymous": false,
      "inputs": [
        {
          "indexed": false,
          "internalType": "contract IBridgeSenderAdapter",
          "name": "_bridgeSenderAdapter",
          "type": "address"
        },
        {
          "indexed": false,
          "internalType": "uint16",
          "name": "_chainId",
          "type": "uint16"
        },
        {
          "indexed": false,
          "internalType": "uint32",
          "name": "_destinationDomainId",
          "type": "uint32"
        }
      ],
      "name": "DestinationDomainIdSet",
      "type": "event"
    },
    {
      "anonymous": false,
      "inputs": [
        {
          "indexed": false,
          "internalType": "contract IDataFeedKeeper",
          "name": "_keeper",
          "type": "address"
        }
      ],
      "name": "KeeperUpdated",
      "type": "event"
    },
    {
      "anonymous": false,
      "inputs": [
        {
          "indexed": false,
          "internalType": "address",
          "name": "_newGovernor",
          "type": "address"
        }
      ],
      "name": "PendingGovernorAccepted",
      "type": "event"
    },
    {
      "anonymous": false,
      "inputs": [
        {
          "indexed": false,
          "internalType": "address",
          "name": "_governor",
          "type": "address"
        },
        {
          "indexed": false,
          "internalType": "address",
          "name": "_pendingGovernor",
          "type": "address"
        }
      ],
      "name": "PendingGovernorSet",
      "type": "event"
    },
    {
      "anonymous": false,
      "inputs": [
        {
          "indexed": false,
          "internalType": "uint16",
          "name": "_chainId",
          "type": "uint16"
        },
        {
          "indexed": true,
          "internalType": "bytes32",
          "name": "_poolSalt",
          "type": "bytes32"
        },
        {
          "indexed": false,
          "internalType": "uint24",
          "name": "_whitelistedNonce",
          "type": "uint24"
        }
      ],
      "name": "PipelineWhitelisted",
      "type": "event"
    },
    {
      "anonymous": false,
      "inputs": [
        {
          "indexed": false,
          "internalType": "bytes32",
          "name": "_poolSalt",
          "type": "bytes32"
        },
        {
          "indexed": false,
          "internalType": "uint24",
          "name": "_poolNonce",
          "type": "uint24"
        },
        {
          "components": [
            {
              "internalType": "uint32",
              "name": "blockTimestamp",
              "type": "uint32"
            },
            {
              "internalType": "int24",
              "name": "tick",
              "type": "int24"
            }
          ],
          "indexed": false,
          "internalType": "struct IOracleSidechain.ObservationData[]",
          "name": "_observationsData",
          "type": "tuple[]"
        }
      ],
      "name": "PoolObserved",
      "type": "event"
    },
    {
      "anonymous": false,
      "inputs": [
        {
          "indexed": false,
          "internalType": "contract IBridgeSenderAdapter",
          "name": "_bridgeSenderAdapter",
          "type": "address"
        },
        {
          "indexed": false,
          "internalType": "uint32",
          "name": "_destinationDomainId",
          "type": "uint32"
        },
        {
          "indexed": false,
          "internalType": "address",
          "name": "_dataReceiver",
          "type": "address"
        }
      ],
      "name": "ReceiverSet",
      "type": "event"
    },
    {
      "inputs": [],
      "name": "acceptPendingGovernor",
      "outputs": [],
      "stateMutability": "nonpayable",
      "type": "function"
    },
    {
      "inputs": [
        {
          "internalType": "contract IBridgeSenderAdapter",
          "name": "",
          "type": "address"
        },
        {
          "internalType": "uint16",
          "name": "",
          "type": "uint16"
        }
      ],
      "name": "destinationDomainIds",
      "outputs": [
        {
          "internalType": "uint32",
          "name": "",
          "type": "uint32"
        }
      ],
      "stateMutability": "view",
      "type": "function"
    },
    {
      "inputs": [
        {
          "internalType": "bytes32",
          "name": "_poolSalt",
          "type": "bytes32"
        },
        {
          "internalType": "uint32[]",
          "name": "_secondsAgos",
          "type": "uint32[]"
        }
      ],
      "name": "fetchObservations",
      "outputs": [],
      "stateMutability": "nonpayable",
      "type": "function"
    },
    {
      "inputs": [
        {
          "internalType": "contract IUniswapV3Pool",
          "name": "_pool",
          "type": "address"
        },
        {
          "internalType": "uint32[]",
          "name": "_secondsAgos",
          "type": "uint32[]"
        }
      ],
      "name": "fetchObservationsIndices",
      "outputs": [
        {
          "internalType": "uint16[]",
          "name": "_observationsIndices",
          "type": "uint16[]"
        }
      ],
      "stateMutability": "view",
      "type": "function"
    },
    {
      "inputs": [],
      "name": "governor",
      "outputs": [
        {
          "internalType": "address",
          "name": "",
          "type": "address"
        }
      ],
      "stateMutability": "view",
      "type": "function"
    },
    {
      "inputs": [
        {
          "internalType": "bytes32",
          "name": "_poolSalt",
          "type": "bytes32"
        }
      ],
      "name": "isWhitelistedPool",
      "outputs": [
        {
          "internalType": "bool",
          "name": "_isWhitelisted",
          "type": "bool"
        }
      ],
      "stateMutability": "view",
      "type": "function"
    },
    {
      "inputs": [],
      "name": "keeper",
      "outputs": [
        {
          "internalType": "contract IDataFeedKeeper",
          "name": "",
          "type": "address"
        }
      ],
      "stateMutability": "view",
      "type": "function"
    },
    {
      "inputs": [
        {
          "internalType": "bytes32",
          "name": "",
          "type": "bytes32"
        }
      ],
      "name": "lastPoolStateObserved",
      "outputs": [
        {
          "internalType": "uint24",
          "name": "poolNonce",
          "type": "uint24"
        },
        {
          "internalType": "uint32",
          "name": "blockTimestamp",
          "type": "uint32"
        },
        {
          "internalType": "int56",
          "name": "tickCumulative",
          "type": "int56"
        },
        {
          "internalType": "int24",
          "name": "arithmeticMeanTick",
          "type": "int24"
        }
      ],
      "stateMutability": "view",
      "type": "function"
    },
    {
      "inputs": [],
      "name": "pendingGovernor",
      "outputs": [
        {
          "internalType": "address",
          "name": "",
          "type": "address"
        }
      ],
      "stateMutability": "view",
      "type": "function"
    },
    {
      "inputs": [
        {
          "internalType": "contract IBridgeSenderAdapter",
          "name": "",
          "type": "address"
        },
        {
          "internalType": "uint32",
          "name": "",
          "type": "uint32"
        }
      ],
      "name": "receivers",
      "outputs": [
        {
          "internalType": "address",
          "name": "",
          "type": "address"
        }
      ],
      "stateMutability": "view",
      "type": "function"
    },
    {
      "inputs": [
        {
          "internalType": "contract IBridgeSenderAdapter",
          "name": "_bridgeSenderAdapter",
          "type": "address"
        },
        {
          "internalType": "uint16",
          "name": "_chainId",
          "type": "uint16"
        },
        {
          "internalType": "bytes32",
          "name": "_poolSalt",
          "type": "bytes32"
        },
        {
          "internalType": "uint24",
          "name": "_poolNonce",
          "type": "uint24"
        },
        {
          "components": [
            {
              "internalType": "uint32",
              "name": "blockTimestamp",
              "type": "uint32"
            },
            {
              "internalType": "int24",
              "name": "tick",
              "type": "int24"
            }
          ],
          "internalType": "struct IOracleSidechain.ObservationData[]",
          "name": "_observationsData",
          "type": "tuple[]"
        }
      ],
      "name": "sendObservations",
      "outputs": [],
      "stateMutability": "nonpayable",
      "type": "function"
    },
    {
      "inputs": [
        {
          "internalType": "contract IBridgeSenderAdapter",
          "name": "_bridgeSenderAdapter",
          "type": "address"
        },
        {
          "internalType": "uint16",
          "name": "_chainId",
          "type": "uint16"
        },
        {
          "internalType": "uint32",
          "name": "_destinationDomainId",
          "type": "uint32"
        }
      ],
      "name": "setDestinationDomainId",
      "outputs": [],
      "stateMutability": "nonpayable",
      "type": "function"
    },
    {
      "inputs": [
        {
          "internalType": "contract IBridgeSenderAdapter[]",
          "name": "_bridgeSenderAdapters",
          "type": "address[]"
        },
        {
          "internalType": "uint16[]",
          "name": "_chainIds",
          "type": "uint16[]"
        },
        {
          "internalType": "uint32[]",
          "name": "_destinationDomainIds",
          "type": "uint32[]"
        }
      ],
      "name": "setDestinationDomainIds",
      "outputs": [],
      "stateMutability": "nonpayable",
      "type": "function"
    },
    {
      "inputs": [
        {
          "internalType": "contract IDataFeedKeeper",
          "name": "_keeper",
          "type": "address"
        }
      ],
      "name": "setKeeper",
      "outputs": [],
      "stateMutability": "nonpayable",
      "type": "function"
    },
    {
      "inputs": [
        {
          "internalType": "address",
          "name": "_pendingGovernor",
          "type": "address"
        }
      ],
      "name": "setPendingGovernor",
      "outputs": [],
      "stateMutability": "nonpayable",
      "type": "function"
    },
    {
      "inputs": [
        {
          "internalType": "contract IBridgeSenderAdapter",
          "name": "_bridgeSenderAdapter",
          "type": "address"
        },
        {
          "internalType": "uint32",
          "name": "_destinationDomainId",
          "type": "uint32"
        },
        {
          "internalType": "address",
          "name": "_dataReceiver",
          "type": "address"
        }
      ],
      "name": "setReceiver",
      "outputs": [],
      "stateMutability": "nonpayable",
      "type": "function"
    },
    {
      "inputs": [
        {
          "internalType": "contract IBridgeSenderAdapter[]",
          "name": "_bridgeSenderAdapters",
          "type": "address[]"
        },
        {
          "internalType": "uint32[]",
          "name": "_destinationDomainIds",
          "type": "uint32[]"
        },
        {
          "internalType": "address[]",
          "name": "_dataReceivers",
          "type": "address[]"
        }
      ],
      "name": "setReceivers",
      "outputs": [],
      "stateMutability": "nonpayable",
      "type": "function"
    },
    {
      "inputs": [
        {
          "internalType": "contract IBridgeSenderAdapter",
          "name": "_bridgeSenderAdapter",
          "type": "address"
        },
        {
          "internalType": "uint16",
          "name": "_chainId",
          "type": "uint16"
        }
      ],
      "name": "validateSenderAdapter",
      "outputs": [
        {
          "internalType": "uint32",
          "name": "_destinationDomainId",
          "type": "uint32"
        },
        {
          "internalType": "address",
          "name": "_dataReceiver",
          "type": "address"
        }
      ],
      "stateMutability": "view",
      "type": "function"
    },
    {
      "inputs": [
        {
          "internalType": "contract IBridgeSenderAdapter",
          "name": "_bridgeSenderAdapter",
          "type": "address"
        },
        {
          "internalType": "bool",
          "name": "_isWhitelisted",
          "type": "bool"
        }
      ],
      "name": "whitelistAdapter",
      "outputs": [],
      "stateMutability": "nonpayable",
      "type": "function"
    },
    {
      "inputs": [
        {
          "internalType": "contract IBridgeSenderAdapter[]",
          "name": "_bridgeSenderAdapters",
          "type": "address[]"
        },
        {
          "internalType": "bool[]",
          "name": "_isWhitelisted",
          "type": "bool[]"
        }
      ],
      "name": "whitelistAdapters",
      "outputs": [],
      "stateMutability": "nonpayable",
      "type": "function"
    },
    {
      "inputs": [
        {
          "internalType": "uint16",
          "name": "_chainId",
          "type": "uint16"
        },
        {
          "internalType": "bytes32",
          "name": "_poolSalt",
          "type": "bytes32"
        }
      ],
      "name": "whitelistPipeline",
      "outputs": [],
      "stateMutability": "nonpayable",
      "type": "function"
    },
    {
      "inputs": [
        {
          "internalType": "uint16[]",
          "name": "_chainIds",
          "type": "uint16[]"
        },
        {
          "internalType": "bytes32[]",
          "name": "_poolSalts",
          "type": "bytes32[]"
        }
      ],
      "name": "whitelistPipelines",
      "outputs": [],
      "stateMutability": "nonpayable",
      "type": "function"
    },
    {
      "inputs": [
        {
          "internalType": "contract IBridgeSenderAdapter",
          "name": "",
          "type": "address"
        }
      ],
      "name": "whitelistedAdapters",
      "outputs": [
        {
          "internalType": "bool",
          "name": "",
          "type": "bool"
        }
      ],
      "stateMutability": "view",
      "type": "function"
    },
    {
      "inputs": [
        {
          "internalType": "uint16",
          "name": "",
          "type": "uint16"
        },
        {
          "internalType": "bytes32",
          "name": "",
          "type": "bytes32"
        }
      ],
      "name": "whitelistedNonces",
      "outputs": [
        {
          "internalType": "uint24",
          "name": "",
          "type": "uint24"
        }
      ],
      "stateMutability": "view",
      "type": "function"
    }
  ],
  "transactionHash": "0x76a1c30b8aeac6b9d476b477a8af6d31cfa9c201f4e2288fa281953073a1e36c",
  "args": [
    "0x57B067e4E27558FE2c60fCE86941011cB5F5A4FD",
    "0x57B067e4E27558FE2c60fCE86941011cB5F5A4FD"
  ],
  "numDeployments": 1,
  "solcInputHash": "7253214af8d4ef4146e94e611e10ddc6",
  "bytecode": "0x60806040523480156200001157600080fd5b50604051620028be380380620028be8339810160408190526200003491620000fd565b816001600160a01b0381166200005d5760405163d92e233d60e01b815260040160405180910390fd5b600080546001600160a01b0319166001600160a01b0392909216919091179055620000888162000090565b50506200013c565b600880546001600160a01b0319166001600160a01b0383169081179091556040519081527f0425bcd291db1d48816f2a98edc7ecaf6dd5c64b973d9e4b3b6b750763dc6c2e9060200160405180910390a150565b6001600160a01b0381168114620000fa57600080fd5b50565b600080604083850312156200011157600080fd5b82516200011e81620000e4565b60208401519092506200013181620000e4565b809150509250929050565b612772806200014c6000396000f3fe608060405234801561001057600080fd5b50600436106101585760003560e01c806365d9338a116100c3578063b3d39afe1161007c578063b3d39afe146103eb578063b893cce2146103fe578063bf5d23c314610431578063e3056a3414610444578063f235757f14610457578063f4ed7c5b1461046a57600080fd5b806365d9338a1461036c578063748747e61461038c5780638920bc5a1461039f578063954e863e146103b2578063aced1661146103c5578063adee3505146103d857600080fd5b80632bc5021c116101155780632bc5021c146102725780632e486318146102b85780633866a4b7146102fc5780635639828f1461030f5780635f07619b146103225780636282db821461033557600080fd5b806302141dc41461015d5780630c340a24146101725780630ddb5dd2146101a257806313f6986d146101b55780631b79c0bc146101bd5780632104ee3e1461023e575b600080fd5b61017061016b366004611c1c565b61047d565b005b600054610185906001600160a01b031681565b6040516001600160a01b0390911681526020015b60405180910390f35b6101706101b0366004611c1c565b61052f565b6101706105e7565b6102076101cb366004611c87565b60096020526000908152604090205462ffffff81169063ffffffff630100000082041690600160381b810460060b90600160701b900460020b84565b6040805162ffffff909516855263ffffffff909316602085015260069190910b9183019190915260020b6060820152608001610199565b61018561024c366004611cc7565b60076020908152600092835260408084209091529082529020546001600160a01b031681565b6102a3610280366004611d10565b600660209081526000928352604080842090915290825290205463ffffffff1681565b60405163ffffffff9091168152602001610199565b6102e86102c6366004611d3e565b600460209081526000928352604080842090915290825290205462ffffff1681565b60405162ffffff9091168152602001610199565b61017061030a366004611d6a565b61061c565b61017061031d366004611e66565b610657565b610170610330366004611d3e565b6107f2565b610348610343366004611d10565b61082b565b6040805163ffffffff90931683526001600160a01b03909116602083015201610199565b61037f61037a366004611f75565b610908565b6040516101999190611fc9565b61017061039a366004612011565b610a58565b6101706103ad36600461202e565b610a8f565b6101706103c036600461207c565b610ac5565b600854610185906001600160a01b031681565b6101706103e63660046120aa565b610afa565b6101706103f9366004612143565b610bf0565b61042161040c366004612011565b60056020526000908152604090205460ff1681565b6040519015158152602001610199565b61017061043f3660046120aa565b6111f9565b600154610185906001600160a01b031681565b610170610465366004612011565b6112e5565b610421610478366004611c87565b611319565b6000546001600160a01b031633146104a85760405163070545c960e51b815260040160405180910390fd5b828181146104cc576040516001621398b960e31b0319815260040160405180910390fd5b60005b818110156105275761051f8686838181106104ec576104ec612175565b9050602002016020810190610501919061218b565b85858481811061051357610513612175565b9050602002013561132c565b6001016104cf565b505050505050565b6000546001600160a01b0316331461055a5760405163070545c960e51b815260040160405180910390fd5b8281811461057e576040516001621398b960e31b0319815260040160405180910390fd5b60005b81811015610527576105df86868381811061059e5761059e612175565b90506020020160208101906105b39190612011565b8585848181106105c5576105c5612175565b90506020020160208101906105da91906121a8565b611435565b600101610581565b6001546001600160a01b0316331461061257604051639ba0305d60e01b815260040160405180910390fd5b61061a611498565b565b6000546001600160a01b031633146106475760405163070545c960e51b815260040160405180910390fd5b6106528383836114f6565b505050565b61ffff8416600090815260046020908152604080832086845290915281205485918591859162ffffff909116908190036106a457604051635768ad3760e11b815260040160405180910390fd5b8162ffffff168162ffffff1611156106cf5760405163d9c6386f60e01b815260040160405180910390fd5b6000806106dc8b8b61082b565b9150915060008989896040516020016106f793929190612214565b60408051601f1981840301815291815281516020928301206000818152600a90935291205490915060ff1661073f576040516303cb569960e01b815260040160405180910390fd5b506040516330869a1960e21b81526001600160a01b038c169063c21a68649061077490849086908c908f908f90600401612238565b600060405180830381600087803b15801561078e57600080fd5b505af11580156107a2573d6000803e3d6000fd5b505050507fa4988828ffb4a90ce6d4718f686455837912cfe3c9dbb8bfc132b494f26aa44f8b82848a8d6040516107dd959493929190612285565b60405180910390a15050505050505050505050565b6000546001600160a01b0316331461081d5760405163070545c960e51b815260040160405180910390fd5b610827828261132c565b5050565b6001600160a01b038216600090815260056020526040812054819060ff16610866576040516360ece74160e01b815260040160405180910390fd5b6001600160a01b038416600090815260066020908152604080832061ffff8716845290915281205463ffffffff1692508290036108b657604051630e359ccd60e21b815260040160405180910390fd5b506001600160a01b03808416600090815260076020908152604080832063ffffffff861684529091529020541680610901576040516310c3a82760e21b815260040160405180910390fd5b9250929050565b6060600080856001600160a01b0316633850c7bd6040518163ffffffff1660e01b815260040160e060405180830381865afa15801561094b573d6000803e3d6000fd5b505050506040513d601f19601f8201168201806040525081019061096f91906122cf565b5092965090945087935042925060009150819050836001600160401b0381111561099b5761099b611dc6565b6040519080825280602002602001820160405280156109c4578160200160208202803683370190505b50965060005b84811015610a4a578989828181106109e4576109e4612175565b90506020020160208101906109f99190612371565b610a0390856123a4565b9250610a128b85858a8a611579565b915081888281518110610a2757610a27612175565b61ffff90921660209283029190910190910152610a43816123c9565b90506109ca565b505050505050509392505050565b6000546001600160a01b03163314610a835760405163070545c960e51b815260040160405180910390fd5b610a8c81611781565b50565b6000546001600160a01b03163314610aba5760405163070545c960e51b815260040160405180910390fd5b6106528383836117d6565b6000546001600160a01b03163314610af05760405163070545c960e51b815260040160405180910390fd5b6108278282611435565b6000546001600160a01b03163314610b255760405163070545c960e51b815260040160405180910390fd5b848381141580610b355750808214155b15610b56576040516001621398b960e31b0319815260040160405180910390fd5b60005b81811015610be657610bde888883818110610b7657610b76612175565b9050602002016020810190610b8b9190612011565b878784818110610b9d57610b9d612175565b9050602002016020810190610bb2919061218b565b868685818110610bc457610bc4612175565b9050602002016020810190610bd99190612371565b6114f6565b600101610b59565b5050505050505050565b6008546001600160a01b03163314610c1b5760405163c60eb33560e01b815260040160405180910390fd5b82610c27600282611853565b610c445760405163043acd3f60e31b815260040160405180910390fd5b60008481526009602090815260408083208151608081018352905462ffffff8116825263ffffffff630100000082041682850152600160381b810460060b82840152600160701b900460020b60608083019190915282516001600160f81b0319818601527307e610c722b66148d8c6b92967c99cd1ba8c7e6160621b6021820152603581018a90527fe34f199b19b2b4f47f68442619d555527d244f78a3297ea89325f843f87b8b54605580830191909152845180830390910181526075820194859052805195019490942063883bdbfd60e01b9093529390926001600160a01b0383169063883bdbfd90610d3f908a908a906079016123e2565b600060405180830381865afa158015610d5c573d6000803e3d6000fd5b505050506040513d6000823e601f3d908101601f19168201604052610d8491908101906124a8565b5060208401519091504290600090819081908a90829063ffffffff168103610e895781600103610dc757604051632335bf0960e11b815260040160405180910390fd5b610dd260018361256a565b6001600160401b03811115610de957610de9611dc6565b604051908082528060200260200182016040528015610e2e57816020015b6040805180820190915260008082526020820152815260200190600190039081610e075790505b5099508c8c6000818110610e4457610e44612175565b9050602002016020810190610e599190612371565b945086600081518110610e6e57610e6e612175565b6020026020010151935080610e82906123c9565b9050610f03565b816001600160401b03811115610ea157610ea1611dc6565b604051908082528060200260200182016040528015610ee657816020015b6040805180820190915260008082526020820152815260200190600190039081610ebf5790505b509950886020015186610ef991906123a4565b9450886040015193505b60008060005b8484101561105657868a8581518110610f2457610f24612175565b6020026020010151610f369190612581565b91508f8f85818110610f4a57610f4a612175565b9050602002016020810190610f5f9190612371565b610f6990896123a4565b9250610f79600384900b836125e7565b955060008260060b128015610f9d5750610f97600384900b83612625565b60060b15155b15610fae57610fab86612647565b95505b6040518060400160405280898b610fc591906123a4565b63ffffffff1681526020018760020b8152508d8280610fe3906123c9565b935081518110610ff557610ff5612175565b60200260200101819052508f8f8581811061101257611012612175565b90506020020160208101906110279190612371565b975089848151811061103b5761103b612175565b602002602001015196508361104f906123c9565b9350610f09565b60405180608001604052808d600001516001611072919061266a565b62ffffff1681526020016110868a8c6123a4565b63ffffffff1681526020018860060b81526020018760020b8152509b505050505050505050505050806009600088815260200190815260200160002060008201518160000160006101000a81548162ffffff021916908362ffffff16021790555060208201518160000160036101000a81548163ffffffff021916908363ffffffff16021790555060408201518160000160076101000a81548166ffffffffffffff021916908360060b66ffffffffffffff160217905550606082015181600001600e6101000a81548162ffffff021916908360020b62ffffff16021790555090505060008682600001518460405160200161118493929190612214565b60408051601f1981840301815282825280516020918201206000818152600a909252919020805460ff1916600117905583519092507fbbea6ef77154be715a6de74ab5aae8710da33d74e2660ead1da5e867ea50d577916111e8918a918790612214565b60405180910390a150505050505050565b6000546001600160a01b031633146112245760405163070545c960e51b815260040160405180910390fd5b8483811415806112345750808214155b15611255576040516001621398b960e31b0319815260040160405180910390fd5b60005b81811015610be6576112dd88888381811061127557611275612175565b905060200201602081019061128a9190612011565b87878481811061129c5761129c612175565b90506020020160208101906112b19190612371565b8686858181106112c3576112c3612175565b90506020020160208101906112d89190612011565b6117d6565b600101611258565b6000546001600160a01b031633146113105760405163070545c960e51b815260040160405180910390fd5b610a8c8161186e565b6000611326600283611853565b92915050565b6040516306de702f60e21b8152600481018290526000903090631b79c0bc90602401608060405180830381865afa15801561136b573d6000803e3d6000fd5b505050506040513d601f19601f8201168201806040525081019061138f9190612691565b50505090508060016113a1919061266a565b61ffff841660009081526004602090815260408083208684529091529020805462ffffff191662ffffff929092169190911790556113e06002836118f1565b50817f3683b66c88ab53d8ff3ac46b24763659ae3d4a832cc3a117fd4bc21f525633ec8461140f84600161266a565b6040805161ffff909316835262ffffff90911660208301520160405180910390a2505050565b6001600160a01b038216600081815260056020908152604091829020805460ff19168515159081179091558251938452908301527f3cece36ac6216147f57b10bb30975f82b18b8b290a7925c322277e684afcce4a910160405180910390a15050565b60018054600080546001600160a01b0383166001600160a01b031991821681179092559091169091556040519081527f5d5d6e01b731c3e68060f7fe13156f6197d4aeffc2d6f498e34c717ae616b7349060200160405180910390a1565b6001600160a01b038316600081815260066020908152604080832061ffff871680855290835292819020805463ffffffff191663ffffffff8716908117909155815194855291840192909252908201527fb7fe149e8ae4e316d9b489e56718b00a6303822be1d8aba61e82bbc495a7b66c906060015b60405180910390a1505050565b6000808261ffff161161159f57604051636b93000360e11b815260040160405180910390fd5b60405163252c09d760e01b815261ffff841660048201526000906001600160a01b0388169063252c09d790602401608060405180830381865afa1580156115ea573d6000803e3d6000fd5b505050506040513d601f19601f8201168201806040525081019061160e91906126ec565b505050905061161e8682876118fd565b1561162c5783915050611778565b6000876001600160a01b031663252c09d78561ffff168760010161ffff1681611657576116576125d1565b066040518263ffffffff1660e01b815260040161167e919061ffff91909116815260200190565b608060405180830381865afa15801561169b573d6000803e3d6000fd5b505050506040513d601f19601f820116820180604052508101906116bf91906126ec565b92945091925082915061173e90505760405163252c09d760e01b8152600060048201526001600160a01b0389169063252c09d790602401608060405180830381865afa158015611713573d6000803e3d6000fd5b505050506040513d601f19601f8201168201806040525081019061173791906126ec565b5091935050505b6117498783886118fd565b611766576040516327e8e87560e01b815260040160405180910390fd5b61177388888888886119c0565b925050505b95945050505050565b600880546001600160a01b0319166001600160a01b0383169081179091556040519081527f0425bcd291db1d48816f2a98edc7ecaf6dd5c64b973d9e4b3b6b750763dc6c2e906020015b60405180910390a150565b6001600160a01b03838116600081815260076020908152604080832063ffffffff88168085529083529281902080546001600160a01b03191695871695861790558051938452908301919091528101919091527f8c40b26b4f622e79dfd089e60fb1880f58fd338c7ec794035d25b79f26fbe0e99060600161156c565b600081815260018301602052604081205415155b9392505050565b6001600160a01b0381166118955760405163d92e233d60e01b815260040160405180910390fd5b600180546001600160a01b0319166001600160a01b038381169182179092556000546040805191909316815260208101919091527f6353ec38ac394f8be94bfafcdd3580d356470599059eaeebedc3207e1cc03dec91016117cb565b60006118678383611b89565b60008363ffffffff168363ffffffff161115801561192757508363ffffffff168263ffffffff1611155b15611943578163ffffffff168363ffffffff1611159050611867565b60008463ffffffff168463ffffffff161161196b578363ffffffff1664010000000001611973565b8363ffffffff165b64ffffffffff16905060008563ffffffff168463ffffffff16116119a4578363ffffffff16640100000000016119ac565b8363ffffffff165b64ffffffffff169091111595945050505050565b60008060008361ffff168560010161ffff16816119df576119df6125d1565b0661ffff169050600060018561ffff16830103905060008060005b60028585010492508761ffff168381611a1557611a156125d1565b60405163252c09d760e01b815291900661ffff8116600483015297506001600160a01b038d169063252c09d790602401608060405180830381865afa158015611a62573d6000803e3d6000fd5b505050506040513d601f19601f82011682018060405250810190611a8691906126ec565b929450919250829150611aa09050578260010194506119fa565b611aab8b838c6118fd565b611aba576001830393506119fa565b8761ffff168360010181611ad057611ad06125d1565b60405163252c09d760e01b815291900661ffff8116600483015296506001600160a01b038d169063252c09d790602401608060405180830381865afa158015611b1d573d6000803e3d6000fd5b505050506040513d601f19601f82011682018060405250810190611b4191906126ec565b50919350611b5491508c90508b846118fd565b611b63578260010194506119fa565b8163ffffffff168a63ffffffff1603611b7a578596505b50505050505095945050505050565b6000818152600183016020526040812054611bd057508154600181810184556000848152602080822090930184905584548482528286019093526040902091909155611326565b506000611326565b60008083601f840112611bea57600080fd5b5081356001600160401b03811115611c0157600080fd5b6020830191508360208260051b850101111561090157600080fd5b60008060008060408587031215611c3257600080fd5b84356001600160401b0380821115611c4957600080fd5b611c5588838901611bd8565b90965094506020870135915080821115611c6e57600080fd5b50611c7b87828801611bd8565b95989497509550505050565b600060208284031215611c9957600080fd5b5035919050565b6001600160a01b0381168114610a8c57600080fd5b63ffffffff81168114610a8c57600080fd5b60008060408385031215611cda57600080fd5b8235611ce581611ca0565b91506020830135611cf581611cb5565b809150509250929050565b61ffff81168114610a8c57600080fd5b60008060408385031215611d2357600080fd5b8235611d2e81611ca0565b91506020830135611cf581611d00565b60008060408385031215611d5157600080fd5b8235611d5c81611d00565b946020939093013593505050565b600080600060608486031215611d7f57600080fd5b8335611d8a81611ca0565b92506020840135611d9a81611d00565b91506040840135611daa81611cb5565b809150509250925092565b62ffffff81168114610a8c57600080fd5b634e487b7160e01b600052604160045260246000fd5b604080519081016001600160401b0381118282101715611dfe57611dfe611dc6565b60405290565b604051601f8201601f191681016001600160401b0381118282101715611e2c57611e2c611dc6565b604052919050565b60006001600160401b03821115611e4d57611e4d611dc6565b5060051b60200190565b8060020b8114610a8c57600080fd5b600080600080600060a08688031215611e7e57600080fd5b8535611e8981611ca0565b9450602086810135611e9a81611d00565b945060408781013594506060880135611eb281611db5565b935060808801356001600160401b03811115611ecd57600080fd5b8801601f81018a13611ede57600080fd5b8035611ef1611eec82611e34565b611e04565b81815260069190911b8201840190848101908c831115611f1057600080fd5b928501925b82841015611f625784848e031215611f2d5760008081fd5b611f35611ddc565b8435611f4081611cb5565b815284870135611f4f81611e57565b8188015282529284019290850190611f15565b8096505050505050509295509295909350565b600080600060408486031215611f8a57600080fd5b8335611f9581611ca0565b925060208401356001600160401b03811115611fb057600080fd5b611fbc86828701611bd8565b9497909650939450505050565b6020808252825182820181905260009190848201906040850190845b8181101561200557835161ffff1683529284019291840191600101611fe5565b50909695505050505050565b60006020828403121561202357600080fd5b813561186781611ca0565b60008060006060848603121561204357600080fd5b833561204e81611ca0565b9250602084013561205e81611cb5565b91506040840135611daa81611ca0565b8015158114610a8c57600080fd5b6000806040838503121561208f57600080fd5b823561209a81611ca0565b91506020830135611cf58161206e565b600080600080600080606087890312156120c357600080fd5b86356001600160401b03808211156120da57600080fd5b6120e68a838b01611bd8565b909850965060208901359150808211156120ff57600080fd5b61210b8a838b01611bd8565b9096509450604089013591508082111561212457600080fd5b5061213189828a01611bd8565b979a9699509497509295939492505050565b60008060006040848603121561215857600080fd5b8335925060208401356001600160401b03811115611fb057600080fd5b634e487b7160e01b600052603260045260246000fd5b60006020828403121561219d57600080fd5b813561186781611d00565b6000602082840312156121ba57600080fd5b81356118678161206e565b600081518084526020808501945080840160005b83811015612209578151805163ffffffff16885283015160020b83880152604090960195908201906001016121d9565b509495945050505050565b83815262ffffff8316602082015260606040820152600061177860608301846121c5565b6001600160a01b038616815263ffffffff8516602082015260a060408201819052600090612268908301866121c5565b905083606083015262ffffff831660808301529695505050505050565b6001600160a01b0386811682528516602082015263ffffffff8416604082015260a0606082018190526000906122bd908301856121c5565b90508260808301529695505050505050565b600080600080600080600060e0888a0312156122ea57600080fd5b87516122f581611ca0565b602089015190975061230681611e57565b604089015190965061231781611d00565b606089015190955061232881611d00565b608089015190945061233981611d00565b60a089015190935060ff8116811461235057600080fd5b60c08901519092506123618161206e565b8091505092959891949750929550565b60006020828403121561238357600080fd5b813561186781611cb5565b634e487b7160e01b600052601160045260246000fd5b600063ffffffff838116908316818110156123c1576123c161238e565b039392505050565b6000600182016123db576123db61238e565b5060010190565b60208082528181018390526000908460408401835b8681101561242257823561240a81611cb5565b63ffffffff16825291830191908301906001016123f7565b509695505050505050565b8051600681900b811461243f57600080fd5b919050565b600082601f83011261245557600080fd5b81516020612465611eec83611e34565b82815260059290921b8401810191818101908684111561248457600080fd5b8286015b8481101561242257805161249b81611ca0565b8352918301918301612488565b600080604083850312156124bb57600080fd5b82516001600160401b03808211156124d257600080fd5b818501915085601f8301126124e657600080fd5b815160206124f6611eec83611e34565b82815260059290921b8401810191818101908984111561251557600080fd5b948201945b8386101561253a5761252b8661242d565b8252948201949082019061251a565b9188015191965090935050508082111561255357600080fd5b5061256085828601612444565b9150509250929050565b60008282101561257c5761257c61238e565b500390565b60008160060b8360060b6000811281667fffffffffffff19018312811516156125ac576125ac61238e565b81667fffffffffffff0183138116156125c7576125c761238e565b5090039392505050565b634e487b7160e01b600052601260045260246000fd5b60008160060b8360060b806125fe576125fe6125d1565b667fffffffffffff1982146000198214161561261c5761261c61238e565b90059392505050565b60008260060b80612638576126386125d1565b808360060b0791505092915050565b60008160020b627fffff1981036126605761266061238e565b6000190192915050565b600062ffffff8083168185168083038211156126885761268861238e565b01949350505050565b600080600080608085870312156126a757600080fd5b84516126b281611db5565b60208601519094506126c381611cb5565b92506126d16040860161242d565b915060608501516126e181611e57565b939692955090935050565b6000806000806080858703121561270257600080fd5b845161270d81611cb5565b935061271b6020860161242d565b9250604085015161272b81611ca0565b60608601519092506126e18161206e56fea2646970667358221220a85d2b70468f89fbf491cba2f7f437932d1f9378642bfa7186141d0ce7b991bf64736f6c634300080f0033",
  "devdoc": {
    "kind": "dev",
    "methods": {
      "fetchObservationsIndices(address,uint32[])": {
        "details": "High gas consuming view, avoid using in txs"
      },
      "setPendingGovernor(address)": {
        "params": {
          "_pendingGovernor": "Address of the proposed new governor"
        }
      }
    },
    "stateVariables": {
      "lastPoolStateObserved": {
        "params": {
          "_poolSalt": "The id of both the oracle and the pool"
        },
        "returns": {
          "arithmeticMeanTick": "Last observed arithmeticMeanTick",
          "blockTimestamp": "Last observed timestamp",
          "poolNonce": "Nonce of the last observation",
          "tickCumulative": "Pool's tickCumulative at last observed timestamp"
        }
      }
    },
    "version": 1
  },
  "userdoc": {
    "errors": {
      "OnlyGovernor()": [
        {
          "notice": "Throws if a non-governor user tries to call a OnlyGovernor function"
        }
      ],
      "OnlyPendingGovernor()": [
        {
          "notice": "Throws if a non-pending-governor user tries to call a OnlyPendingGovernor function"
        }
      ],
      "ZeroAddress()": [
        {
          "notice": "Throws if a variable is assigned to the zero address"
        }
      ]
    },
    "events": {
      "PendingGovernorAccepted(address)": {
        "notice": "Emitted when a new governor is set"
      },
      "PendingGovernorSet(address,address)": {
        "notice": "Emitted when a new pending governor is set"
      }
    },
    "kind": "user",
    "methods": {
      "acceptPendingGovernor()": {
        "notice": "Allows a proposed governor to accept the governance"
      },
      "lastPoolStateObserved(bytes32)": {
        "notice": "Tracks the last observed pool state by salt"
      },
      "setPendingGovernor(address)": {
        "notice": "Allows a governor to propose a new governor"
      }
    },
    "version": 1
  },
  "storageLayout": {
    "storage": [
      {
        "astId": 12273,
        "contract": "solidity/contracts/DataFeed.sol:DataFeed",
        "label": "governor",
        "offset": 0,
        "slot": "0",
        "type": "t_address"
      },
      {
        "astId": 12276,
        "contract": "solidity/contracts/DataFeed.sol:DataFeed",
        "label": "pendingGovernor",
        "offset": 0,
        "slot": "1",
        "type": "t_address"
      },
      {
        "astId": 12490,
        "contract": "solidity/contracts/DataFeed.sol:DataFeed",
        "label": "_whitelistedPools",
        "offset": 0,
        "slot": "2",
        "type": "t_struct(Bytes32Set)10110_storage"
      },
      {
        "astId": 12497,
        "contract": "solidity/contracts/DataFeed.sol:DataFeed",
        "label": "whitelistedNonces",
        "offset": 0,
        "slot": "4",
        "type": "t_mapping(t_uint16,t_mapping(t_bytes32,t_uint24))"
      },
      {
        "astId": 12503,
        "contract": "solidity/contracts/DataFeed.sol:DataFeed",
        "label": "whitelistedAdapters",
        "offset": 0,
        "slot": "5",
        "type": "t_mapping(t_contract(IBridgeSenderAdapter)13674,t_bool)"
      },
      {
        "astId": 12511,
        "contract": "solidity/contracts/DataFeed.sol:DataFeed",
        "label": "destinationDomainIds",
        "offset": 0,
        "slot": "6",
        "type": "t_mapping(t_contract(IBridgeSenderAdapter)13674,t_mapping(t_uint16,t_uint32))"
      },
      {
        "astId": 12519,
        "contract": "solidity/contracts/DataFeed.sol:DataFeed",
        "label": "receivers",
        "offset": 0,
        "slot": "7",
        "type": "t_mapping(t_contract(IBridgeSenderAdapter)13674,t_mapping(t_uint32,t_address))"
      },
      {
        "astId": 11014,
        "contract": "solidity/contracts/DataFeed.sol:DataFeed",
        "label": "keeper",
        "offset": 0,
        "slot": "8",
        "type": "t_contract(IDataFeedKeeper)13290"
      },
      {
        "astId": 11020,
        "contract": "solidity/contracts/DataFeed.sol:DataFeed",
        "label": "lastPoolStateObserved",
        "offset": 0,
        "slot": "9",
        "type": "t_mapping(t_bytes32,t_struct(PoolState)13061_storage)"
      },
      {
        "astId": 11024,
        "contract": "solidity/contracts/DataFeed.sol:DataFeed",
        "label": "_observedKeccak",
        "offset": 0,
        "slot": "10",
        "type": "t_mapping(t_bytes32,t_bool)"
      }
    ],
    "types": {
      "t_address": {
        "encoding": "inplace",
        "label": "address",
        "numberOfBytes": "20"
      },
      "t_array(t_bytes32)dyn_storage": {
        "base": "t_bytes32",
        "encoding": "dynamic_array",
        "label": "bytes32[]",
        "numberOfBytes": "32"
      },
      "t_bool": {
        "encoding": "inplace",
        "label": "bool",
        "numberOfBytes": "1"
      },
      "t_bytes32": {
        "encoding": "inplace",
        "label": "bytes32",
        "numberOfBytes": "32"
      },
      "t_contract(IBridgeSenderAdapter)13674": {
        "encoding": "inplace",
        "label": "contract IBridgeSenderAdapter",
        "numberOfBytes": "20"
      },
      "t_contract(IDataFeedKeeper)13290": {
        "encoding": "inplace",
        "label": "contract IDataFeedKeeper",
        "numberOfBytes": "20"
      },
      "t_int24": {
        "encoding": "inplace",
        "label": "int24",
        "numberOfBytes": "3"
      },
      "t_int56": {
        "encoding": "inplace",
        "label": "int56",
        "numberOfBytes": "7"
      },
      "t_mapping(t_bytes32,t_bool)": {
        "encoding": "mapping",
        "key": "t_bytes32",
        "label": "mapping(bytes32 => bool)",
        "numberOfBytes": "32",
        "value": "t_bool"
      },
      "t_mapping(t_bytes32,t_struct(PoolState)13061_storage)": {
        "encoding": "mapping",
        "key": "t_bytes32",
        "label": "mapping(bytes32 => struct IDataFeed.PoolState)",
        "numberOfBytes": "32",
        "value": "t_struct(PoolState)13061_storage"
      },
      "t_mapping(t_bytes32,t_uint24)": {
        "encoding": "mapping",
        "key": "t_bytes32",
        "label": "mapping(bytes32 => uint24)",
        "numberOfBytes": "32",
        "value": "t_uint24"
      },
      "t_mapping(t_bytes32,t_uint256)": {
        "encoding": "mapping",
        "key": "t_bytes32",
        "label": "mapping(bytes32 => uint256)",
        "numberOfBytes": "32",
        "value": "t_uint256"
      },
      "t_mapping(t_contract(IBridgeSenderAdapter)13674,t_bool)": {
        "encoding": "mapping",
        "key": "t_contract(IBridgeSenderAdapter)13674",
        "label": "mapping(contract IBridgeSenderAdapter => bool)",
        "numberOfBytes": "32",
        "value": "t_bool"
      },
      "t_mapping(t_contract(IBridgeSenderAdapter)13674,t_mapping(t_uint16,t_uint32))": {
        "encoding": "mapping",
        "key": "t_contract(IBridgeSenderAdapter)13674",
        "label": "mapping(contract IBridgeSenderAdapter => mapping(uint16 => uint32))",
        "numberOfBytes": "32",
        "value": "t_mapping(t_uint16,t_uint32)"
      },
      "t_mapping(t_contract(IBridgeSenderAdapter)13674,t_mapping(t_uint32,t_address))": {
        "encoding": "mapping",
        "key": "t_contract(IBridgeSenderAdapter)13674",
        "label": "mapping(contract IBridgeSenderAdapter => mapping(uint32 => address))",
        "numberOfBytes": "32",
        "value": "t_mapping(t_uint32,t_address)"
      },
      "t_mapping(t_uint16,t_mapping(t_bytes32,t_uint24))": {
        "encoding": "mapping",
        "key": "t_uint16",
        "label": "mapping(uint16 => mapping(bytes32 => uint24))",
        "numberOfBytes": "32",
        "value": "t_mapping(t_bytes32,t_uint24)"
      },
      "t_mapping(t_uint16,t_uint32)": {
        "encoding": "mapping",
        "key": "t_uint16",
        "label": "mapping(uint16 => uint32)",
        "numberOfBytes": "32",
        "value": "t_uint32"
      },
      "t_mapping(t_uint32,t_address)": {
        "encoding": "mapping",
        "key": "t_uint32",
        "label": "mapping(uint32 => address)",
        "numberOfBytes": "32",
        "value": "t_address"
      },
      "t_struct(Bytes32Set)10110_storage": {
        "encoding": "inplace",
        "label": "struct EnumerableSet.Bytes32Set",
        "members": [
          {
            "astId": 10109,
            "contract": "solidity/contracts/DataFeed.sol:DataFeed",
            "label": "_inner",
            "offset": 0,
            "slot": "0",
            "type": "t_struct(Set)9916_storage"
          }
        ],
        "numberOfBytes": "64"
      },
      "t_struct(PoolState)13061_storage": {
        "encoding": "inplace",
        "label": "struct IDataFeed.PoolState",
        "members": [
          {
            "astId": 13054,
            "contract": "solidity/contracts/DataFeed.sol:DataFeed",
            "label": "poolNonce",
            "offset": 0,
            "slot": "0",
            "type": "t_uint24"
          },
          {
            "astId": 13056,
            "contract": "solidity/contracts/DataFeed.sol:DataFeed",
            "label": "blockTimestamp",
            "offset": 3,
            "slot": "0",
            "type": "t_uint32"
          },
          {
            "astId": 13058,
            "contract": "solidity/contracts/DataFeed.sol:DataFeed",
            "label": "tickCumulative",
            "offset": 7,
            "slot": "0",
            "type": "t_int56"
          },
          {
            "astId": 13060,
            "contract": "solidity/contracts/DataFeed.sol:DataFeed",
            "label": "arithmeticMeanTick",
            "offset": 14,
            "slot": "0",
            "type": "t_int24"
          }
        ],
        "numberOfBytes": "32"
      },
      "t_struct(Set)9916_storage": {
        "encoding": "inplace",
        "label": "struct EnumerableSet.Set",
        "members": [
          {
            "astId": 9911,
            "contract": "solidity/contracts/DataFeed.sol:DataFeed",
            "label": "_values",
            "offset": 0,
            "slot": "0",
            "type": "t_array(t_bytes32)dyn_storage"
          },
          {
            "astId": 9915,
            "contract": "solidity/contracts/DataFeed.sol:DataFeed",
            "label": "_indexes",
            "offset": 0,
            "slot": "1",
            "type": "t_mapping(t_bytes32,t_uint256)"
          }
        ],
        "numberOfBytes": "64"
      },
      "t_uint16": {
        "encoding": "inplace",
        "label": "uint16",
        "numberOfBytes": "2"
      },
      "t_uint24": {
        "encoding": "inplace",
        "label": "uint24",
        "numberOfBytes": "3"
      },
      "t_uint256": {
        "encoding": "inplace",
        "label": "uint256",
        "numberOfBytes": "32"
      },
      "t_uint32": {
        "encoding": "inplace",
        "label": "uint32",
        "numberOfBytes": "4"
      }
    }
  }
}