{
  "address": "0xa09683377E5cE0bB7eEa90D2b64e3644f7eA1B8a",
  "abi": [
    {
      "inputs": [
        {
          "internalType": "address",
          "name": "_governor",
          "type": "address"
        },
        {
          "internalType": "contract IOracleFactory",
          "name": "_oracleFactory",
          "type": "address"
        }
      ],
      "stateMutability": "nonpayable",
      "type": "constructor"
    },
    {
      "inputs": [],
      "name": "LengthMismatch",
      "type": "error"
    },
    {
      "inputs": [],
      "name": "ObservationsNotWritable",
      "type": "error"
    },
    {
      "inputs": [],
      "name": "OnlyGovernor",
      "type": "error"
    },
    {
      "inputs": [],
      "name": "OnlyPendingGovernor",
      "type": "error"
    },
    {
      "inputs": [],
      "name": "UnallowedAdapter",
      "type": "error"
    },
    {
      "inputs": [],
      "name": "ZeroAddress",
      "type": "error"
    },
    {
      "anonymous": false,
      "inputs": [
        {
          "indexed": false,
          "internalType": "contract IBridgeReceiverAdapter",
          "name": "_adapter",
          "type": "address"
        },
        {
          "indexed": false,
          "internalType": "bool",
          "name": "_isAllowed",
          "type": "bool"
        }
      ],
      "name": "AdapterWhitelisted",
      "type": "event"
    },
    {
      "anonymous": false,
      "inputs": [
        {
          "indexed": true,
          "internalType": "bytes32",
          "name": "_poolSalt",
          "type": "bytes32"
        },
        {
          "indexed": false,
          "internalType": "uint24",
          "name": "_poolNonce",
          "type": "uint24"
        },
        {
          "components": [
            {
              "internalType": "uint32",
              "name": "blockTimestamp",
              "type": "uint32"
            },
            {
              "internalType": "int24",
              "name": "tick",
              "type": "int24"
            }
          ],
          "indexed": false,
          "internalType": "struct IOracleSidechain.ObservationData[]",
          "name": "_observationsData",
          "type": "tuple[]"
        },
        {
          "indexed": false,
          "internalType": "address",
          "name": "_receiverAdapter",
          "type": "address"
        }
      ],
      "name": "ObservationsAdded",
      "type": "event"
    },
    {
      "anonymous": false,
      "inputs": [
        {
          "indexed": false,
          "internalType": "address",
          "name": "_newGovernor",
          "type": "address"
        }
      ],
      "name": "PendingGovernorAccepted",
      "type": "event"
    },
    {
      "anonymous": false,
      "inputs": [
        {
          "indexed": false,
          "internalType": "address",
          "name": "_governor",
          "type": "address"
        },
        {
          "indexed": false,
          "internalType": "address",
          "name": "_pendingGovernor",
          "type": "address"
        }
      ],
      "name": "PendingGovernorSet",
      "type": "event"
    },
    {
      "inputs": [],
      "name": "ORACLE_INIT_CODE_HASH",
      "outputs": [
        {
          "internalType": "bytes32",
          "name": "",
          "type": "bytes32"
        }
      ],
      "stateMutability": "view",
      "type": "function"
    },
    {
      "inputs": [],
      "name": "acceptPendingGovernor",
      "outputs": [],
      "stateMutability": "nonpayable",
      "type": "function"
    },
    {
      "inputs": [
        {
          "components": [
            {
              "internalType": "uint32",
              "name": "blockTimestamp",
              "type": "uint32"
            },
            {
              "internalType": "int24",
              "name": "tick",
              "type": "int24"
            }
          ],
          "internalType": "struct IOracleSidechain.ObservationData[]",
          "name": "_observationsData",
          "type": "tuple[]"
        },
        {
          "internalType": "bytes32",
          "name": "_poolSalt",
          "type": "bytes32"
        },
        {
          "internalType": "uint24",
          "name": "_poolNonce",
          "type": "uint24"
        }
      ],
      "name": "addObservations",
      "outputs": [],
      "stateMutability": "nonpayable",
      "type": "function"
    },
    {
      "inputs": [
        {
          "internalType": "bytes32",
          "name": "",
          "type": "bytes32"
        }
      ],
      "name": "deployedOracles",
      "outputs": [
        {
          "internalType": "contract IOracleSidechain",
          "name": "",
          "type": "address"
        }
      ],
      "stateMutability": "view",
      "type": "function"
    },
    {
      "inputs": [],
      "name": "governor",
      "outputs": [
        {
          "internalType": "address",
          "name": "",
          "type": "address"
        }
      ],
      "stateMutability": "view",
      "type": "function"
    },
    {
      "inputs": [],
      "name": "oracleFactory",
      "outputs": [
        {
          "internalType": "contract IOracleFactory",
          "name": "",
          "type": "address"
        }
      ],
      "stateMutability": "view",
      "type": "function"
    },
    {
      "inputs": [],
      "name": "pendingGovernor",
      "outputs": [
        {
          "internalType": "address",
          "name": "",
          "type": "address"
        }
      ],
      "stateMutability": "view",
      "type": "function"
    },
    {
      "inputs": [
        {
          "internalType": "address",
          "name": "_pendingGovernor",
          "type": "address"
        }
      ],
      "name": "setPendingGovernor",
      "outputs": [],
      "stateMutability": "nonpayable",
      "type": "function"
    },
    {
      "inputs": [
        {
          "internalType": "contract IBridgeReceiverAdapter",
          "name": "_receiverAdapter",
          "type": "address"
        },
        {
          "internalType": "bool",
          "name": "_isWhitelisted",
          "type": "bool"
        }
      ],
      "name": "whitelistAdapter",
      "outputs": [],
      "stateMutability": "nonpayable",
      "type": "function"
    },
    {
      "inputs": [
        {
          "internalType": "contract IBridgeReceiverAdapter[]",
          "name": "_receiverAdapters",
          "type": "address[]"
        },
        {
          "internalType": "bool[]",
          "name": "_isWhitelisted",
          "type": "bool[]"
        }
      ],
      "name": "whitelistAdapters",
      "outputs": [],
      "stateMutability": "nonpayable",
      "type": "function"
    },
    {
      "inputs": [
        {
          "internalType": "contract IBridgeReceiverAdapter",
          "name": "",
          "type": "address"
        }
      ],
      "name": "whitelistedAdapters",
      "outputs": [
        {
          "internalType": "bool",
          "name": "",
          "type": "bool"
        }
      ],
      "stateMutability": "view",
      "type": "function"
    }
  ],
  "transactionHash": "0x1ec87fa6dceee0781c0990ceffafda855ebcb2bd0601827648db995c23ecb6c6",
  "args": [
    "0x57B067e4E27558FE2c60fCE86941011cB5F5A4FD",
    "0x0594Dc74043b93Bdb371f01187704C98D45bd4E6"
  ],
  "numDeployments": 4,
  "solcInputHash": "6ea130270d4eff754db1ae9fca977fb0",
  "bytecode": "0x60a060405234801561001057600080fd5b50604051610c67380380610c6783398101604081905261002f91610095565b816001600160a01b0381166100575760405163d92e233d60e01b815260040160405180910390fd5b600080546001600160a01b0319166001600160a01b0392831617905516608052506100cf565b6001600160a01b038116811461009257600080fd5b50565b600080604083850312156100a857600080fd5b82516100b38161007d565b60208401519092506100c48161007d565b809150509250929050565b608051610b6f6100f8600039600081816101a401528181610498015261053c0152610b6f6000f3fe608060405234801561001057600080fd5b50600436106100a95760003560e01c8063954e863e11610071578063954e863e14610159578063b893cce21461016c578063c7f7fb901461019f578063d34ad409146101c6578063e3056a34146101d9578063f235757f146101ec57600080fd5b80630c340a24146100ae5780630ddb5dd2146100de57806313f6986d146100f35780636607baca146100fb57806391a0b97914610124575b600080fd5b6000546100c1906001600160a01b031681565b6040516001600160a01b0390911681526020015b60405180910390f35b6100f16100ec366004610787565b6101ff565b005b6100f16102bf565b6100c16101093660046107f3565b6002602052600090815260409020546001600160a01b031681565b61014b7f81a14d5bbd761f94f91b3251dcb81827627068b092edb305c98f3799dcf10da281565b6040519081526020016100d5565b6100f161016736600461082f565b6102f4565b61018f61017a366004610868565b60036020526000908152604090205460ff1681565b60405190151581526020016100d5565b6100c17f000000000000000000000000000000000000000000000000000000000000000081565b6100f16101d4366004610914565b61032d565b6001546100c1906001600160a01b031681565b6100f16101fa366004610868565b61036d565b6000546001600160a01b0316331461022a5760405163070545c960e51b815260040160405180910390fd5b8281811461024e576040516001621398b960e31b0319815260040160405180910390fd5b60005b818110156102b7576102af86868381811061026e5761026e610a20565b90506020020160208101906102839190610868565b85858481811061029557610295610a20565b90506020020160208101906102aa9190610a36565b6103a4565b600101610251565b505050505050565b6001546001600160a01b031633146102ea57604051639ba0305d60e01b815260040160405180910390fd5b6102f2610407565b565b6000546001600160a01b0316331461031f5760405163070545c960e51b815260040160405180910390fd5b61032982826103a4565b5050565b3360009081526003602052604090205460ff1661035d576040516360ece74160e01b815260040160405180910390fd5b610368838383610465565b505050565b6000546001600160a01b031633146103985760405163070545c960e51b815260040160405180910390fd5b6103a1816106b2565b50565b6001600160a01b038216600081815260036020908152604091829020805460ff19168515159081179091558251938452908301527f3cece36ac6216147f57b10bb30975f82b18b8b290a7925c322277e684afcce4a910160405180910390a15050565b60018054600080546001600160a01b0383166001600160a01b031991821681179092559091169091556040519081527f5d5d6e01b731c3e68060f7fe13156f6197d4aeffc2d6f498e34c717ae616b7349060200160405180910390a1565b6000828152600260205260409020546001600160a01b0316806105dc5760405163f6c0092760e01b8152600481018490527f00000000000000000000000000000000000000000000000000000000000000006001600160a01b03169063f6c0092790602401602060405180830381865afa1580156104e7573d6000803e3d6000fd5b505050506040513d601f19601f8201168201806040525081019061050b9190610a53565b90506001600160a01b0381166105b457604051632e60fe9b60e11b81526004810184905262ffffff831660248201527f00000000000000000000000000000000000000000000000000000000000000006001600160a01b031690635cc1fd36906044016020604051808303816000875af115801561058d573d6000803e3d6000fd5b505050506040513d601f19601f820116820180604052508101906105b19190610a53565b90505b600083815260026020526040902080546001600160a01b0319166001600160a01b0383161790555b6040516308f944b560e21b81526001600160a01b038216906323e512d49061060a9087908690600401610abf565b6020604051808303816000875af1158015610629573d6000803e3d6000fd5b505050506040513d601f19601f8201168201806040525081019061064d9190610ae6565b1561069357827fb3f205f9831d2225c91718a340701f53f3e0d675a56498add8fbc5a96fabf60d83863360405161068693929190610b03565b60405180910390a26106ac565b604051630a96dcbd60e11b815260040160405180910390fd5b50505050565b6001600160a01b0381166106d95760405163d92e233d60e01b815260040160405180910390fd5b600180546001600160a01b0319166001600160a01b038381169182179092556000546040805191909316815260208101919091527f6353ec38ac394f8be94bfafcdd3580d356470599059eaeebedc3207e1cc03dec910160405180910390a150565b60008083601f84011261074d57600080fd5b50813567ffffffffffffffff81111561076557600080fd5b6020830191508360208260051b850101111561078057600080fd5b9250929050565b6000806000806040858703121561079d57600080fd5b843567ffffffffffffffff808211156107b557600080fd5b6107c18883890161073b565b909650945060208701359150808211156107da57600080fd5b506107e78782880161073b565b95989497509550505050565b60006020828403121561080557600080fd5b5035919050565b6001600160a01b03811681146103a157600080fd5b80151581146103a157600080fd5b6000806040838503121561084257600080fd5b823561084d8161080c565b9150602083013561085d81610821565b809150509250929050565b60006020828403121561087a57600080fd5b81356108858161080c565b9392505050565b634e487b7160e01b600052604160045260246000fd5b6040805190810167ffffffffffffffff811182821017156108c5576108c561088c565b60405290565b604051601f8201601f1916810167ffffffffffffffff811182821017156108f4576108f461088c565b604052919050565b803562ffffff8116811461090f57600080fd5b919050565b60008060006060848603121561092957600080fd5b833567ffffffffffffffff8082111561094157600080fd5b818601915086601f83011261095557600080fd5b81356020828211156109695761096961088c565b610977818360051b016108cb565b828152818101935060069290921b84018101918983111561099757600080fd5b938101935b828510156109ff576040858b0312156109b55760008081fd5b6109bd6108a2565b853563ffffffff811681146109d25760008081fd5b815285830135600281900b81146109e95760008081fd5b818401528452604094909401939281019261099c565b96508701359450610a179250506040860190506108fc565b90509250925092565b634e487b7160e01b600052603260045260246000fd5b600060208284031215610a4857600080fd5b813561088581610821565b600060208284031215610a6557600080fd5b81516108858161080c565b600081518084526020808501945080840160005b83811015610ab4578151805163ffffffff16885283015160020b8388015260409096019590820190600101610a84565b509495945050505050565b604081526000610ad26040830185610a70565b905062ffffff831660208301529392505050565b600060208284031215610af857600080fd5b815161088581610821565b62ffffff84168152606060208201526000610b216060830185610a70565b905060018060a01b038316604083015294935050505056fea2646970667358221220f9e224bd6a7ed2972ec997a068a1d5d9375b3bd7958cccc9ffc27ba7b0ae2c5e64736f6c634300080f0033",
  "devdoc": {
    "kind": "dev",
    "methods": {
      "addObservations((uint32,int24)[],bytes32,uint24)": {
        "params": {
          "_observationsData": "Array of tuples containing the dataset",
          "_poolNonce": "Nonce of the observation broadcast",
          "_poolSalt": "Identifier of the pool to fetch"
        }
      },
      "setPendingGovernor(address)": {
        "params": {
          "_pendingGovernor": "Address of the proposed new governor"
        }
      },
      "whitelistAdapter(address,bool)": {
        "params": {
          "_isWhitelisted": "New whitelisting status",
          "_receiverAdapter": "Address of the adapter"
        }
      },
      "whitelistAdapters(address[],bool[])": {
        "params": {
          "_isWhitelisted": "Array of whitelisting status for each address",
          "_receiverAdapters": "Array of addresses of the adapter"
        }
      }
    },
    "stateVariables": {
      "ORACLE_INIT_CODE_HASH": {
        "return": "The oracle creation code hash used to calculate their address",
        "returns": {
          "_0": "The oracle creation code hash used to calculate their address"
        }
      },
      "deployedOracles": {
        "params": {
          "_poolSalt": "The identifier of the oracle"
        },
        "return": "The address of the correspondant Oracle",
        "returns": {
          "_0": "The address of the correspondant Oracle"
        }
      },
      "oracleFactory": {
        "return": "The address of the OracleFactory",
        "returns": {
          "_0": "The address of the OracleFactory"
        }
      },
      "whitelistedAdapters": {
        "params": {
          "_adapter": "Address of the bridge adapter to consult"
        },
        "return": "Whether a bridge adapter is whitelisted",
        "returns": {
          "_0": "Whether a bridge adapter is whitelisted"
        }
      }
    },
    "title": "The DataReceiver contract",
    "version": 1
  },
  "userdoc": {
    "errors": {
      "LengthMismatch()": [
        {
          "notice": "Thrown when mismatching lists length"
        }
      ],
      "ObservationsNotWritable()": [
        {
          "notice": "Thrown when the broadcast nonce is incorrect"
        }
      ],
      "OnlyGovernor()": [
        {
          "notice": "Throws if a non-governor user tries to call a OnlyGovernor function"
        }
      ],
      "OnlyPendingGovernor()": [
        {
          "notice": "Throws if a non-pending-governor user tries to call a OnlyPendingGovernor function"
        }
      ],
      "UnallowedAdapter()": [
        {
          "notice": "Thrown when a not-whitelisted adapter triggers an update"
        }
      ],
      "ZeroAddress()": [
        {
          "notice": "Throws if a variable is assigned to the zero address"
        }
      ]
    },
    "events": {
      "AdapterWhitelisted(address,bool)": {
        "notice": "Emitted when a new adapter whitelisting rule is set"
      },
      "ObservationsAdded(bytes32,uint24,(uint32,int24)[],address)": {
        "notice": "Emitted when a broadcast observation is succesfully processed"
      },
      "PendingGovernorAccepted(address)": {
        "notice": "Emitted when a new governor is set"
      },
      "PendingGovernorSet(address,address)": {
        "notice": "Emitted when a new pending governor is set"
      }
    },
    "kind": "user",
    "methods": {
      "acceptPendingGovernor()": {
        "notice": "Allows a proposed governor to accept the governance"
      },
      "addObservations((uint32,int24)[],bytes32,uint24)": {
        "notice": "Allows whitelisted bridge adapters to push a broadcast"
      },
      "deployedOracles(bytes32)": {
        "notice": "Tracks already deployed oracles"
      },
      "setPendingGovernor(address)": {
        "notice": "Allows a governor to propose a new governor"
      },
      "whitelistAdapter(address,bool)": {
        "notice": "Allows governance to set an adapter whitelisted state"
      },
      "whitelistAdapters(address[],bool[])": {
        "notice": "Allows governance to batch set adapters whitelisted state"
      },
      "whitelistedAdapters(address)": {
        "notice": "Tracks the whitelisting of bridge adapters"
      }
    },
    "notice": "Handles reception of broadcast data and delivers it to correspondant oracle",
    "version": 1
  },
  "storageLayout": {
    "storage": [
      {
        "astId": 2002,
        "contract": "solidity/contracts/DataReceiver.sol:DataReceiver",
        "label": "governor",
        "offset": 0,
        "slot": "0",
        "type": "t_address"
      },
      {
        "astId": 2005,
        "contract": "solidity/contracts/DataReceiver.sol:DataReceiver",
        "label": "pendingGovernor",
        "offset": 0,
        "slot": "1",
        "type": "t_address"
      },
      {
        "astId": 1374,
        "contract": "solidity/contracts/DataReceiver.sol:DataReceiver",
        "label": "deployedOracles",
        "offset": 0,
        "slot": "2",
        "type": "t_mapping(t_bytes32,t_contract(IOracleSidechain)2620)"
      },
      {
        "astId": 1380,
        "contract": "solidity/contracts/DataReceiver.sol:DataReceiver",
        "label": "whitelistedAdapters",
        "offset": 0,
        "slot": "3",
        "type": "t_mapping(t_contract(IBridgeReceiverAdapter)2635,t_bool)"
      }
    ],
    "types": {
      "t_address": {
        "encoding": "inplace",
        "label": "address",
        "numberOfBytes": "20"
      },
      "t_bool": {
        "encoding": "inplace",
        "label": "bool",
        "numberOfBytes": "1"
      },
      "t_bytes32": {
        "encoding": "inplace",
        "label": "bytes32",
        "numberOfBytes": "32"
      },
      "t_contract(IBridgeReceiverAdapter)2635": {
        "encoding": "inplace",
        "label": "contract IBridgeReceiverAdapter",
        "numberOfBytes": "20"
      },
      "t_contract(IOracleSidechain)2620": {
        "encoding": "inplace",
        "label": "contract IOracleSidechain",
        "numberOfBytes": "20"
      },
      "t_mapping(t_bytes32,t_contract(IOracleSidechain)2620)": {
        "encoding": "mapping",
        "key": "t_bytes32",
        "label": "mapping(bytes32 => contract IOracleSidechain)",
        "numberOfBytes": "32",
        "value": "t_contract(IOracleSidechain)2620"
      },
      "t_mapping(t_contract(IBridgeReceiverAdapter)2635,t_bool)": {
        "encoding": "mapping",
        "key": "t_contract(IBridgeReceiverAdapter)2635",
        "label": "mapping(contract IBridgeReceiverAdapter => bool)",
        "numberOfBytes": "32",
        "value": "t_bool"
      }
    }
  }
}