{
  "address": "0xd20e90Ea345Ba7bAd69402F3E3424aEE5ADde0e2",
  "abi": [
    {
      "inputs": [
        {
          "internalType": "contract IOracleSidechain",
          "name": "_oracleSidechain",
          "type": "address"
        }
      ],
      "stateMutability": "nonpayable",
      "type": "constructor"
    },
    {
      "inputs": [
        {
          "internalType": "uint32",
          "name": "blockTimestamp",
          "type": "uint32"
        }
      ],
      "name": "ObservationNotWritable",
      "type": "error"
    },
    {
      "anonymous": false,
      "inputs": [
        {
          "indexed": false,
          "internalType": "address",
          "name": "user",
          "type": "address"
        },
        {
          "indexed": false,
          "internalType": "uint32",
          "name": "blockTimestamp",
          "type": "uint32"
        },
        {
          "indexed": false,
          "internalType": "int24",
          "name": "tick",
          "type": "int24"
        }
      ],
      "name": "ObservationAdded",
      "type": "event"
    },
    {
      "inputs": [
        {
          "internalType": "uint32",
          "name": "_blockTimestamp",
          "type": "uint32"
        },
        {
          "internalType": "int24",
          "name": "_tick",
          "type": "int24"
        }
      ],
      "name": "addObservation",
      "outputs": [],
      "stateMutability": "nonpayable",
      "type": "function"
    },
    {
      "inputs": [],
      "name": "oracleSidechain",
      "outputs": [
        {
          "internalType": "contract IOracleSidechain",
          "name": "",
          "type": "address"
        }
      ],
      "stateMutability": "view",
      "type": "function"
    }
  ],
  "transactionHash": "0x8cc011d1d73159176ad1aa7a45e391fbc33da60aad33ffe431a6dbeb8701e725",
  "args": [
    "0xD2D12509179a15bA5B19514268EA475118430fC9"
  ],
  "numDeployments": 1,
  "solcInputHash": "8760d5df28a0ea01be19d82883131c49",
  "bytecode": "0x60a060405234801561001057600080fd5b506040516102db3803806102db83398101604081905261002f91610040565b6001600160a01b0316608052610070565b60006020828403121561005257600080fd5b81516001600160a01b038116811461006957600080fd5b9392505050565b60805161024b610090600039600081816040015260b8015261024b6000f3fe608060405234801561001057600080fd5b50600436106100365760003560e01c80639dad31451461003b578063b17145581461007e575b600080fd5b6100627f000000000000000000000000000000000000000000000000000000000000000081565b6040516001600160a01b03909116815260200160405180910390f35b61009161008c3660046101a3565b610093565b005b604051631147360360e31b815263ffffffff83166004820152600282900b60248201527f00000000000000000000000000000000000000000000000000000000000000006001600160a01b031690638a39b018906044016020604051808303816000875af1158015610109573d6000803e3d6000fd5b505050506040513d601f19601f8201168201806040525081019061012d91906101ec565b1561017e576040805133815263ffffffff84166020820152600283900b8183015290517f5a5848a7b07f71483ca0d7217689f80dc2d3bc6c2f64dd295c8227ecde7fbd7a9181900360600190a15050565b60405163732fe5ed60e11b815263ffffffff8316600482015260240160405180910390fd5b600080604083850312156101b657600080fd5b823563ffffffff811681146101ca57600080fd5b91506020830135600281900b81146101e157600080fd5b809150509250929050565b6000602082840312156101fe57600080fd5b8151801515811461020e57600080fd5b939250505056fea2646970667358221220a14b0d76cb546e98c353ced81911b25128b7bee06973bfd7a01dabaaf80ef84d64736f6c634300080c0033",
  "devdoc": {
    "kind": "dev",
    "methods": {},
    "version": 1
  },
  "userdoc": {
    "kind": "user",
    "methods": {},
    "version": 1
  },
  "storageLayout": {
    "storage": [],
    "types": null
  }
}