{
  "address": "0x2be79B43d924A91b7b4496EF6ECAA8690e8E50EC",
  "abi": [
    {
      "inputs": [
        {
          "internalType": "address",
          "name": "_governor",
          "type": "address"
        },
        {
          "internalType": "contract IOracleFactory",
          "name": "_oracleFactory",
          "type": "address"
        }
      ],
      "stateMutability": "nonpayable",
      "type": "constructor"
    },
    {
      "inputs": [],
      "name": "LengthMismatch",
      "type": "error"
    },
    {
      "inputs": [],
      "name": "ObservationsNotWritable",
      "type": "error"
    },
    {
      "inputs": [],
      "name": "OnlyGovernor",
      "type": "error"
    },
    {
      "inputs": [],
      "name": "OnlyPendingGovernor",
      "type": "error"
    },
    {
      "inputs": [],
      "name": "UnallowedAdapter",
      "type": "error"
    },
    {
      "inputs": [],
      "name": "ZeroAddress",
      "type": "error"
    },
    {
      "anonymous": false,
      "inputs": [
        {
          "indexed": false,
          "internalType": "contract IBridgeReceiverAdapter",
          "name": "_adapter",
          "type": "address"
        },
        {
          "indexed": false,
          "internalType": "bool",
          "name": "_isAllowed",
          "type": "bool"
        }
      ],
      "name": "AdapterWhitelisted",
      "type": "event"
    },
    {
      "anonymous": false,
      "inputs": [
        {
          "indexed": false,
          "internalType": "address",
          "name": "_user",
          "type": "address"
        },
        {
          "components": [
            {
              "internalType": "uint32",
              "name": "blockTimestamp",
              "type": "uint32"
            },
            {
              "internalType": "int24",
              "name": "tick",
              "type": "int24"
            }
          ],
          "indexed": false,
          "internalType": "struct IOracleSidechain.ObservationData[]",
          "name": "_observationsData",
          "type": "tuple[]"
        }
      ],
      "name": "ObservationsAdded",
      "type": "event"
    },
    {
      "anonymous": false,
      "inputs": [
        {
          "indexed": false,
          "internalType": "address",
          "name": "_newGovernor",
          "type": "address"
        }
      ],
      "name": "PendingGovernorAccepted",
      "type": "event"
    },
    {
      "anonymous": false,
      "inputs": [
        {
          "indexed": false,
          "internalType": "address",
          "name": "_governor",
          "type": "address"
        },
        {
          "indexed": false,
          "internalType": "address",
          "name": "_pendingGovernor",
          "type": "address"
        }
      ],
      "name": "PendingGovernorSet",
      "type": "event"
    },
    {
      "inputs": [],
      "name": "ORACLE_INIT_CODE_HASH",
      "outputs": [
        {
          "internalType": "bytes32",
          "name": "",
          "type": "bytes32"
        }
      ],
      "stateMutability": "view",
      "type": "function"
    },
    {
      "inputs": [],
      "name": "acceptPendingGovernor",
      "outputs": [],
      "stateMutability": "nonpayable",
      "type": "function"
    },
    {
      "inputs": [
        {
          "components": [
            {
              "internalType": "uint32",
              "name": "blockTimestamp",
              "type": "uint32"
            },
            {
              "internalType": "int24",
              "name": "tick",
              "type": "int24"
            }
          ],
          "internalType": "struct IOracleSidechain.ObservationData[]",
          "name": "_observationsData",
          "type": "tuple[]"
        },
        {
          "internalType": "bytes32",
          "name": "_poolSalt",
          "type": "bytes32"
        },
        {
          "internalType": "uint24",
          "name": "_poolNonce",
          "type": "uint24"
        }
      ],
      "name": "addObservations",
      "outputs": [],
      "stateMutability": "nonpayable",
      "type": "function"
    },
    {
      "inputs": [],
      "name": "governor",
      "outputs": [
        {
          "internalType": "address",
          "name": "",
          "type": "address"
        }
      ],
      "stateMutability": "view",
      "type": "function"
    },
    {
      "inputs": [],
      "name": "oracleFactory",
      "outputs": [
        {
          "internalType": "contract IOracleFactory",
          "name": "",
          "type": "address"
        }
      ],
      "stateMutability": "view",
      "type": "function"
    },
    {
      "inputs": [],
      "name": "pendingGovernor",
      "outputs": [
        {
          "internalType": "address",
          "name": "",
          "type": "address"
        }
      ],
      "stateMutability": "view",
      "type": "function"
    },
    {
      "inputs": [
        {
          "internalType": "address",
          "name": "_pendingGovernor",
          "type": "address"
        }
      ],
      "name": "setPendingGovernor",
      "outputs": [],
      "stateMutability": "nonpayable",
      "type": "function"
    },
    {
      "inputs": [
        {
          "internalType": "contract IBridgeReceiverAdapter",
          "name": "_receiverAdapter",
          "type": "address"
        },
        {
          "internalType": "bool",
          "name": "_isWhitelisted",
          "type": "bool"
        }
      ],
      "name": "whitelistAdapter",
      "outputs": [],
      "stateMutability": "nonpayable",
      "type": "function"
    },
    {
      "inputs": [
        {
          "internalType": "contract IBridgeReceiverAdapter[]",
          "name": "_receiverAdapters",
          "type": "address[]"
        },
        {
          "internalType": "bool[]",
          "name": "_isWhitelisted",
          "type": "bool[]"
        }
      ],
      "name": "whitelistAdapters",
      "outputs": [],
      "stateMutability": "nonpayable",
      "type": "function"
    },
    {
      "inputs": [
        {
          "internalType": "contract IBridgeReceiverAdapter",
          "name": "",
          "type": "address"
        }
      ],
      "name": "whitelistedAdapters",
      "outputs": [
        {
          "internalType": "bool",
          "name": "",
          "type": "bool"
        }
      ],
      "stateMutability": "view",
      "type": "function"
    }
  ],
  "transactionHash": "0xadd8b8af326df9bc031f35b6c5597086b560fe0af9a3d5d81a1a81e85477675a",
  "args": [
    "0x57B067e4E27558FE2c60fCE86941011cB5F5A4FD",
    "0xeA4C540e9f376D009391f221728e57291CFe040d"
  ],
  "numDeployments": 1,
  "solcInputHash": "e7fc03fa33df5bc693f224b1290bbe21",
  "bytecode": "0x608060405234801561001057600080fd5b50604051610b99380380610b9983398101604081905261002f916100a4565b816001600160a01b0381166100575760405163d92e233d60e01b815260040160405180910390fd5b600080546001600160a01b039283166001600160a01b03199182161790915560028054939092169216919091179055506100de565b6001600160a01b03811681146100a157600080fd5b50565b600080604083850312156100b757600080fd5b82516100c28161008c565b60208401519092506100d38161008c565b809150509250929050565b610aac806100ed6000396000f3fe608060405234801561001057600080fd5b506004361061009e5760003560e01c8063b893cce211610066578063b893cce214610138578063c7f7fb901461016b578063d34ad4091461017e578063e3056a3414610191578063f235757f146101a457600080fd5b80630c340a24146100a35780630ddb5dd2146100d357806313f6986d146100e857806391a0b979146100f0578063954e863e14610125575b600080fd5b6000546100b6906001600160a01b031681565b6040516001600160a01b0390911681526020015b60405180910390f35b6100e66100e13660046106e7565b6101b7565b005b6100e6610277565b6101177f3e18d4b938652a57468c33dc4c258bb737e09aa77bfb1b11ee92e6dad97685dc81565b6040519081526020016100ca565b6100e6610133366004610776565b6102ac565b61015b6101463660046107af565b60036020526000908152604090205460ff1681565b60405190151581526020016100ca565b6002546100b6906001600160a01b031681565b6100e661018c36600461085b565b6102e5565b6001546100b6906001600160a01b031681565b6100e66101b23660046107af565b610325565b6000546001600160a01b031633146101e25760405163070545c960e51b815260040160405180910390fd5b82818114610206576040516001621398b960e31b0319815260040160405180910390fd5b60005b8181101561026f5761026786868381811061022657610226610967565b905060200201602081019061023b91906107af565b85858481811061024d5761024d610967565b9050602002016020810190610262919061097d565b61035c565b600101610209565b505050505050565b6001546001600160a01b031633146102a257604051639ba0305d60e01b815260040160405180910390fd5b6102aa6103bf565b565b6000546001600160a01b031633146102d75760405163070545c960e51b815260040160405180910390fd5b6102e1828261035c565b5050565b3360009081526003602052604090205460ff16610315576040516360ece74160e01b815260040160405180910390fd5b61032083838361041d565b505050565b6000546001600160a01b031633146103505760405163070545c960e51b815260040160405180910390fd5b61035981610545565b50565b6001600160a01b038216600081815260036020908152604091829020805460ff19168515159081179091558251938452908301527f3cece36ac6216147f57b10bb30975f82b18b8b290a7925c322277e684afcce4a910160405180910390a15050565b60018054600080546001600160a01b0383166001600160a01b031991821681179092559091169091556040519081527f5d5d6e01b731c3e68060f7fe13156f6197d4aeffc2d6f498e34c717ae616b7349060200160405180910390a1565b600254604080516001600160f81b031960208083019190915260609390931b6bffffffffffffffffffffffff19166021820152603581018590527f3e18d4b938652a57468c33dc4c258bb737e09aa77bfb1b11ee92e6dad97685dc60558083019190915282518083039091018152607590910190915280519101206001600160a01b0381163b158015906104bd576104b68286856105ce565b5050505050565b600254604051632e60fe9b60e11b81526004810186905262ffffff851660248201526000916001600160a01b031690635cc1fd36906044016020604051808303816000875af1158015610514573d6000803e3d6000fd5b505050506040513d601f19601f82011682018060405250810190610538919061099a565b905061026f8187866105ce565b6001600160a01b03811661056c5760405163d92e233d60e01b815260040160405180910390fd5b600180546001600160a01b0319166001600160a01b038381169182179092556000546040805191909316815260208101919091527f6353ec38ac394f8be94bfafcdd3580d356470599059eaeebedc3207e1cc03dec910160405180910390a150565b6040516308f944b560e21b81526001600160a01b038416906323e512d4906105fc9085908590600401610a06565b6020604051808303816000875af115801561061b573d6000803e3d6000fd5b505050506040513d601f19601f8201168201806040525081019061063f9190610a2d565b15610682577f617afa62635b4d3e0901427201c347a24650276db5c920f7347d6d969bf256743383604051610675929190610a4a565b60405180910390a1505050565b604051630a96dcbd60e11b815260040160405180910390fd5b60008083601f8401126106ad57600080fd5b50813567ffffffffffffffff8111156106c557600080fd5b6020830191508360208260051b85010111156106e057600080fd5b9250929050565b600080600080604085870312156106fd57600080fd5b843567ffffffffffffffff8082111561071557600080fd5b6107218883890161069b565b9096509450602087013591508082111561073a57600080fd5b506107478782880161069b565b95989497509550505050565b6001600160a01b038116811461035957600080fd5b801515811461035957600080fd5b6000806040838503121561078957600080fd5b823561079481610753565b915060208301356107a481610768565b809150509250929050565b6000602082840312156107c157600080fd5b81356107cc81610753565b9392505050565b634e487b7160e01b600052604160045260246000fd5b6040805190810167ffffffffffffffff8111828210171561080c5761080c6107d3565b60405290565b604051601f8201601f1916810167ffffffffffffffff8111828210171561083b5761083b6107d3565b604052919050565b803562ffffff8116811461085657600080fd5b919050565b60008060006060848603121561087057600080fd5b833567ffffffffffffffff8082111561088857600080fd5b818601915086601f83011261089c57600080fd5b81356020828211156108b0576108b06107d3565b6108be818360051b01610812565b828152818101935060069290921b8401810191898311156108de57600080fd5b938101935b82851015610946576040858b0312156108fc5760008081fd5b6109046107e9565b853563ffffffff811681146109195760008081fd5b815285830135600281900b81146109305760008081fd5b81840152845260409490940193928101926108e3565b9650870135945061095e925050604086019050610843565b90509250925092565b634e487b7160e01b600052603260045260246000fd5b60006020828403121561098f57600080fd5b81356107cc81610768565b6000602082840312156109ac57600080fd5b81516107cc81610753565b600081518084526020808501945080840160005b838110156109fb578151805163ffffffff16885283015160020b83880152604090960195908201906001016109cb565b509495945050505050565b604081526000610a1960408301856109b7565b905062ffffff831660208301529392505050565b600060208284031215610a3f57600080fd5b81516107cc81610768565b6001600160a01b0383168152604060208201819052600090610a6e908301846109b7565b94935050505056fea264697066735822122082d6b67c92e373bd85a5586da238ab3b29145b430b3917ff26a6351d4ffe27a164736f6c634300080f0033",
  "devdoc": {
    "kind": "dev",
    "methods": {
      "setPendingGovernor(address)": {
        "params": {
          "_pendingGovernor": "Address of the proposed new governor"
        }
      }
    },
    "version": 1
  },
  "userdoc": {
    "errors": {
      "OnlyGovernor()": [
        {
          "notice": "Throws if a non-governor user tries to call a OnlyGovernor function"
        }
      ],
      "OnlyPendingGovernor()": [
        {
          "notice": "Throws if a non-pending-governor user tries to call a OnlyPendingGovernor function"
        }
      ],
      "ZeroAddress()": [
        {
          "notice": "Throws if a variable is assigned to the zero address"
        }
      ]
    },
    "events": {
      "PendingGovernorAccepted(address)": {
        "notice": "Emitted when a new governor is set"
      },
      "PendingGovernorSet(address,address)": {
        "notice": "Emitted when a new pending governor is set"
      }
    },
    "kind": "user",
    "methods": {
      "acceptPendingGovernor()": {
        "notice": "Allows a proposed governor to accept the governance"
      },
      "setPendingGovernor(address)": {
        "notice": "Allows a governor to propose a new governor"
      }
    },
    "version": 1
  },
  "storageLayout": {
    "storage": [
      {
        "astId": 14697,
        "contract": "solidity/contracts/DataReceiver.sol:DataReceiver",
        "label": "governor",
        "offset": 0,
        "slot": "0",
        "type": "t_address"
      },
      {
        "astId": 14700,
        "contract": "solidity/contracts/DataReceiver.sol:DataReceiver",
        "label": "pendingGovernor",
        "offset": 0,
        "slot": "1",
        "type": "t_address"
      },
      {
        "astId": 13608,
        "contract": "solidity/contracts/DataReceiver.sol:DataReceiver",
        "label": "oracleFactory",
        "offset": 0,
        "slot": "2",
        "type": "t_contract(IOracleFactory)16277"
      },
      {
        "astId": 13617,
        "contract": "solidity/contracts/DataReceiver.sol:DataReceiver",
        "label": "whitelistedAdapters",
        "offset": 0,
        "slot": "3",
        "type": "t_mapping(t_contract(IBridgeReceiverAdapter)16430,t_bool)"
      }
    ],
    "types": {
      "t_address": {
        "encoding": "inplace",
        "label": "address",
        "numberOfBytes": "20"
      },
      "t_bool": {
        "encoding": "inplace",
        "label": "bool",
        "numberOfBytes": "1"
      },
      "t_contract(IBridgeReceiverAdapter)16430": {
        "encoding": "inplace",
        "label": "contract IBridgeReceiverAdapter",
        "numberOfBytes": "20"
      },
      "t_contract(IOracleFactory)16277": {
        "encoding": "inplace",
        "label": "contract IOracleFactory",
        "numberOfBytes": "20"
      },
      "t_mapping(t_contract(IBridgeReceiverAdapter)16430,t_bool)": {
        "encoding": "mapping",
        "key": "t_contract(IBridgeReceiverAdapter)16430",
        "label": "mapping(contract IBridgeReceiverAdapter => bool)",
        "numberOfBytes": "32",
        "value": "t_bool"
      }
    }
  }
}