{
  "address": "0xeA4C540e9f376D009391f221728e57291CFe040d",
  "abi": [
    {
      "inputs": [
        {
          "internalType": "address",
          "name": "_governor",
          "type": "address"
        },
        {
          "internalType": "contract IDataReceiver",
          "name": "_dataReceiver",
          "type": "address"
        }
      ],
      "stateMutability": "nonpayable",
      "type": "constructor"
    },
    {
      "inputs": [],
      "name": "OnlyDataReceiver",
      "type": "error"
    },
    {
      "inputs": [],
      "name": "OnlyGovernor",
      "type": "error"
    },
    {
      "inputs": [],
      "name": "OnlyPendingGovernor",
      "type": "error"
    },
    {
      "inputs": [],
      "name": "ZeroAddress",
      "type": "error"
    },
    {
      "anonymous": false,
      "inputs": [
        {
          "indexed": false,
          "internalType": "contract IDataReceiver",
          "name": "_dataReceiver",
          "type": "address"
        }
      ],
      "name": "DataReceiverSet",
      "type": "event"
    },
    {
      "anonymous": false,
      "inputs": [
        {
          "indexed": false,
          "internalType": "uint16",
          "name": "_initialCardinality",
          "type": "uint16"
        }
      ],
      "name": "InitialCardinalitySet",
      "type": "event"
    },
    {
      "anonymous": false,
      "inputs": [
        {
          "indexed": false,
          "internalType": "address",
          "name": "_oracle",
          "type": "address"
        },
        {
          "indexed": false,
          "internalType": "bytes32",
          "name": "_poolSalt",
          "type": "bytes32"
        },
        {
          "indexed": false,
          "internalType": "uint16",
          "name": "_cardinality",
          "type": "uint16"
        }
      ],
      "name": "OracleDeployed",
      "type": "event"
    },
    {
      "anonymous": false,
      "inputs": [
        {
          "indexed": false,
          "internalType": "address",
          "name": "_newGovernor",
          "type": "address"
        }
      ],
      "name": "PendingGovernorAccepted",
      "type": "event"
    },
    {
      "anonymous": false,
      "inputs": [
        {
          "indexed": false,
          "internalType": "address",
          "name": "_governor",
          "type": "address"
        },
        {
          "indexed": false,
          "internalType": "address",
          "name": "_pendingGovernor",
          "type": "address"
        }
      ],
      "name": "PendingGovernorSet",
      "type": "event"
    },
    {
      "inputs": [],
      "name": "acceptPendingGovernor",
      "outputs": [],
      "stateMutability": "nonpayable",
      "type": "function"
    },
    {
      "inputs": [],
      "name": "dataReceiver",
      "outputs": [
        {
          "internalType": "contract IDataReceiver",
          "name": "",
          "type": "address"
        }
      ],
      "stateMutability": "view",
      "type": "function"
    },
    {
      "inputs": [
        {
          "internalType": "bytes32",
          "name": "_poolSalt",
          "type": "bytes32"
        },
        {
          "internalType": "uint24",
          "name": "_initialNonce",
          "type": "uint24"
        }
      ],
      "name": "deployOracle",
      "outputs": [
        {
          "internalType": "address",
          "name": "_deployedOracle",
          "type": "address"
        }
      ],
      "stateMutability": "nonpayable",
      "type": "function"
    },
    {
      "inputs": [
        {
          "internalType": "address",
          "name": "_tokenA",
          "type": "address"
        },
        {
          "internalType": "address",
          "name": "_tokenB",
          "type": "address"
        },
        {
          "internalType": "uint24",
          "name": "_fee",
          "type": "uint24"
        }
      ],
      "name": "getPool",
      "outputs": [
        {
          "internalType": "address",
          "name": "_oracle",
          "type": "address"
        }
      ],
      "stateMutability": "view",
      "type": "function"
    },
    {
      "inputs": [
        {
          "internalType": "address",
          "name": "_tokenA",
          "type": "address"
        },
        {
          "internalType": "address",
          "name": "_tokenB",
          "type": "address"
        },
        {
          "internalType": "uint24",
          "name": "_fee",
          "type": "uint24"
        }
      ],
      "name": "getPoolSalt",
      "outputs": [
        {
          "internalType": "bytes32",
          "name": "_poolSalt",
          "type": "bytes32"
        }
      ],
      "stateMutability": "pure",
      "type": "function"
    },
    {
      "inputs": [],
      "name": "governor",
      "outputs": [
        {
          "internalType": "address",
          "name": "",
          "type": "address"
        }
      ],
      "stateMutability": "view",
      "type": "function"
    },
    {
      "inputs": [],
      "name": "initialCardinality",
      "outputs": [
        {
          "internalType": "uint16",
          "name": "",
          "type": "uint16"
        }
      ],
      "stateMutability": "view",
      "type": "function"
    },
    {
      "inputs": [],
      "name": "oracleParameters",
      "outputs": [
        {
          "internalType": "contract IOracleFactory",
          "name": "factory",
          "type": "address"
        },
        {
          "internalType": "bytes32",
          "name": "poolSalt",
          "type": "bytes32"
        },
        {
          "internalType": "uint24",
          "name": "poolNonce",
          "type": "uint24"
        },
        {
          "internalType": "uint16",
          "name": "cardinality",
          "type": "uint16"
        }
      ],
      "stateMutability": "view",
      "type": "function"
    },
    {
      "inputs": [],
      "name": "pendingGovernor",
      "outputs": [
        {
          "internalType": "address",
          "name": "",
          "type": "address"
        }
      ],
      "stateMutability": "view",
      "type": "function"
    },
    {
      "inputs": [
        {
          "internalType": "contract IDataReceiver",
          "name": "_dataReceiver",
          "type": "address"
        }
      ],
      "name": "setDataReceiver",
      "outputs": [],
      "stateMutability": "nonpayable",
      "type": "function"
    },
    {
      "inputs": [
        {
          "internalType": "uint16",
          "name": "_initialCardinality",
          "type": "uint16"
        }
      ],
      "name": "setInitialCardinality",
      "outputs": [],
      "stateMutability": "nonpayable",
      "type": "function"
    },
    {
      "inputs": [
        {
          "internalType": "address",
          "name": "_pendingGovernor",
          "type": "address"
        }
      ],
      "name": "setPendingGovernor",
      "outputs": [],
      "stateMutability": "nonpayable",
      "type": "function"
    }
  ],
  "transactionHash": "0xb2321b2e1b94ff00d273a97a57c0327e158533164a9ba18b43ceafc358c1e2ff",
  "args": [
    "0x57B067e4E27558FE2c60fCE86941011cB5F5A4FD",
    "0x0000000000000000000000000000000000000000"
  ],
  "numDeployments": 1,
  "solcInputHash": "e7fc03fa33df5bc693f224b1290bbe21",
  "bytecode": "0x60806040526006805461ffff1916609017905534801561001e57600080fd5b506040516120db3803806120db83398101604081905261003d916100b2565b816001600160a01b0381166100655760405163d92e233d60e01b815260040160405180910390fd5b600080546001600160a01b039283166001600160a01b03199182161790915560028054939092169216919091179055506100ec565b6001600160a01b03811681146100af57600080fd5b50565b600080604083850312156100c557600080fd5b82516100d08161009a565b60208401519092506100e18161009a565b809150509250929050565b611fe0806100fb6000396000f3fe608060405234801561001057600080fd5b50600436106100b45760003560e01c806397862d6d1161007157806397862d6d1461014d57806399df712014610160578063e3056a34146101c5578063e8047788146101d8578063ebaa56aa146101eb578063f235757f1461020c57600080fd5b806307d5851a146100b95780630c340a24146100ce57806313f6986d146100fe5780631698ee82146101065780633c1a17ff146101195780635cc1fd361461013a575b600080fd5b6100cc6100c73660046106ed565b61021f565b005b6000546100e1906001600160a01b031681565b6040516001600160a01b0390911681526020015b60405180910390f35b6100cc61029f565b6100e1610114366004610722565b6102d4565b61012c610127366004610722565b61038d565b6040519081526020016100f5565b6100e1610148366004610769565b610406565b6100cc61015b366004610795565b610544565b60035460045460055461018d926001600160a01b0316919062ffffff8116906301000000900461ffff1684565b604080516001600160a01b039095168552602085019390935262ffffff9091169183019190915261ffff1660608201526080016100f5565b6001546100e1906001600160a01b031681565b6002546100e1906001600160a01b031681565b6006546101f99061ffff1681565b60405161ffff90911681526020016100f5565b6100cc61021a3660046106ed565b6105b3565b6000546001600160a01b0316331461024a5760405163070545c960e51b815260040160405180910390fd5b600280546001600160a01b0319166001600160a01b0383169081179091556040519081527f23ab7a40fedc3062f72fa590994df2ec8e49b54309a22df0ad3790dbc56346be906020015b60405180910390a150565b6001546001600160a01b031633146102ca57604051639ba0305d60e01b815260040160405180910390fd5b6102d26105ea565b565b6000806102e285858561038d565b90506103663082604051806020016102f9906106cb565b601f1982820381018352601f90910116604081815282516020938401206001600160f81b03198385015260609590951b6bffffffffffffffffffffffff19166021830152603582019390935260558082019490945282518082039094018452607501909152815191012090565b9150816001600160a01b03163b600003610384576000915050610386565b505b9392505050565b6000806000846001600160a01b0316866001600160a01b0316106103b25784866103b5565b85855b604080516001600160a01b03808516602083015283169181019190915262ffffff87166060820152919350915060800160405160208183030381529060405280519060200120925050509392505050565b6002546000906001600160a01b0316331461043457604051638e5b30cb60e01b815260040160405180910390fd5b60408051608081018252308082526020820186905262ffffff851682840181905260065461ffff166060909301839052600380546001600160a01b03191690921790915560048690556005805464ffffffffff191690911763010000009092029190911790555183906104a6906106cb565b8190604051809103906000f59050801580156104c6573d6000803e3d6000fd5b50600380546001600160a01b031916905560006004556005805464ffffffffff19169055600654604080516001600160a01b03841681526020810187905261ffff909216908201529091507ff643dccb9b460e4f17699bf473e898bdbebd63ef8f018af915aa951cddf391689060600160405180910390a192915050565b6000546001600160a01b0316331461056f5760405163070545c960e51b815260040160405180910390fd5b6006805461ffff191661ffff83169081179091556040519081527fec9fa937c26cb048aac5fc5992eaace52f38cd13c8da22f42630090bd258261f90602001610294565b6000546001600160a01b031633146105de5760405163070545c960e51b815260040160405180910390fd5b6105e781610648565b50565b60018054600080546001600160a01b0383166001600160a01b031991821681179092559091169091556040519081527f5d5d6e01b731c3e68060f7fe13156f6197d4aeffc2d6f498e34c717ae616b7349060200160405180910390a1565b6001600160a01b03811661066f5760405163d92e233d60e01b815260040160405180910390fd5b600180546001600160a01b0319166001600160a01b038381169182179092556000546040805191909316815260208101919091527f6353ec38ac394f8be94bfafcdd3580d356470599059eaeebedc3207e1cc03dec9101610294565b6117f1806107ba83390190565b6001600160a01b03811681146105e757600080fd5b6000602082840312156106ff57600080fd5b8135610386816106d8565b803562ffffff8116811461071d57600080fd5b919050565b60008060006060848603121561073757600080fd5b8335610742816106d8565b92506020840135610752816106d8565b91506107606040850161070a565b90509250925092565b6000806040838503121561077c57600080fd5b8235915061078c6020840161070a565b90509250929050565b6000602082840312156107a757600080fd5b813561ffff8116811461038657600080fdfe60c06040523480156200001157600080fd5b506000336001600160a01b03166399df71206040518163ffffffff1660e01b8152600401608060405180830381865afa15801562000053573d6000803e3d6000fd5b505050506040513d601f19601f82011682018060405250810190620000799190620001c6565b62010000805462ffffff90931662ffffff199093169290921790915560a0919091526001600160a01b039091166080526040805160e081018252600080825260208201529192508101620000cf6001846200023a565b61ffff90811682529283166020808301829052604080840192909252600060608085018290526001608095860152855182549387015194870151918701519587015160a088015160c0909801511515600160f01b0260ff60f01b1960ff99909916600160e81b0260ff60e81b19928b16600160d81b029290921662ffffff60d81b19988b16600160c81b0261ffff60c81b1995909b16600160b81b029490941663ffffffff60b81b1962ffffff909816600160a01b026001600160b81b03199097166001600160a01b039094169390931795909517959095161796909617939093169490941717919091169190911790556200026c565b60008060008060808587031215620001dd57600080fd5b84516001600160a01b0381168114620001f557600080fd5b60208601516040870151919550935062ffffff811681146200021657600080fd5b606086015190925061ffff811681146200022f57600080fd5b939692955090935050565b600061ffff838116908316818110156200026457634e487b7160e01b600052601160045260246000fd5b039392505050565b60805160a05161154a620002a76000396000818161025c0152818161050901526105b101526000818161029101526102e4015261154a6000f3fe608060405234801561001057600080fd5b50600436106100a95760003560e01c8063883bdbfd11610071578063883bdbfd146102115780639fdbd4d714610232578063c1c9115a14610257578063c45a01551461028c578063d21220a7146102b3578063ddca3f43146102c857600080fd5b80630dfe1681146100ae57806323e512d4146100e7578063252c09d71461010a5780633453952f146101575780633850c7bd1461016c575b600080fd5b62010000546100ca90630100000090046001600160a01b031681565b6040516001600160a01b0390911681526020015b60405180910390f35b6100fa6100f5366004611205565b6102e0565b60405190151581526020016100de565b61011d610118366004611306565b61042c565b6040805163ffffffff909516855260069390930b60208501526001600160a01b0390911691830191909152151560608201526080016100de565b61016a610165366004611337565b610471565b005b6000546101c0906001600160a01b03811690600160a01b810460020b9061ffff600160b81b8204811691600160c81b8104821691600160d81b8204169060ff600160e81b8204811691600160f01b90041687565b604080516001600160a01b03909816885260029690960b602088015261ffff94851695870195909552918316606086015291909116608084015260ff1660a0830152151560c082015260e0016100de565b61022461021f36600461137e565b610619565b6040516100de9291906113f3565b62010000546102439062ffffff1681565b60405162ffffff90911681526020016100de565b61027e7f000000000000000000000000000000000000000000000000000000000000000081565b6040519081526020016100de565b6100ca7f000000000000000000000000000000000000000000000000000000000000000081565b62010001546100ca906001600160a01b031681565b620100015461024390600160a01b900462ffffff1681565b60007f00000000000000000000000000000000000000000000000000000000000000006001600160a01b031663e80477886040518163ffffffff1660e01b8152600401602060405180830381865afa158015610340573d6000803e3d6000fd5b505050506040513d601f19601f82011682018060405250810190610364919061147a565b6001600160a01b0316336001600160a01b03161461039557604051638e5b30cb60e01b815260040160405180910390fd5b62010000805462ffffff169060006103ac836114ad565b91906101000a81548162ffffff021916908362ffffff16021790555062ffffff168262ffffff16146103e057506000610426565b825160005b8181101561041f5761040f858281518110610402576104026114cf565b602002602001015161068a565b610418816114e5565b90506103e5565b5060019150505b92915050565b60018161ffff811061043d57600080fd5b015463ffffffff81169150600160201b810460060b90600160581b81046001600160a01b031690600160f81b900460ff1684565b600054600160f01b900460ff1661049b5760405163139816ff60e31b815260040160405180910390fd5b600080836001600160a01b0316856001600160a01b0316106104be5783856104c1565b84845b604080516001600160a01b03808516602083015283169181019190915262ffffff861660608201529193509150608001604051602081830303815290604052805190602001207f0000000000000000000000000000000000000000000000000000000000000000146105455760405162820f3560e61b815260040160405180910390fd5b6201000080546301000000600160b81b03191663010000006001600160a01b03858116918202929092179092556201000180549184166001600160b81b03199092168217600160a01b62ffffff8816908102919091179091556000805460ff60f01b19169055604080517f00000000000000000000000000000000000000000000000000000000000000008152602081019490945283019190915260608201527fb50ab96cf9f83d6c076a0d2a6e27a65bf1242920ba414829aa618d57d4a263739060800160405180910390a15050505050565b60608061067f4285858080602002602001604051908101604052809392919081815260200183836020028082843760009201829052508054600196959450600160a01b810460020b935061ffff600160b81b820481169350600160c81b9091041661077f565b915091509250929050565b60008054825182916106cc9160019161ffff600160b81b820481169291600160a01b810460020b918791600160c81b8104821691600160d81b909104166108ca565b600080546020878101805162ffffff16600160a01b0262ffffff60a01b1961ffff888116600160b81b0261ffff60b81b19918916600160c81b029190911663ffffffff60b81b199096169590951794909417939093169290921790925560408051338152885163ffffffff1693810193909352905160020b9082015291935091507f351cb05bc71b044931f7410e88dceed68c021615a824de572c6cb0a735f50ac49060600160405180910390a1505050565b60608060008361ffff16116107a757604051636b93000360e11b815260040160405180910390fd5b865167ffffffffffffffff8111156107c1576107c161117d565b6040519080825280602002602001820160405280156107ea578160200160208202803683370190505b509150865167ffffffffffffffff8111156108075761080761117d565b604051908082528060200260200182016040528015610830578160200160208202803683370190505b50905060005b87518110156108bd576108678a8a8a8481518110610856576108566114cf565b60200260200101518a8a8a8a610a52565b848381518110610879576108796114cf565b60200260200101848481518110610892576108926114cf565b6001600160a01b039093166020938402919091019092019190915260069190910b9052600101610836565b5097509795505050505050565b6000806000898961ffff1661ffff81106108e6576108e66114cf565b60408051608081018252919092015463ffffffff808216808452600160201b830460060b6020850152600160581b83046001600160a01b031694840194909452600160f81b90910460ff16151560608301529092508916900361094f5788859250925050610a46565b8461ffff168461ffff1611801561097057506001850361ffff168961ffff16145b1561097d57839150610981565b8491505b8161ffff168960010161ffff168161099b5761099b6114fe565b0692506109aa81898989610c01565b8a8461ffff1661ffff81106109c1576109c16114cf565b825191018054602084015160408501516060909501511515600160f81b026001600160f81b036001600160a01b03909616600160581b02959095166affffffffffffffffffffff66ffffffffffffff909216600160201b026affffffffffffffffffffff1990931663ffffffff90951694909417919091171691909117919091179055505b97509795505050505050565b6000808663ffffffff16600003610afb576000898661ffff1661ffff8110610a7c57610a7c6114cf565b60408051608081018252919092015463ffffffff808216808452600160201b830460060b6020850152600160581b83046001600160a01b031694840194909452600160f81b90910460ff16151560608301529092508a1614610ae757610ae4818a8988610c01565b90505b806020015181604001519250925050610a46565b868803600080610b108c8c858c8c8c8c610cc6565b91509150816000015163ffffffff168363ffffffff1603610b41578160200151826040015194509450505050610a46565b806000015163ffffffff168363ffffffff1603610b6e578060200151816040015194509450505050610a46565b60008260000151826000015103905060008360000151850390508063ffffffff168263ffffffff1660060b856020015185602001510360060b81610bb457610bb46114fe565b05028460200151018263ffffffff168263ffffffff1686604001518660400151036001600160a01b03160281610bec57610bec6114fe565b04856040015101965096505050505050610a46565b604080516080810182526000808252602082018190529181018290526060810191909152600085600001518503905060405180608001604052808663ffffffff1681526020018263ffffffff168660020b0288602001510160060b81526020016000856001600160801b031611610c79576001610c7b565b845b6001600160801b031663ffffffff60801b608085901b1681610c9f57610c9f6114fe565b048860400151016001600160a01b0316815260200160011515815250915050949350505050565b604080516080810182526000808252602082018190529181018290526060810191909152604080516080810182526000808252602082018190529181018290526060810191909152888561ffff1661ffff8110610d2557610d256114cf565b60408051608081018252919092015463ffffffff8116808352600160201b820460060b6020840152600160581b82046001600160a01b031693830193909352600160f81b900460ff16151560608201529250610d8390899089610ed2565b15610daf57815163ffffffff888116911614610a465781610da683898988610c01565b91509150610a46565b888361ffff168660010161ffff1681610dca57610dca6114fe565b0661ffff1661ffff8110610de057610de06114cf565b60408051608081018252929091015463ffffffff81168352600160201b810460060b60208401526001600160a01b03600160581b8204169183019190915260ff600160f81b90910416151560608201819052909250610e8957604080516080810182528a5463ffffffff81168252600160201b810460060b6020830152600160581b81046001600160a01b031692820192909252600160f81b90910460ff161515606082015291505b610e9888836000015189610ed2565b610eb5576040516327e8e87560e01b815260040160405180910390fd5b610ec28989898887610f95565b9150915097509795505050505050565b60008363ffffffff168363ffffffff1611158015610efc57508363ffffffff168263ffffffff1611155b15610f18578163ffffffff168363ffffffff1611159050610f8e565b60008463ffffffff168463ffffffff1611610f3f578363ffffffff16600160201b01610f47565b8363ffffffff165b64ffffffffff16905060008563ffffffff168463ffffffff1611610f77578363ffffffff16600160201b01610f7f565b8363ffffffff165b64ffffffffff16909111159150505b9392505050565b60408051608081018252600080825260208201819052918101829052606081019190915260408051608081018252600080825260208201819052918101829052606081019190915260008361ffff168560010161ffff1681610ff957610ff96114fe565b0661ffff169050600060018561ffff16830103905060005b506002818301048961ffff8716828161102c5761102c6114fe565b0661ffff811061103e5761103e6114cf565b60408051608081018252929091015463ffffffff81168352600160201b810460060b60208401526001600160a01b03600160581b8204169183019190915260ff600160f81b909104161515606082018190529095506110a257806001019250611011565b898661ffff1682600101816110b9576110b96114fe565b0661ffff81106110cb576110cb6114cf565b60408051608081018252929091015463ffffffff81168352600160201b810460060b60208401526001600160a01b03600160581b8204169183019190915260ff600160f81b9091041615156060820152855190945060009061112f908b908b610ed2565b905080801561114857506111488a8a8760000151610ed2565b156111535750611170565b806111635760018203925061116a565b8160010193505b50611011565b5050509550959350505050565b634e487b7160e01b600052604160045260246000fd5b6040805190810167ffffffffffffffff811182821017156111b6576111b661117d565b60405290565b604051601f8201601f1916810167ffffffffffffffff811182821017156111e5576111e561117d565b604052919050565b803562ffffff8116811461120057600080fd5b919050565b600080604080848603121561121957600080fd5b833567ffffffffffffffff8082111561123157600080fd5b818601915086601f83011261124557600080fd5b81356020828211156112595761125961117d565b611267818360051b016111bc565b828152818101935060069290921b84018101918983111561128757600080fd5b938101935b828510156112eb5785858b0312156112a45760008081fd5b6112ac611193565b853563ffffffff811681146112c15760008081fd5b815285830135600281900b81146112d85760008081fd5b818401528452938501939281019261128c565b96506112f88882016111ed565b955050505050509250929050565b60006020828403121561131857600080fd5b5035919050565b6001600160a01b038116811461133457600080fd5b50565b60008060006060848603121561134c57600080fd5b83356113578161131f565b925060208401356113678161131f565b9150611375604085016111ed565b90509250925092565b6000806020838503121561139157600080fd5b823567ffffffffffffffff808211156113a957600080fd5b818501915085601f8301126113bd57600080fd5b8135818111156113cc57600080fd5b8660208260051b85010111156113e157600080fd5b60209290920196919550909350505050565b604080825283519082018190526000906020906060840190828701845b8281101561142f57815160060b84529284019290840190600101611410565b5050508381038285015284518082528583019183019060005b8181101561146d5783516001600160a01b031683529284019291840191600101611448565b5090979650505050505050565b60006020828403121561148c57600080fd5b8151610f8e8161131f565b634e487b7160e01b600052601160045260246000fd5b600062ffffff8083168181036114c5576114c5611497565b6001019392505050565b634e487b7160e01b600052603260045260246000fd5b6000600182016114f7576114f7611497565b5060010190565b634e487b7160e01b600052601260045260246000fdfea2646970667358221220814f2460314b2465a39bce069aae0c6455ed550472e9e01412f65ddab822245264736f6c634300080f0033a2646970667358221220272b7b68b42f6db10b623477282dff2fae077f4db72b615e368c2f7d644a52a064736f6c634300080f0033",
  "devdoc": {
    "kind": "dev",
    "methods": {
      "getPool(address,address,uint24)": {
        "params": {
          "_fee": "The fee denominated in hundredths of a bip",
          "_tokenA": "The contract address of either token0 or token1",
          "_tokenB": "The contract address of the other token"
        },
        "returns": {
          "_oracle": "The oracle address"
        }
      },
      "getPoolSalt(address,address,uint24)": {
        "params": {
          "_fee": "The fee denominated in hundredths of a bip",
          "_tokenA": "The contract address of either token0 or token1",
          "_tokenB": "The contract address of the other token"
        },
        "returns": {
          "_poolSalt": "Pool salt for inquired parameters"
        }
      },
      "setDataReceiver(address)": {
        "details": "Will disallow the previous dataReceiver",
        "params": {
          "_dataReceiver": "The address of the new allowed dataReceiver"
        }
      },
      "setInitialCardinality(uint16)": {
        "params": {
          "_initialCardinality": "The initial size of the observations memory storage for newly deployed pools"
        }
      },
      "setPendingGovernor(address)": {
        "params": {
          "_pendingGovernor": "Address of the proposed new governor"
        }
      }
    },
    "stateVariables": {
      "initialCardinality": {
        "return": "The initial size of the observations memory storage for newly deployed pools",
        "returns": {
          "_0": "The initial size of the observations memory storage for newly deployed pools"
        }
      },
      "oracleParameters": {
        "returns": {
          "cardinality": "The size of the observations memory storage",
          "factory": "The address of the deployer factory",
          "poolNonce": "The initial nonce of the pool data",
          "poolSalt": "The id of both the oracle and the pool"
        }
      }
    },
    "version": 1
  },
  "userdoc": {
    "errors": {
      "OnlyGovernor()": [
        {
          "notice": "Throws if a non-governor user tries to call a OnlyGovernor function"
        }
      ],
      "OnlyPendingGovernor()": [
        {
          "notice": "Throws if a non-pending-governor user tries to call a OnlyPendingGovernor function"
        }
      ],
      "ZeroAddress()": [
        {
          "notice": "Throws if a variable is assigned to the zero address"
        }
      ]
    },
    "events": {
      "PendingGovernorAccepted(address)": {
        "notice": "Emitted when a new governor is set"
      },
      "PendingGovernorSet(address,address)": {
        "notice": "Emitted when a new pending governor is set"
      }
    },
    "kind": "user",
    "methods": {
      "acceptPendingGovernor()": {
        "notice": "Allows a proposed governor to accept the governance"
      },
      "getPool(address,address,uint24)": {
        "notice": "Overrides UniV3Factory getPool mapping"
      },
      "setDataReceiver(address)": {
        "notice": "Allows governor to set a new allowed dataReceiver"
      },
      "setInitialCardinality(uint16)": {
        "notice": "Allows governor to set a new initial cardinality for new oracles"
      },
      "setPendingGovernor(address)": {
        "notice": "Allows a governor to propose a new governor"
      }
    },
    "version": 1
  },
  "storageLayout": {
    "storage": [
      {
        "astId": 14697,
        "contract": "solidity/contracts/OracleFactory.sol:OracleFactory",
        "label": "governor",
        "offset": 0,
        "slot": "0",
        "type": "t_address"
      },
      {
        "astId": 14700,
        "contract": "solidity/contracts/OracleFactory.sol:OracleFactory",
        "label": "pendingGovernor",
        "offset": 0,
        "slot": "1",
        "type": "t_address"
      },
      {
        "astId": 13866,
        "contract": "solidity/contracts/OracleFactory.sol:OracleFactory",
        "label": "dataReceiver",
        "offset": 0,
        "slot": "2",
        "type": "t_contract(IDataReceiver)16165"
      },
      {
        "astId": 13869,
        "contract": "solidity/contracts/OracleFactory.sol:OracleFactory",
        "label": "oracleParameters",
        "offset": 0,
        "slot": "3",
        "type": "t_struct(OracleParameters)16185_storage"
      },
      {
        "astId": 13873,
        "contract": "solidity/contracts/OracleFactory.sol:OracleFactory",
        "label": "initialCardinality",
        "offset": 0,
        "slot": "6",
        "type": "t_uint16"
      }
    ],
    "types": {
      "t_address": {
        "encoding": "inplace",
        "label": "address",
        "numberOfBytes": "20"
      },
      "t_bytes32": {
        "encoding": "inplace",
        "label": "bytes32",
        "numberOfBytes": "32"
      },
      "t_contract(IDataReceiver)16165": {
        "encoding": "inplace",
        "label": "contract IDataReceiver",
        "numberOfBytes": "20"
      },
      "t_contract(IOracleFactory)16277": {
        "encoding": "inplace",
        "label": "contract IOracleFactory",
        "numberOfBytes": "20"
      },
      "t_struct(OracleParameters)16185_storage": {
        "encoding": "inplace",
        "label": "struct IOracleFactory.OracleParameters",
        "members": [
          {
            "astId": 16178,
            "contract": "solidity/contracts/OracleFactory.sol:OracleFactory",
            "label": "factory",
            "offset": 0,
            "slot": "0",
            "type": "t_contract(IOracleFactory)16277"
          },
          {
            "astId": 16180,
            "contract": "solidity/contracts/OracleFactory.sol:OracleFactory",
            "label": "poolSalt",
            "offset": 0,
            "slot": "1",
            "type": "t_bytes32"
          },
          {
            "astId": 16182,
            "contract": "solidity/contracts/OracleFactory.sol:OracleFactory",
            "label": "poolNonce",
            "offset": 0,
            "slot": "2",
            "type": "t_uint24"
          },
          {
            "astId": 16184,
            "contract": "solidity/contracts/OracleFactory.sol:OracleFactory",
            "label": "cardinality",
            "offset": 3,
            "slot": "2",
            "type": "t_uint16"
          }
        ],
        "numberOfBytes": "96"
      },
      "t_uint16": {
        "encoding": "inplace",
        "label": "uint16",
        "numberOfBytes": "2"
      },
      "t_uint24": {
        "encoding": "inplace",
        "label": "uint24",
        "numberOfBytes": "3"
      }
    }
  }
}